{"contracts/DaoSystem.sol":{"Performance":{"abi":[{"inputs":[{"internalType":"address","name":"_leader","type":"address"}],"stateMutability":"nonpayable","type":"constructor"},{"inputs":[{"internalType":"uint256","name":"_grantAmount","type":"uint256"}],"name":"addGrant","outputs":[],"stateMutability":"nonpayable","type":"function"},{"inputs":[{"internalType":"uint256","name":"_amount","type":"uint256"},{"internalType":"address","name":"_addedBy","type":"address"},{"internalType":"address","name":"_subDAO","type":"address"},{"internalType":"uint256","name":"_grantAmount","type":"uint256"}],"name":"addPerformance","outputs":[],"stateMutability":"nonpayable","type":"function"},{"inputs":[],"name":"addSub","outputs":[],"stateMutability":"nonpayable","type":"function"},{"inputs":[{"internalType":"uint256","name":"_monthlyGrants","type":"uint256"},{"internalType":"address","name":"_subDAO","type":"address"}],"name":"getPayment","outputs":[{"internalType":"uint256","name":"","type":"uint256"}],"stateMutability":"view","type":"function"},{"inputs":[{"internalType":"address","name":"","type":"address"},{"internalType":"uint256","name":"","type":"uint256"}],"name":"subPerformance","outputs":[{"internalType":"uint256","name":"","type":"uint256"}],"stateMutability":"view","type":"function"},{"inputs":[],"name":"totalGrants","outputs":[{"internalType":"uint256","name":"","type":"uint256"}],"stateMutability":"view","type":"function"},{"inputs":[],"name":"totalMembers","outputs":[{"internalType":"uint256","name":"","type":"uint256"}],"stateMutability":"view","type":"function"},{"inputs":[{"internalType":"uint256","name":"","type":"uint256"}],"name":"totalPerformance","outputs":[{"internalType":"uint256","name":"","type":"uint256"}],"stateMutability":"view","type":"function"},{"inputs":[],"name":"totalSubs","outputs":[{"internalType":"uint256","name":"","type":"uint256"}],"stateMutability":"view","type":"function"}],"evm":{"bytecode":{"linkReferences":{},"object":"608060405234801561001057600080fd5b50604051610bb9380380610bb98339818101604052810190610032919061008e565b80600460006101000a81548173ffffffffffffffffffffffffffffffffffffffff021916908373ffffffffffffffffffffffffffffffffffffffff16021790555050610100565b600081519050610088816100e9565b92915050565b6000602082840312156100a057600080fd5b60006100ae84828501610079565b91505092915050565b60006100c2826100c9565b9050919050565b600073ffffffffffffffffffffffffffffffffffffffff82169050919050565b6100f2816100b7565b81146100fd57600080fd5b50565b610aaa8061010f6000396000f3fe608060405234801561001057600080fd5b50600436106100935760003560e01c80639087783411610066578063908778341461010c57806395e8af151461013c578063978cc8991461016c578063d9211be814610188578063f5676f8f146101a657610093565b80630b1a8f26146100985780630e376dea146100b45780632d2ab40b146100e457806376e92559146100ee575b600080fd5b6100b260048036038101906100ad919061075c565b6101c4565b005b6100ce60048036038101906100c99190610785565b61028a565b6040516100db9190610876565b60405180910390f35b6100ec610354565b005b6100f6610400565b6040516101039190610876565b60405180910390f35b6101266004803603810190610121919061075c565b610406565b6040516101339190610876565b60405180910390f35b61015660048036038101906101519190610720565b61041e565b6040516101639190610876565b60405180910390f35b610186600480360381019061018191906107c1565b610443565b005b6101906106ea565b60405161019d9190610876565b60405180910390f35b6101ae6106f0565b6040516101bb9190610876565b60405180910390f35b600460009054906101000a900473ffffffffffffffffffffffffffffffffffffffff1673ffffffffffffffffffffffffffffffffffffffff163373ffffffffffffffffffffffffffffffffffffffff1614610254576040517f08c379a000000000000000000000000000000000000000000000000000000000815260040161024b90610856565b60405180910390fd5b806001600082825461026691906108a2565b9250508190555060016003600082825461028091906108a2565b9250508190555050565b6000806224ea004261029c91906108f8565b90506000600660008381526020019081526020016000205414156102d057600254846102c891906108f8565b91505061034e565b6006600082815260200190815260200160002054600560008573ffffffffffffffffffffffffffffffffffffffff1673ffffffffffffffffffffffffffffffffffffffff168152602001908152602001600020600083815260200190815260200160002054856103409190610929565b61034a91906108f8565b9150505b92915050565b600460009054906101000a900473ffffffffffffffffffffffffffffffffffffffff1673ffffffffffffffffffffffffffffffffffffffff163373ffffffffffffffffffffffffffffffffffffffff16146103e4576040517f08c379a00000000000000000000000000000000000000000000000000000000081526004016103db90610856565b60405180910390fd5b6001600260008282546103f791906108a2565b92505081905550565b60035481565b60066020528060005260406000206000915090505481565b6005602052816000526040600020602052806000526040600020600091509150505481565b600460009054906101000a900473ffffffffffffffffffffffffffffffffffffffff1673ffffffffffffffffffffffffffffffffffffffff163373ffffffffffffffffffffffffffffffffffffffff16146104d3576040517f08c379a00000000000000000000000000000000000000000000000000000000081526004016104ca90610856565b60405180910390fd5b60006224ea00426104e491906108f8565b90506000600a6002546104f79190610929565b60015461050491906108f8565b83101561052c57600a60025461051a9190610929565b60015461052791906108f8565b61052e565b825b905080600261053d9190610929565b868768056bc75e2d631000006105539190610929565b61055d9190610929565b61056791906108f8565b600560008773ffffffffffffffffffffffffffffffffffffffff1673ffffffffffffffffffffffffffffffffffffffff16815260200190815260200160002060006001856105b591906108a2565b815260200190815260200160002060008282546105d291906108a2565b925050819055508060026105e69190610929565b868768056bc75e2d631000006105fc9190610929565b6106069190610929565b61061091906108f8565b600560008673ffffffffffffffffffffffffffffffffffffffff1673ffffffffffffffffffffffffffffffffffffffff168152602001908152602001600020600060018561065e91906108a2565b8152602001908152602001600020600082825461067b91906108a2565b9250508190555080868768056bc75e2d631000006106999190610929565b6106a39190610929565b6106ad91906108f8565b600660006001856106be91906108a2565b815260200190815260200160002060008282546106db91906108a2565b92505081905550505050505050565b60015481565b60025481565b60008135905061070581610a46565b92915050565b60008135905061071a81610a5d565b92915050565b6000806040838503121561073357600080fd5b6000610741858286016106f6565b92505060206107528582860161070b565b9150509250929050565b60006020828403121561076e57600080fd5b600061077c8482850161070b565b91505092915050565b6000806040838503121561079857600080fd5b60006107a68582860161070b565b92505060206107b7858286016106f6565b9150509250929050565b600080600080608085870312156107d757600080fd5b60006107e58782880161070b565b94505060206107f6878288016106f6565b9350506040610807878288016106f6565b92505060606108188782880161070b565b91505092959194509250565b6000610831600a83610891565b915061083c82610a1d565b602082019050919050565b610850816109b5565b82525050565b6000602082019050818103600083015261086f81610824565b9050919050565b600060208201905061088b6000830184610847565b92915050565b600082825260208201905092915050565b60006108ad826109b5565b91506108b8836109b5565b9250827fffffffffffffffffffffffffffffffffffffffffffffffffffffffffffffffff038211156108ed576108ec6109bf565b5b828201905092915050565b6000610903826109b5565b915061090e836109b5565b92508261091e5761091d6109ee565b5b828204905092915050565b6000610934826109b5565b915061093f836109b5565b9250817fffffffffffffffffffffffffffffffffffffffffffffffffffffffffffffffff0483118215151615610978576109776109bf565b5b828202905092915050565b600061098e82610995565b9050919050565b600073ffffffffffffffffffffffffffffffffffffffff82169050919050565b6000819050919050565b7f4e487b7100000000000000000000000000000000000000000000000000000000600052601160045260246000fd5b7f4e487b7100000000000000000000000000000000000000000000000000000000600052601260045260246000fd5b7f6e6f74206c656164657200000000000000000000000000000000000000000000600082015250565b610a4f81610983565b8114610a5a57600080fd5b50565b610a66816109b5565b8114610a7157600080fd5b5056fea2646970667358221220cb8940abc8a1f285d3af84ae674772fe6ec2869b9b25adbcabe5de9655ca8aa964736f6c63430008040033","opcodes":"PUSH1 0x80 PUSH1 0x40 MSTORE CALLVALUE DUP1 ISZERO PUSH2 0x10 JUMPI PUSH1 0x0 DUP1 REVERT JUMPDEST POP PUSH1 0x40 MLOAD PUSH2 0xBB9 CODESIZE SUB DUP1 PUSH2 0xBB9 DUP4 CODECOPY DUP2 DUP2 ADD PUSH1 0x40 MSTORE DUP2 ADD SWAP1 PUSH2 0x32 SWAP2 SWAP1 PUSH2 0x8E JUMP JUMPDEST DUP1 PUSH1 0x4 PUSH1 0x0 PUSH2 0x100 EXP DUP2 SLOAD DUP2 PUSH20 0xFFFFFFFFFFFFFFFFFFFFFFFFFFFFFFFFFFFFFFFF MUL NOT AND SWAP1 DUP4 PUSH20 0xFFFFFFFFFFFFFFFFFFFFFFFFFFFFFFFFFFFFFFFF AND MUL OR SWAP1 SSTORE POP POP PUSH2 0x100 JUMP JUMPDEST PUSH1 0x0 DUP2 MLOAD SWAP1 POP PUSH2 0x88 DUP2 PUSH2 0xE9 JUMP JUMPDEST SWAP3 SWAP2 POP POP JUMP JUMPDEST PUSH1 0x0 PUSH1 0x20 DUP3 DUP5 SUB SLT ISZERO PUSH2 0xA0 JUMPI PUSH1 0x0 DUP1 REVERT JUMPDEST PUSH1 0x0 PUSH2 0xAE DUP5 DUP3 DUP6 ADD PUSH2 0x79 JUMP JUMPDEST SWAP2 POP POP SWAP3 SWAP2 POP POP JUMP JUMPDEST PUSH1 0x0 PUSH2 0xC2 DUP3 PUSH2 0xC9 JUMP JUMPDEST SWAP1 POP SWAP2 SWAP1 POP JUMP JUMPDEST PUSH1 0x0 PUSH20 0xFFFFFFFFFFFFFFFFFFFFFFFFFFFFFFFFFFFFFFFF DUP3 AND SWAP1 POP SWAP2 SWAP1 POP JUMP JUMPDEST PUSH2 0xF2 DUP2 PUSH2 0xB7 JUMP JUMPDEST DUP2 EQ PUSH2 0xFD JUMPI PUSH1 0x0 DUP1 REVERT JUMPDEST POP JUMP JUMPDEST PUSH2 0xAAA DUP1 PUSH2 0x10F PUSH1 0x0 CODECOPY PUSH1 0x0 RETURN INVALID PUSH1 0x80 PUSH1 0x40 MSTORE CALLVALUE DUP1 ISZERO PUSH2 0x10 JUMPI PUSH1 0x0 DUP1 REVERT JUMPDEST POP PUSH1 0x4 CALLDATASIZE LT PUSH2 0x93 JUMPI PUSH1 0x0 CALLDATALOAD PUSH1 0xE0 SHR DUP1 PUSH4 0x90877834 GT PUSH2 0x66 JUMPI DUP1 PUSH4 0x90877834 EQ PUSH2 0x10C JUMPI DUP1 PUSH4 0x95E8AF15 EQ PUSH2 0x13C JUMPI DUP1 PUSH4 0x978CC899 EQ PUSH2 0x16C JUMPI DUP1 PUSH4 0xD9211BE8 EQ PUSH2 0x188 JUMPI DUP1 PUSH4 0xF5676F8F EQ PUSH2 0x1A6 JUMPI PUSH2 0x93 JUMP JUMPDEST DUP1 PUSH4 0xB1A8F26 EQ PUSH2 0x98 JUMPI DUP1 PUSH4 0xE376DEA EQ PUSH2 0xB4 JUMPI DUP1 PUSH4 0x2D2AB40B EQ PUSH2 0xE4 JUMPI DUP1 PUSH4 0x76E92559 EQ PUSH2 0xEE JUMPI JUMPDEST PUSH1 0x0 DUP1 REVERT JUMPDEST PUSH2 0xB2 PUSH1 0x4 DUP1 CALLDATASIZE SUB DUP2 ADD SWAP1 PUSH2 0xAD SWAP2 SWAP1 PUSH2 0x75C JUMP JUMPDEST PUSH2 0x1C4 JUMP JUMPDEST STOP JUMPDEST PUSH2 0xCE PUSH1 0x4 DUP1 CALLDATASIZE SUB DUP2 ADD SWAP1 PUSH2 0xC9 SWAP2 SWAP1 PUSH2 0x785 JUMP JUMPDEST PUSH2 0x28A JUMP JUMPDEST PUSH1 0x40 MLOAD PUSH2 0xDB SWAP2 SWAP1 PUSH2 0x876 JUMP JUMPDEST PUSH1 0x40 MLOAD DUP1 SWAP2 SUB SWAP1 RETURN JUMPDEST PUSH2 0xEC PUSH2 0x354 JUMP JUMPDEST STOP JUMPDEST PUSH2 0xF6 PUSH2 0x400 JUMP JUMPDEST PUSH1 0x40 MLOAD PUSH2 0x103 SWAP2 SWAP1 PUSH2 0x876 JUMP JUMPDEST PUSH1 0x40 MLOAD DUP1 SWAP2 SUB SWAP1 RETURN JUMPDEST PUSH2 0x126 PUSH1 0x4 DUP1 CALLDATASIZE SUB DUP2 ADD SWAP1 PUSH2 0x121 SWAP2 SWAP1 PUSH2 0x75C JUMP JUMPDEST PUSH2 0x406 JUMP JUMPDEST PUSH1 0x40 MLOAD PUSH2 0x133 SWAP2 SWAP1 PUSH2 0x876 JUMP JUMPDEST PUSH1 0x40 MLOAD DUP1 SWAP2 SUB SWAP1 RETURN JUMPDEST PUSH2 0x156 PUSH1 0x4 DUP1 CALLDATASIZE SUB DUP2 ADD SWAP1 PUSH2 0x151 SWAP2 SWAP1 PUSH2 0x720 JUMP JUMPDEST PUSH2 0x41E JUMP JUMPDEST PUSH1 0x40 MLOAD PUSH2 0x163 SWAP2 SWAP1 PUSH2 0x876 JUMP JUMPDEST PUSH1 0x40 MLOAD DUP1 SWAP2 SUB SWAP1 RETURN JUMPDEST PUSH2 0x186 PUSH1 0x4 DUP1 CALLDATASIZE SUB DUP2 ADD SWAP1 PUSH2 0x181 SWAP2 SWAP1 PUSH2 0x7C1 JUMP JUMPDEST PUSH2 0x443 JUMP JUMPDEST STOP JUMPDEST PUSH2 0x190 PUSH2 0x6EA JUMP JUMPDEST PUSH1 0x40 MLOAD PUSH2 0x19D SWAP2 SWAP1 PUSH2 0x876 JUMP JUMPDEST PUSH1 0x40 MLOAD DUP1 SWAP2 SUB SWAP1 RETURN JUMPDEST PUSH2 0x1AE PUSH2 0x6F0 JUMP JUMPDEST PUSH1 0x40 MLOAD PUSH2 0x1BB SWAP2 SWAP1 PUSH2 0x876 JUMP JUMPDEST PUSH1 0x40 MLOAD DUP1 SWAP2 SUB SWAP1 RETURN JUMPDEST PUSH1 0x4 PUSH1 0x0 SWAP1 SLOAD SWAP1 PUSH2 0x100 EXP SWAP1 DIV PUSH20 0xFFFFFFFFFFFFFFFFFFFFFFFFFFFFFFFFFFFFFFFF AND PUSH20 0xFFFFFFFFFFFFFFFFFFFFFFFFFFFFFFFFFFFFFFFF AND CALLER PUSH20 0xFFFFFFFFFFFFFFFFFFFFFFFFFFFFFFFFFFFFFFFF AND EQ PUSH2 0x254 JUMPI PUSH1 0x40 MLOAD PUSH32 0x8C379A000000000000000000000000000000000000000000000000000000000 DUP2 MSTORE PUSH1 0x4 ADD PUSH2 0x24B SWAP1 PUSH2 0x856 JUMP JUMPDEST PUSH1 0x40 MLOAD DUP1 SWAP2 SUB SWAP1 REVERT JUMPDEST DUP1 PUSH1 0x1 PUSH1 0x0 DUP3 DUP3 SLOAD PUSH2 0x266 SWAP2 SWAP1 PUSH2 0x8A2 JUMP JUMPDEST SWAP3 POP POP DUP2 SWAP1 SSTORE POP PUSH1 0x1 PUSH1 0x3 PUSH1 0x0 DUP3 DUP3 SLOAD PUSH2 0x280 SWAP2 SWAP1 PUSH2 0x8A2 JUMP JUMPDEST SWAP3 POP POP DUP2 SWAP1 SSTORE POP POP JUMP JUMPDEST PUSH1 0x0 DUP1 PUSH3 0x24EA00 TIMESTAMP PUSH2 0x29C SWAP2 SWAP1 PUSH2 0x8F8 JUMP JUMPDEST SWAP1 POP PUSH1 0x0 PUSH1 0x6 PUSH1 0x0 DUP4 DUP2 MSTORE PUSH1 0x20 ADD SWAP1 DUP2 MSTORE PUSH1 0x20 ADD PUSH1 0x0 KECCAK256 SLOAD EQ ISZERO PUSH2 0x2D0 JUMPI PUSH1 0x2 SLOAD DUP5 PUSH2 0x2C8 SWAP2 SWAP1 PUSH2 0x8F8 JUMP JUMPDEST SWAP2 POP POP PUSH2 0x34E JUMP JUMPDEST PUSH1 0x6 PUSH1 0x0 DUP3 DUP2 MSTORE PUSH1 0x20 ADD SWAP1 DUP2 MSTORE PUSH1 0x20 ADD PUSH1 0x0 KECCAK256 SLOAD PUSH1 0x5 PUSH1 0x0 DUP6 PUSH20 0xFFFFFFFFFFFFFFFFFFFFFFFFFFFFFFFFFFFFFFFF AND PUSH20 0xFFFFFFFFFFFFFFFFFFFFFFFFFFFFFFFFFFFFFFFF AND DUP2 MSTORE PUSH1 0x20 ADD SWAP1 DUP2 MSTORE PUSH1 0x20 ADD PUSH1 0x0 KECCAK256 PUSH1 0x0 DUP4 DUP2 MSTORE PUSH1 0x20 ADD SWAP1 DUP2 MSTORE PUSH1 0x20 ADD PUSH1 0x0 KECCAK256 SLOAD DUP6 PUSH2 0x340 SWAP2 SWAP1 PUSH2 0x929 JUMP JUMPDEST PUSH2 0x34A SWAP2 SWAP1 PUSH2 0x8F8 JUMP JUMPDEST SWAP2 POP POP JUMPDEST SWAP3 SWAP2 POP POP JUMP JUMPDEST PUSH1 0x4 PUSH1 0x0 SWAP1 SLOAD SWAP1 PUSH2 0x100 EXP SWAP1 DIV PUSH20 0xFFFFFFFFFFFFFFFFFFFFFFFFFFFFFFFFFFFFFFFF AND PUSH20 0xFFFFFFFFFFFFFFFFFFFFFFFFFFFFFFFFFFFFFFFF AND CALLER PUSH20 0xFFFFFFFFFFFFFFFFFFFFFFFFFFFFFFFFFFFFFFFF AND EQ PUSH2 0x3E4 JUMPI PUSH1 0x40 MLOAD PUSH32 0x8C379A000000000000000000000000000000000000000000000000000000000 DUP2 MSTORE PUSH1 0x4 ADD PUSH2 0x3DB SWAP1 PUSH2 0x856 JUMP JUMPDEST PUSH1 0x40 MLOAD DUP1 SWAP2 SUB SWAP1 REVERT JUMPDEST PUSH1 0x1 PUSH1 0x2 PUSH1 0x0 DUP3 DUP3 SLOAD PUSH2 0x3F7 SWAP2 SWAP1 PUSH2 0x8A2 JUMP JUMPDEST SWAP3 POP POP DUP2 SWAP1 SSTORE POP JUMP JUMPDEST PUSH1 0x3 SLOAD DUP2 JUMP JUMPDEST PUSH1 0x6 PUSH1 0x20 MSTORE DUP1 PUSH1 0x0 MSTORE PUSH1 0x40 PUSH1 0x0 KECCAK256 PUSH1 0x0 SWAP2 POP SWAP1 POP SLOAD DUP2 JUMP JUMPDEST PUSH1 0x5 PUSH1 0x20 MSTORE DUP2 PUSH1 0x0 MSTORE PUSH1 0x40 PUSH1 0x0 KECCAK256 PUSH1 0x20 MSTORE DUP1 PUSH1 0x0 MSTORE PUSH1 0x40 PUSH1 0x0 KECCAK256 PUSH1 0x0 SWAP2 POP SWAP2 POP POP SLOAD DUP2 JUMP JUMPDEST PUSH1 0x4 PUSH1 0x0 SWAP1 SLOAD SWAP1 PUSH2 0x100 EXP SWAP1 DIV PUSH20 0xFFFFFFFFFFFFFFFFFFFFFFFFFFFFFFFFFFFFFFFF AND PUSH20 0xFFFFFFFFFFFFFFFFFFFFFFFFFFFFFFFFFFFFFFFF AND CALLER PUSH20 0xFFFFFFFFFFFFFFFFFFFFFFFFFFFFFFFFFFFFFFFF AND EQ PUSH2 0x4D3 JUMPI PUSH1 0x40 MLOAD PUSH32 0x8C379A000000000000000000000000000000000000000000000000000000000 DUP2 MSTORE PUSH1 0x4 ADD PUSH2 0x4CA SWAP1 PUSH2 0x856 JUMP JUMPDEST PUSH1 0x40 MLOAD DUP1 SWAP2 SUB SWAP1 REVERT JUMPDEST PUSH1 0x0 PUSH3 0x24EA00 TIMESTAMP PUSH2 0x4E4 SWAP2 SWAP1 PUSH2 0x8F8 JUMP JUMPDEST SWAP1 POP PUSH1 0x0 PUSH1 0xA PUSH1 0x2 SLOAD PUSH2 0x4F7 SWAP2 SWAP1 PUSH2 0x929 JUMP JUMPDEST PUSH1 0x1 SLOAD PUSH2 0x504 SWAP2 SWAP1 PUSH2 0x8F8 JUMP JUMPDEST DUP4 LT ISZERO PUSH2 0x52C JUMPI PUSH1 0xA PUSH1 0x2 SLOAD PUSH2 0x51A SWAP2 SWAP1 PUSH2 0x929 JUMP JUMPDEST PUSH1 0x1 SLOAD PUSH2 0x527 SWAP2 SWAP1 PUSH2 0x8F8 JUMP JUMPDEST PUSH2 0x52E JUMP JUMPDEST DUP3 JUMPDEST SWAP1 POP DUP1 PUSH1 0x2 PUSH2 0x53D SWAP2 SWAP1 PUSH2 0x929 JUMP JUMPDEST DUP7 DUP8 PUSH9 0x56BC75E2D63100000 PUSH2 0x553 SWAP2 SWAP1 PUSH2 0x929 JUMP JUMPDEST PUSH2 0x55D SWAP2 SWAP1 PUSH2 0x929 JUMP JUMPDEST PUSH2 0x567 SWAP2 SWAP1 PUSH2 0x8F8 JUMP JUMPDEST PUSH1 0x5 PUSH1 0x0 DUP8 PUSH20 0xFFFFFFFFFFFFFFFFFFFFFFFFFFFFFFFFFFFFFFFF AND PUSH20 0xFFFFFFFFFFFFFFFFFFFFFFFFFFFFFFFFFFFFFFFF AND DUP2 MSTORE PUSH1 0x20 ADD SWAP1 DUP2 MSTORE PUSH1 0x20 ADD PUSH1 0x0 KECCAK256 PUSH1 0x0 PUSH1 0x1 DUP6 PUSH2 0x5B5 SWAP2 SWAP1 PUSH2 0x8A2 JUMP JUMPDEST DUP2 MSTORE PUSH1 0x20 ADD SWAP1 DUP2 MSTORE PUSH1 0x20 ADD PUSH1 0x0 KECCAK256 PUSH1 0x0 DUP3 DUP3 SLOAD PUSH2 0x5D2 SWAP2 SWAP1 PUSH2 0x8A2 JUMP JUMPDEST SWAP3 POP POP DUP2 SWAP1 SSTORE POP DUP1 PUSH1 0x2 PUSH2 0x5E6 SWAP2 SWAP1 PUSH2 0x929 JUMP JUMPDEST DUP7 DUP8 PUSH9 0x56BC75E2D63100000 PUSH2 0x5FC SWAP2 SWAP1 PUSH2 0x929 JUMP JUMPDEST PUSH2 0x606 SWAP2 SWAP1 PUSH2 0x929 JUMP JUMPDEST PUSH2 0x610 SWAP2 SWAP1 PUSH2 0x8F8 JUMP JUMPDEST PUSH1 0x5 PUSH1 0x0 DUP7 PUSH20 0xFFFFFFFFFFFFFFFFFFFFFFFFFFFFFFFFFFFFFFFF AND PUSH20 0xFFFFFFFFFFFFFFFFFFFFFFFFFFFFFFFFFFFFFFFF AND DUP2 MSTORE PUSH1 0x20 ADD SWAP1 DUP2 MSTORE PUSH1 0x20 ADD PUSH1 0x0 KECCAK256 PUSH1 0x0 PUSH1 0x1 DUP6 PUSH2 0x65E SWAP2 SWAP1 PUSH2 0x8A2 JUMP JUMPDEST DUP2 MSTORE PUSH1 0x20 ADD SWAP1 DUP2 MSTORE PUSH1 0x20 ADD PUSH1 0x0 KECCAK256 PUSH1 0x0 DUP3 DUP3 SLOAD PUSH2 0x67B SWAP2 SWAP1 PUSH2 0x8A2 JUMP JUMPDEST SWAP3 POP POP DUP2 SWAP1 SSTORE POP DUP1 DUP7 DUP8 PUSH9 0x56BC75E2D63100000 PUSH2 0x699 SWAP2 SWAP1 PUSH2 0x929 JUMP JUMPDEST PUSH2 0x6A3 SWAP2 SWAP1 PUSH2 0x929 JUMP JUMPDEST PUSH2 0x6AD SWAP2 SWAP1 PUSH2 0x8F8 JUMP JUMPDEST PUSH1 0x6 PUSH1 0x0 PUSH1 0x1 DUP6 PUSH2 0x6BE SWAP2 SWAP1 PUSH2 0x8A2 JUMP JUMPDEST DUP2 MSTORE PUSH1 0x20 ADD SWAP1 DUP2 MSTORE PUSH1 0x20 ADD PUSH1 0x0 KECCAK256 PUSH1 0x0 DUP3 DUP3 SLOAD PUSH2 0x6DB SWAP2 SWAP1 PUSH2 0x8A2 JUMP JUMPDEST SWAP3 POP POP DUP2 SWAP1 SSTORE POP POP POP POP POP POP POP JUMP JUMPDEST PUSH1 0x1 SLOAD DUP2 JUMP JUMPDEST PUSH1 0x2 SLOAD DUP2 JUMP JUMPDEST PUSH1 0x0 DUP2 CALLDATALOAD SWAP1 POP PUSH2 0x705 DUP2 PUSH2 0xA46 JUMP JUMPDEST SWAP3 SWAP2 POP POP JUMP JUMPDEST PUSH1 0x0 DUP2 CALLDATALOAD SWAP1 POP PUSH2 0x71A DUP2 PUSH2 0xA5D JUMP JUMPDEST SWAP3 SWAP2 POP POP JUMP JUMPDEST PUSH1 0x0 DUP1 PUSH1 0x40 DUP4 DUP6 SUB SLT ISZERO PUSH2 0x733 JUMPI PUSH1 0x0 DUP1 REVERT JUMPDEST PUSH1 0x0 PUSH2 0x741 DUP6 DUP3 DUP7 ADD PUSH2 0x6F6 JUMP JUMPDEST SWAP3 POP POP PUSH1 0x20 PUSH2 0x752 DUP6 DUP3 DUP7 ADD PUSH2 0x70B JUMP JUMPDEST SWAP2 POP POP SWAP3 POP SWAP3 SWAP1 POP JUMP JUMPDEST PUSH1 0x0 PUSH1 0x20 DUP3 DUP5 SUB SLT ISZERO PUSH2 0x76E JUMPI PUSH1 0x0 DUP1 REVERT JUMPDEST PUSH1 0x0 PUSH2 0x77C DUP5 DUP3 DUP6 ADD PUSH2 0x70B JUMP JUMPDEST SWAP2 POP POP SWAP3 SWAP2 POP POP JUMP JUMPDEST PUSH1 0x0 DUP1 PUSH1 0x40 DUP4 DUP6 SUB SLT ISZERO PUSH2 0x798 JUMPI PUSH1 0x0 DUP1 REVERT JUMPDEST PUSH1 0x0 PUSH2 0x7A6 DUP6 DUP3 DUP7 ADD PUSH2 0x70B JUMP JUMPDEST SWAP3 POP POP PUSH1 0x20 PUSH2 0x7B7 DUP6 DUP3 DUP7 ADD PUSH2 0x6F6 JUMP JUMPDEST SWAP2 POP POP SWAP3 POP SWAP3 SWAP1 POP JUMP JUMPDEST PUSH1 0x0 DUP1 PUSH1 0x0 DUP1 PUSH1 0x80 DUP6 DUP8 SUB SLT ISZERO PUSH2 0x7D7 JUMPI PUSH1 0x0 DUP1 REVERT JUMPDEST PUSH1 0x0 PUSH2 0x7E5 DUP8 DUP3 DUP9 ADD PUSH2 0x70B JUMP JUMPDEST SWAP5 POP POP PUSH1 0x20 PUSH2 0x7F6 DUP8 DUP3 DUP9 ADD PUSH2 0x6F6 JUMP JUMPDEST SWAP4 POP POP PUSH1 0x40 PUSH2 0x807 DUP8 DUP3 DUP9 ADD PUSH2 0x6F6 JUMP JUMPDEST SWAP3 POP POP PUSH1 0x60 PUSH2 0x818 DUP8 DUP3 DUP9 ADD PUSH2 0x70B JUMP JUMPDEST SWAP2 POP POP SWAP3 SWAP6 SWAP2 SWAP5 POP SWAP3 POP JUMP JUMPDEST PUSH1 0x0 PUSH2 0x831 PUSH1 0xA DUP4 PUSH2 0x891 JUMP JUMPDEST SWAP2 POP PUSH2 0x83C DUP3 PUSH2 0xA1D JUMP JUMPDEST PUSH1 0x20 DUP3 ADD SWAP1 POP SWAP2 SWAP1 POP JUMP JUMPDEST PUSH2 0x850 DUP2 PUSH2 0x9B5 JUMP JUMPDEST DUP3 MSTORE POP POP JUMP JUMPDEST PUSH1 0x0 PUSH1 0x20 DUP3 ADD SWAP1 POP DUP2 DUP2 SUB PUSH1 0x0 DUP4 ADD MSTORE PUSH2 0x86F DUP2 PUSH2 0x824 JUMP JUMPDEST SWAP1 POP SWAP2 SWAP1 POP JUMP JUMPDEST PUSH1 0x0 PUSH1 0x20 DUP3 ADD SWAP1 POP PUSH2 0x88B PUSH1 0x0 DUP4 ADD DUP5 PUSH2 0x847 JUMP JUMPDEST SWAP3 SWAP2 POP POP JUMP JUMPDEST PUSH1 0x0 DUP3 DUP3 MSTORE PUSH1 0x20 DUP3 ADD SWAP1 POP SWAP3 SWAP2 POP POP JUMP JUMPDEST PUSH1 0x0 PUSH2 0x8AD DUP3 PUSH2 0x9B5 JUMP JUMPDEST SWAP2 POP PUSH2 0x8B8 DUP4 PUSH2 0x9B5 JUMP JUMPDEST SWAP3 POP DUP3 PUSH32 0xFFFFFFFFFFFFFFFFFFFFFFFFFFFFFFFFFFFFFFFFFFFFFFFFFFFFFFFFFFFFFFFF SUB DUP3 GT ISZERO PUSH2 0x8ED JUMPI PUSH2 0x8EC PUSH2 0x9BF JUMP JUMPDEST JUMPDEST DUP3 DUP3 ADD SWAP1 POP SWAP3 SWAP2 POP POP JUMP JUMPDEST PUSH1 0x0 PUSH2 0x903 DUP3 PUSH2 0x9B5 JUMP JUMPDEST SWAP2 POP PUSH2 0x90E DUP4 PUSH2 0x9B5 JUMP JUMPDEST SWAP3 POP DUP3 PUSH2 0x91E JUMPI PUSH2 0x91D PUSH2 0x9EE JUMP JUMPDEST JUMPDEST DUP3 DUP3 DIV SWAP1 POP SWAP3 SWAP2 POP POP JUMP JUMPDEST PUSH1 0x0 PUSH2 0x934 DUP3 PUSH2 0x9B5 JUMP JUMPDEST SWAP2 POP PUSH2 0x93F DUP4 PUSH2 0x9B5 JUMP JUMPDEST SWAP3 POP DUP2 PUSH32 0xFFFFFFFFFFFFFFFFFFFFFFFFFFFFFFFFFFFFFFFFFFFFFFFFFFFFFFFFFFFFFFFF DIV DUP4 GT DUP3 ISZERO ISZERO AND ISZERO PUSH2 0x978 JUMPI PUSH2 0x977 PUSH2 0x9BF JUMP JUMPDEST JUMPDEST DUP3 DUP3 MUL SWAP1 POP SWAP3 SWAP2 POP POP JUMP JUMPDEST PUSH1 0x0 PUSH2 0x98E DUP3 PUSH2 0x995 JUMP JUMPDEST SWAP1 POP SWAP2 SWAP1 POP JUMP JUMPDEST PUSH1 0x0 PUSH20 0xFFFFFFFFFFFFFFFFFFFFFFFFFFFFFFFFFFFFFFFF DUP3 AND SWAP1 POP SWAP2 SWAP1 POP JUMP JUMPDEST PUSH1 0x0 DUP2 SWAP1 POP SWAP2 SWAP1 POP JUMP JUMPDEST PUSH32 0x4E487B7100000000000000000000000000000000000000000000000000000000 PUSH1 0x0 MSTORE PUSH1 0x11 PUSH1 0x4 MSTORE PUSH1 0x24 PUSH1 0x0 REVERT JUMPDEST PUSH32 0x4E487B7100000000000000000000000000000000000000000000000000000000 PUSH1 0x0 MSTORE PUSH1 0x12 PUSH1 0x4 MSTORE PUSH1 0x24 PUSH1 0x0 REVERT JUMPDEST PUSH32 0x6E6F74206C656164657200000000000000000000000000000000000000000000 PUSH1 0x0 DUP3 ADD MSTORE POP JUMP JUMPDEST PUSH2 0xA4F DUP2 PUSH2 0x983 JUMP JUMPDEST DUP2 EQ PUSH2 0xA5A JUMPI PUSH1 0x0 DUP1 REVERT JUMPDEST POP JUMP JUMPDEST PUSH2 0xA66 DUP2 PUSH2 0x9B5 JUMP JUMPDEST DUP2 EQ PUSH2 0xA71 JUMPI PUSH1 0x0 DUP1 REVERT JUMPDEST POP JUMP INVALID LOG2 PUSH5 0x6970667358 0x22 SLT KECCAK256 0xCB DUP10 BLOCKHASH 0xAB 0xC8 LOG1 CALLCODE DUP6 0xD3 0xAF DUP5 0xAE PUSH8 0x4772FE6EC2869B9B 0x25 0xAD 0xBC 0xAB 0xE5 0xDE SWAP7 SSTORE 0xCA DUP11 0xA9 PUSH5 0x736F6C6343 STOP ADDMOD DIV STOP CALLER "},"methodIdentifiers":{"addGrant(uint256)":"0b1a8f26","addPerformance(uint256,address,address,uint256)":"978cc899","addSub()":"2d2ab40b","getPayment(uint256,address)":"0e376dea","subPerformance(address,uint256)":"95e8af15","totalGrants()":"d9211be8","totalMembers()":"76e92559","totalPerformance(uint256)":"90877834","totalSubs()":"f5676f8f"}}}}}