{
  "_format": "hh-sol-artifact-1",
  "contractName": "Daole",
  "sourceName": "contracts/DAOLE.sol",
  "abi": [
    {
      "inputs": [
        {
          "internalType": "uint256",
          "name": "initialSupply",
          "type": "uint256"
        },
        {
          "internalType": "uint256",
          "name": "_maxSupply",
          "type": "uint256"
        }
      ],
      "stateMutability": "nonpayable",
      "type": "constructor"
    },
    {
      "anonymous": false,
      "inputs": [
        {
          "indexed": true,
          "internalType": "address",
          "name": "owner",
          "type": "address"
        },
        {
          "indexed": true,
          "internalType": "address",
          "name": "spender",
          "type": "address"
        },
        {
          "indexed": false,
          "internalType": "uint256",
          "name": "value",
          "type": "uint256"
        }
      ],
      "name": "Approval",
      "type": "event"
    },
    {
      "anonymous": false,
      "inputs": [
        {
          "indexed": true,
          "internalType": "address",
          "name": "from",
          "type": "address"
        },
        {
          "indexed": true,
          "internalType": "address",
          "name": "to",
          "type": "address"
        },
        {
          "indexed": false,
          "internalType": "uint256",
          "name": "value",
          "type": "uint256"
        }
      ],
      "name": "Transfer",
      "type": "event"
    },
    {
      "inputs": [
        {
          "internalType": "address",
          "name": "owner",
          "type": "address"
        },
        {
          "internalType": "address",
          "name": "spender",
          "type": "address"
        }
      ],
      "name": "allowance",
      "outputs": [
        {
          "internalType": "uint256",
          "name": "",
          "type": "uint256"
        }
      ],
      "stateMutability": "view",
      "type": "function"
    },
    {
      "inputs": [
        {
          "internalType": "address",
          "name": "spender",
          "type": "address"
        },
        {
          "internalType": "uint256",
          "name": "amount",
          "type": "uint256"
        }
      ],
      "name": "approve",
      "outputs": [
        {
          "internalType": "bool",
          "name": "",
          "type": "bool"
        }
      ],
      "stateMutability": "nonpayable",
      "type": "function"
    },
    {
      "inputs": [
        {
          "internalType": "address",
          "name": "account",
          "type": "address"
        }
      ],
      "name": "balanceOf",
      "outputs": [
        {
          "internalType": "uint256",
          "name": "",
          "type": "uint256"
        }
      ],
      "stateMutability": "view",
      "type": "function"
    },
    {
      "inputs": [],
      "name": "decimals",
      "outputs": [
        {
          "internalType": "uint8",
          "name": "",
          "type": "uint8"
        }
      ],
      "stateMutability": "view",
      "type": "function"
    },
    {
      "inputs": [
        {
          "internalType": "address",
          "name": "spender",
          "type": "address"
        },
        {
          "internalType": "uint256",
          "name": "subtractedValue",
          "type": "uint256"
        }
      ],
      "name": "decreaseAllowance",
      "outputs": [
        {
          "internalType": "bool",
          "name": "",
          "type": "bool"
        }
      ],
      "stateMutability": "nonpayable",
      "type": "function"
    },
    {
      "inputs": [
        {
          "internalType": "address",
          "name": "spender",
          "type": "address"
        },
        {
          "internalType": "uint256",
          "name": "addedValue",
          "type": "uint256"
        }
      ],
      "name": "increaseAllowance",
      "outputs": [
        {
          "internalType": "bool",
          "name": "",
          "type": "bool"
        }
      ],
      "stateMutability": "nonpayable",
      "type": "function"
    },
    {
      "inputs": [],
      "name": "leader",
      "outputs": [
        {
          "internalType": "address",
          "name": "",
          "type": "address"
        }
      ],
      "stateMutability": "view",
      "type": "function"
    },
    {
      "inputs": [],
      "name": "maxSupply",
      "outputs": [
        {
          "internalType": "uint256",
          "name": "",
          "type": "uint256"
        }
      ],
      "stateMutability": "view",
      "type": "function"
    },
    {
      "inputs": [],
      "name": "name",
      "outputs": [
        {
          "internalType": "string",
          "name": "",
          "type": "string"
        }
      ],
      "stateMutability": "view",
      "type": "function"
    },
    {
      "inputs": [],
      "name": "symbol",
      "outputs": [
        {
          "internalType": "string",
          "name": "",
          "type": "string"
        }
      ],
      "stateMutability": "view",
      "type": "function"
    },
    {
      "inputs": [],
      "name": "totalSupply",
      "outputs": [
        {
          "internalType": "uint256",
          "name": "",
          "type": "uint256"
        }
      ],
      "stateMutability": "view",
      "type": "function"
    },
    {
      "inputs": [
        {
          "internalType": "address",
          "name": "to",
          "type": "address"
        },
        {
          "internalType": "uint256",
          "name": "amount",
          "type": "uint256"
        }
      ],
      "name": "transfer",
      "outputs": [
        {
          "internalType": "bool",
          "name": "",
          "type": "bool"
        }
      ],
      "stateMutability": "nonpayable",
      "type": "function"
    },
    {
      "inputs": [
        {
          "internalType": "address",
          "name": "from",
          "type": "address"
        },
        {
          "internalType": "address",
          "name": "to",
          "type": "address"
        },
        {
          "internalType": "uint256",
          "name": "amount",
          "type": "uint256"
        }
      ],
      "name": "transferFrom",
      "outputs": [
        {
          "internalType": "bool",
          "name": "",
          "type": "bool"
        }
      ],
      "stateMutability": "nonpayable",
      "type": "function"
    }
  ],
  "bytecode": "0x60806040523480156200001157600080fd5b506040516200189138038062001891833981810160405281019062000037919062000378565b6040518060400160405280600581526020017f44616f6c650000000000000000000000000000000000000000000000000000008152506040518060400160405280600581526020017f44414f4c450000000000000000000000000000000000000000000000000000008152508160039080519060200190620000bb929190620002b1565b508060049080519060200190620000d4929190620002b1565b505050620000e933836200013960201b60201c565b8060058190555033600660006101000a81548173ffffffffffffffffffffffffffffffffffffffff021916908373ffffffffffffffffffffffffffffffffffffffff16021790555050506200057f565b600073ffffffffffffffffffffffffffffffffffffffff168273ffffffffffffffffffffffffffffffffffffffff161415620001ac576040517f08c379a0000000000000000000000000000000000000000000000000000000008152600401620001a390620003f1565b60405180910390fd5b620001c060008383620002a760201b60201c565b8060026000828254620001d4919062000441565b92505081905550806000808473ffffffffffffffffffffffffffffffffffffffff1673ffffffffffffffffffffffffffffffffffffffff168152602001908152602001600020600082825401925050819055508173ffffffffffffffffffffffffffffffffffffffff16600073ffffffffffffffffffffffffffffffffffffffff167fddf252ad1be2c89b69c2b068fc378daa952ba7f163c4a11628f55a4df523b3ef8360405162000287919062000413565b60405180910390a3620002a360008383620002ac60201b60201c565b5050565b505050565b505050565b828054620002bf90620004a8565b90600052602060002090601f016020900481019282620002e357600085556200032f565b82601f10620002fe57805160ff19168380011785556200032f565b828001600101855582156200032f579182015b828111156200032e57825182559160200191906001019062000311565b5b5090506200033e919062000342565b5090565b5b808211156200035d57600081600090555060010162000343565b5090565b600081519050620003728162000565565b92915050565b600080604083850312156200038c57600080fd5b60006200039c8582860162000361565b9250506020620003af8582860162000361565b9150509250929050565b6000620003c8601f8362000430565b9150620003d5826200053c565b602082019050919050565b620003eb816200049e565b82525050565b600060208201905081810360008301526200040c81620003b9565b9050919050565b60006020820190506200042a6000830184620003e0565b92915050565b600082825260208201905092915050565b60006200044e826200049e565b91506200045b836200049e565b9250827fffffffffffffffffffffffffffffffffffffffffffffffffffffffffffffffff03821115620004935762000492620004de565b5b828201905092915050565b6000819050919050565b60006002820490506001821680620004c157607f821691505b60208210811415620004d857620004d76200050d565b5b50919050565b7f4e487b7100000000000000000000000000000000000000000000000000000000600052601160045260246000fd5b7f4e487b7100000000000000000000000000000000000000000000000000000000600052602260045260246000fd5b7f45524332303a206d696e7420746f20746865207a65726f206164647265737300600082015250565b62000570816200049e565b81146200057c57600080fd5b50565b611302806200058f6000396000f3fe608060405234801561001057600080fd5b50600436106100cf5760003560e01c806340eedabb1161008c578063a457c2d711610066578063a457c2d71461022a578063a9059cbb1461025a578063d5abeb011461028a578063dd62ed3e146102a8576100cf565b806340eedabb146101be57806370a08231146101dc57806395d89b411461020c576100cf565b806306fdde03146100d4578063095ea7b3146100f257806318160ddd1461012257806323b872dd14610140578063313ce56714610170578063395093511461018e575b600080fd5b6100dc6102d8565b6040516100e99190610dc8565b60405180910390f35b61010c60048036038101906101079190610bec565b61036a565b6040516101199190610dad565b60405180910390f35b61012a61038d565b6040516101379190610eca565b60405180910390f35b61015a60048036038101906101559190610b9d565b610397565b6040516101679190610dad565b60405180910390f35b6101786103c6565b6040516101859190610ee5565b60405180910390f35b6101a860048036038101906101a39190610bec565b6103cf565b6040516101b59190610dad565b60405180910390f35b6101c6610406565b6040516101d39190610d92565b60405180910390f35b6101f660048036038101906101f19190610b38565b61042c565b6040516102039190610eca565b60405180910390f35b610214610474565b6040516102219190610dc8565b60405180910390f35b610244600480360381019061023f9190610bec565b610506565b6040516102519190610dad565b60405180910390f35b610274600480360381019061026f9190610bec565b61057d565b6040516102819190610dad565b60405180910390f35b6102926105a0565b60405161029f9190610eca565b60405180910390f35b6102c260048036038101906102bd9190610b61565b6105a6565b6040516102cf9190610eca565b60405180910390f35b6060600380546102e790610ffa565b80601f016020809104026020016040519081016040528092919081815260200182805461031390610ffa565b80156103605780601f1061033557610100808354040283529160200191610360565b820191906000526020600020905b81548152906001019060200180831161034357829003601f168201915b5050505050905090565b60008061037561062d565b9050610382818585610635565b600191505092915050565b6000600254905090565b6000806103a261062d565b90506103af858285610800565b6103ba85858561088c565b60019150509392505050565b60006012905090565b6000806103da61062d565b90506103fb8185856103ec85896105a6565b6103f69190610f1c565b610635565b600191505092915050565b600660009054906101000a900473ffffffffffffffffffffffffffffffffffffffff1681565b60008060008373ffffffffffffffffffffffffffffffffffffffff1673ffffffffffffffffffffffffffffffffffffffff168152602001908152602001600020549050919050565b60606004805461048390610ffa565b80601f01602080910402602001604051908101604052809291908181526020018280546104af90610ffa565b80156104fc5780601f106104d1576101008083540402835291602001916104fc565b820191906000526020600020905b8154815290600101906020018083116104df57829003601f168201915b5050505050905090565b60008061051161062d565b9050600061051f82866105a6565b905083811015610564576040517f08c379a000000000000000000000000000000000000000000000000000000000815260040161055b90610eaa565b60405180910390fd5b6105718286868403610635565b60019250505092915050565b60008061058861062d565b905061059581858561088c565b600191505092915050565b60055481565b6000600160008473ffffffffffffffffffffffffffffffffffffffff1673ffffffffffffffffffffffffffffffffffffffff16815260200190815260200160002060008373ffffffffffffffffffffffffffffffffffffffff1673ffffffffffffffffffffffffffffffffffffffff16815260200190815260200160002054905092915050565b600033905090565b600073ffffffffffffffffffffffffffffffffffffffff168373ffffffffffffffffffffffffffffffffffffffff1614156106a5576040517f08c379a000000000000000000000000000000000000000000000000000000000815260040161069c90610e8a565b60405180910390fd5b600073ffffffffffffffffffffffffffffffffffffffff168273ffffffffffffffffffffffffffffffffffffffff161415610715576040517f08c379a000000000000000000000000000000000000000000000000000000000815260040161070c90610e0a565b60405180910390fd5b80600160008573ffffffffffffffffffffffffffffffffffffffff1673ffffffffffffffffffffffffffffffffffffffff16815260200190815260200160002060008473ffffffffffffffffffffffffffffffffffffffff1673ffffffffffffffffffffffffffffffffffffffff168152602001908152602001600020819055508173ffffffffffffffffffffffffffffffffffffffff168373ffffffffffffffffffffffffffffffffffffffff167f8c5be1e5ebec7d5bd14f71427d1e84f3dd0314c0f7b2291e5b200ac8c7c3b925836040516107f39190610eca565b60405180910390a3505050565b600061080c84846105a6565b90507fffffffffffffffffffffffffffffffffffffffffffffffffffffffffffffffff81146108865781811015610878576040517f08c379a000000000000000000000000000000000000000000000000000000000815260040161086f90610e2a565b60405180910390fd5b6108858484848403610635565b5b50505050565b600073ffffffffffffffffffffffffffffffffffffffff168373ffffffffffffffffffffffffffffffffffffffff1614156108fc576040517f08c379a00000000000000000000000000000000000000000000000000000000081526004016108f390610e6a565b60405180910390fd5b600073ffffffffffffffffffffffffffffffffffffffff168273ffffffffffffffffffffffffffffffffffffffff16141561096c576040517f08c379a000000000000000000000000000000000000000000000000000000000815260040161096390610dea565b60405180910390fd5b610977838383610b04565b60008060008573ffffffffffffffffffffffffffffffffffffffff1673ffffffffffffffffffffffffffffffffffffffff168152602001908152602001600020549050818110156109fd576040517f08c379a00000000000000000000000000000000000000000000000000000000081526004016109f490610e4a565b60405180910390fd5b8181036000808673ffffffffffffffffffffffffffffffffffffffff1673ffffffffffffffffffffffffffffffffffffffff16815260200190815260200160002081905550816000808573ffffffffffffffffffffffffffffffffffffffff1673ffffffffffffffffffffffffffffffffffffffff168152602001908152602001600020600082825401925050819055508273ffffffffffffffffffffffffffffffffffffffff168473ffffffffffffffffffffffffffffffffffffffff167fddf252ad1be2c89b69c2b068fc378daa952ba7f163c4a11628f55a4df523b3ef84604051610aeb9190610eca565b60405180910390a3610afe848484610b09565b50505050565b505050565b505050565b600081359050610b1d8161129e565b92915050565b600081359050610b32816112b5565b92915050565b600060208284031215610b4a57600080fd5b6000610b5884828501610b0e565b91505092915050565b60008060408385031215610b7457600080fd5b6000610b8285828601610b0e565b9250506020610b9385828601610b0e565b9150509250929050565b600080600060608486031215610bb257600080fd5b6000610bc086828701610b0e565b9350506020610bd186828701610b0e565b9250506040610be286828701610b23565b9150509250925092565b60008060408385031215610bff57600080fd5b6000610c0d85828601610b0e565b9250506020610c1e85828601610b23565b9150509250929050565b610c3181610f72565b82525050565b610c4081610f84565b82525050565b6000610c5182610f00565b610c5b8185610f0b565b9350610c6b818560208601610fc7565b610c748161108a565b840191505092915050565b6000610c8c602383610f0b565b9150610c978261109b565b604082019050919050565b6000610caf602283610f0b565b9150610cba826110ea565b604082019050919050565b6000610cd2601d83610f0b565b9150610cdd82611139565b602082019050919050565b6000610cf5602683610f0b565b9150610d0082611162565b604082019050919050565b6000610d18602583610f0b565b9150610d23826111b1565b604082019050919050565b6000610d3b602483610f0b565b9150610d4682611200565b604082019050919050565b6000610d5e602583610f0b565b9150610d698261124f565b604082019050919050565b610d7d81610fb0565b82525050565b610d8c81610fba565b82525050565b6000602082019050610da76000830184610c28565b92915050565b6000602082019050610dc26000830184610c37565b92915050565b60006020820190508181036000830152610de28184610c46565b905092915050565b60006020820190508181036000830152610e0381610c7f565b9050919050565b60006020820190508181036000830152610e2381610ca2565b9050919050565b60006020820190508181036000830152610e4381610cc5565b9050919050565b60006020820190508181036000830152610e6381610ce8565b9050919050565b60006020820190508181036000830152610e8381610d0b565b9050919050565b60006020820190508181036000830152610ea381610d2e565b9050919050565b60006020820190508181036000830152610ec381610d51565b9050919050565b6000602082019050610edf6000830184610d74565b92915050565b6000602082019050610efa6000830184610d83565b92915050565b600081519050919050565b600082825260208201905092915050565b6000610f2782610fb0565b9150610f3283610fb0565b9250827fffffffffffffffffffffffffffffffffffffffffffffffffffffffffffffffff03821115610f6757610f6661102c565b5b828201905092915050565b6000610f7d82610f90565b9050919050565b60008115159050919050565b600073ffffffffffffffffffffffffffffffffffffffff82169050919050565b6000819050919050565b600060ff82169050919050565b60005b83811015610fe5578082015181840152602081019050610fca565b83811115610ff4576000848401525b50505050565b6000600282049050600182168061101257607f821691505b602082108114156110265761102561105b565b5b50919050565b7f4e487b7100000000000000000000000000000000000000000000000000000000600052601160045260246000fd5b7f4e487b7100000000000000000000000000000000000000000000000000000000600052602260045260246000fd5b6000601f19601f8301169050919050565b7f45524332303a207472616e7366657220746f20746865207a65726f206164647260008201527f6573730000000000000000000000000000000000000000000000000000000000602082015250565b7f45524332303a20617070726f766520746f20746865207a65726f20616464726560008201527f7373000000000000000000000000000000000000000000000000000000000000602082015250565b7f45524332303a20696e73756666696369656e7420616c6c6f77616e6365000000600082015250565b7f45524332303a207472616e7366657220616d6f756e742065786365656473206260008201527f616c616e63650000000000000000000000000000000000000000000000000000602082015250565b7f45524332303a207472616e736665722066726f6d20746865207a65726f20616460008201527f6472657373000000000000000000000000000000000000000000000000000000602082015250565b7f45524332303a20617070726f76652066726f6d20746865207a65726f2061646460008201527f7265737300000000000000000000000000000000000000000000000000000000602082015250565b7f45524332303a2064656372656173656420616c6c6f77616e63652062656c6f7760008201527f207a65726f000000000000000000000000000000000000000000000000000000602082015250565b6112a781610f72565b81146112b257600080fd5b50565b6112be81610fb0565b81146112c957600080fd5b5056fea264697066735822122092c2fdf70bdfed2db254b3ac3152ffb87be1cd1a61010daaed5890b6afc3737664736f6c63430008040033",
  "linkReferences": {},
  "deployedLinkReferences": {}
}