{
  "_format": "hh-sol-artifact-1",
  "contractName": "AcceptedPrice",
  "sourceName": "contracts/AcceptedPrice.sol",
  "abi": [
    {
      "inputs": [],
      "name": "acceptedPrice",
      "outputs": [
        {
          "internalType": "uint256",
          "name": "",
          "type": "uint256"
        }
      ],
      "stateMutability": "view",
      "type": "function"
    },
    {
      "inputs": [
        {
          "internalType": "uint256",
          "name": "",
          "type": "uint256"
        }
      ],
      "name": "priceByDate",
      "outputs": [
        {
          "internalType": "uint256",
          "name": "",
          "type": "uint256"
        }
      ],
      "stateMutability": "view",
      "type": "function"
    }
  ],
  "bytecode": "0x608060405234801561001057600080fd5b50610166806100206000396000f3fe608060405234801561001057600080fd5b50600436106100365760003560e01c806308f267fa1461003b578063c16dca3114610059575b600080fd5b610043610089565b60405161005091906100f4565b60405180910390f35b610073600480360381019061006e91906100bc565b61008f565b60405161008091906100f4565b60405180910390f35b60005481565b60016020528060005260406000206000915090505481565b6000813590506100b681610119565b92915050565b6000602082840312156100ce57600080fd5b60006100dc848285016100a7565b91505092915050565b6100ee8161010f565b82525050565b600060208201905061010960008301846100e5565b92915050565b6000819050919050565b6101228161010f565b811461012d57600080fd5b5056fea2646970667358221220ee802f8d8488591eaa629ce3cc219633368c80ea40446a842a96901e78ba8cb164736f6c63430008040033",
  "linkReferences": {},
  "deployedLinkReferences": {}
}