{
  "_format": "hh-sol-artifact-1",
  "contractName": "Leader",
  "sourceName": "contracts/DaoSystem.sol",
  "abi": [
    {
      "inputs": [
        {
          "internalType": "address",
          "name": "_whiteList",
          "type": "address"
        }
      ],
      "stateMutability": "nonpayable",
      "type": "constructor"
    },
    {
      "anonymous": false,
      "inputs": [
        {
          "indexed": true,
          "internalType": "address",
          "name": "owner",
          "type": "address"
        },
        {
          "indexed": true,
          "internalType": "address",
          "name": "spender",
          "type": "address"
        },
        {
          "indexed": false,
          "internalType": "uint256",
          "name": "value",
          "type": "uint256"
        }
      ],
      "name": "Approval",
      "type": "event"
    },
    {
      "anonymous": false,
      "inputs": [
        {
          "indexed": false,
          "internalType": "string",
          "name": "func",
          "type": "string"
        }
      ],
      "name": "Log",
      "type": "event"
    },
    {
      "anonymous": false,
      "inputs": [
        {
          "indexed": true,
          "internalType": "address",
          "name": "from",
          "type": "address"
        },
        {
          "indexed": true,
          "internalType": "address",
          "name": "to",
          "type": "address"
        },
        {
          "indexed": false,
          "internalType": "uint256",
          "name": "value",
          "type": "uint256"
        }
      ],
      "name": "Transfer",
      "type": "event"
    },
    {
      "stateMutability": "nonpayable",
      "type": "fallback"
    },
    {
      "inputs": [
        {
          "internalType": "address",
          "name": "_memberAddress",
          "type": "address"
        },
        {
          "internalType": "uint256",
          "name": "_grantAmount",
          "type": "uint256"
        },
        {
          "internalType": "address",
          "name": "_addedBy",
          "type": "address"
        },
        {
          "internalType": "address",
          "name": "_subDAO",
          "type": "address"
        }
      ],
      "name": "addToAllMembers",
      "outputs": [],
      "stateMutability": "nonpayable",
      "type": "function"
    },
    {
      "inputs": [
        {
          "internalType": "address",
          "name": "owner",
          "type": "address"
        },
        {
          "internalType": "address",
          "name": "spender",
          "type": "address"
        }
      ],
      "name": "allowance",
      "outputs": [
        {
          "internalType": "uint256",
          "name": "",
          "type": "uint256"
        }
      ],
      "stateMutability": "view",
      "type": "function"
    },
    {
      "inputs": [
        {
          "internalType": "address",
          "name": "spender",
          "type": "address"
        },
        {
          "internalType": "uint256",
          "name": "amount",
          "type": "uint256"
        }
      ],
      "name": "approve",
      "outputs": [
        {
          "internalType": "bool",
          "name": "",
          "type": "bool"
        }
      ],
      "stateMutability": "nonpayable",
      "type": "function"
    },
    {
      "inputs": [
        {
          "internalType": "address",
          "name": "account",
          "type": "address"
        }
      ],
      "name": "balanceOf",
      "outputs": [
        {
          "internalType": "uint256",
          "name": "",
          "type": "uint256"
        }
      ],
      "stateMutability": "view",
      "type": "function"
    },
    {
      "inputs": [
        {
          "internalType": "address",
          "name": "_member1",
          "type": "address"
        },
        {
          "internalType": "uint256",
          "name": "_grantAmount",
          "type": "uint256"
        },
        {
          "internalType": "address",
          "name": "_addedBy",
          "type": "address"
        }
      ],
      "name": "createSubDAO",
      "outputs": [],
      "stateMutability": "nonpayable",
      "type": "function"
    },
    {
      "inputs": [],
      "name": "decimals",
      "outputs": [
        {
          "internalType": "uint8",
          "name": "",
          "type": "uint8"
        }
      ],
      "stateMutability": "view",
      "type": "function"
    },
    {
      "inputs": [
        {
          "internalType": "address",
          "name": "spender",
          "type": "address"
        },
        {
          "internalType": "uint256",
          "name": "subtractedValue",
          "type": "uint256"
        }
      ],
      "name": "decreaseAllowance",
      "outputs": [
        {
          "internalType": "bool",
          "name": "",
          "type": "bool"
        }
      ],
      "stateMutability": "nonpayable",
      "type": "function"
    },
    {
      "inputs": [
        {
          "internalType": "address",
          "name": "_member1",
          "type": "address"
        },
        {
          "internalType": "address",
          "name": "_subDAO",
          "type": "address"
        },
        {
          "internalType": "uint256",
          "name": "_grantAmount",
          "type": "uint256"
        },
        {
          "internalType": "address",
          "name": "_addedBy",
          "type": "address"
        }
      ],
      "name": "finishCreation",
      "outputs": [],
      "stateMutability": "nonpayable",
      "type": "function"
    },
    {
      "inputs": [
        {
          "internalType": "address",
          "name": "_member",
          "type": "address"
        }
      ],
      "name": "getAddedBy",
      "outputs": [
        {
          "internalType": "address",
          "name": "",
          "type": "address"
        }
      ],
      "stateMutability": "view",
      "type": "function"
    },
    {
      "inputs": [
        {
          "internalType": "address",
          "name": "_member",
          "type": "address"
        }
      ],
      "name": "grantSize",
      "outputs": [
        {
          "internalType": "uint256",
          "name": "",
          "type": "uint256"
        }
      ],
      "stateMutability": "view",
      "type": "function"
    },
    {
      "inputs": [
        {
          "internalType": "address",
          "name": "spender",
          "type": "address"
        },
        {
          "internalType": "uint256",
          "name": "addedValue",
          "type": "uint256"
        }
      ],
      "name": "increaseAllowance",
      "outputs": [
        {
          "internalType": "bool",
          "name": "",
          "type": "bool"
        }
      ],
      "stateMutability": "nonpayable",
      "type": "function"
    },
    {
      "inputs": [
        {
          "internalType": "address",
          "name": "_subDAO",
          "type": "address"
        }
      ],
      "name": "isSubDAO",
      "outputs": [
        {
          "internalType": "bool",
          "name": "",
          "type": "bool"
        }
      ],
      "stateMutability": "view",
      "type": "function"
    },
    {
      "inputs": [],
      "name": "leader",
      "outputs": [
        {
          "internalType": "address",
          "name": "",
          "type": "address"
        }
      ],
      "stateMutability": "view",
      "type": "function"
    },
    {
      "inputs": [],
      "name": "maxSupply",
      "outputs": [
        {
          "internalType": "uint256",
          "name": "",
          "type": "uint256"
        }
      ],
      "stateMutability": "view",
      "type": "function"
    },
    {
      "inputs": [],
      "name": "name",
      "outputs": [
        {
          "internalType": "string",
          "name": "",
          "type": "string"
        }
      ],
      "stateMutability": "view",
      "type": "function"
    },
    {
      "inputs": [],
      "name": "paySubs",
      "outputs": [],
      "stateMutability": "nonpayable",
      "type": "function"
    },
    {
      "inputs": [],
      "name": "performance",
      "outputs": [
        {
          "internalType": "address",
          "name": "",
          "type": "address"
        }
      ],
      "stateMutability": "view",
      "type": "function"
    },
    {
      "inputs": [],
      "name": "subFactoryAddress",
      "outputs": [
        {
          "internalType": "address",
          "name": "",
          "type": "address"
        }
      ],
      "stateMutability": "view",
      "type": "function"
    },
    {
      "inputs": [
        {
          "internalType": "address",
          "name": "_member",
          "type": "address"
        }
      ],
      "name": "subOfMember",
      "outputs": [
        {
          "internalType": "address",
          "name": "",
          "type": "address"
        }
      ],
      "stateMutability": "view",
      "type": "function"
    },
    {
      "inputs": [],
      "name": "symbol",
      "outputs": [
        {
          "internalType": "string",
          "name": "",
          "type": "string"
        }
      ],
      "stateMutability": "view",
      "type": "function"
    },
    {
      "inputs": [],
      "name": "totalSupply",
      "outputs": [
        {
          "internalType": "uint256",
          "name": "",
          "type": "uint256"
        }
      ],
      "stateMutability": "view",
      "type": "function"
    },
    {
      "inputs": [
        {
          "internalType": "address",
          "name": "_to",
          "type": "address"
        },
        {
          "internalType": "uint256",
          "name": "_amount",
          "type": "uint256"
        }
      ],
      "name": "transfer",
      "outputs": [
        {
          "internalType": "bool",
          "name": "",
          "type": "bool"
        }
      ],
      "stateMutability": "nonpayable",
      "type": "function"
    },
    {
      "inputs": [
        {
          "internalType": "address",
          "name": "from",
          "type": "address"
        },
        {
          "internalType": "address",
          "name": "to",
          "type": "address"
        },
        {
          "internalType": "uint256",
          "name": "amount",
          "type": "uint256"
        }
      ],
      "name": "transferFrom",
      "outputs": [
        {
          "internalType": "bool",
          "name": "",
          "type": "bool"
        }
      ],
      "stateMutability": "nonpayable",
      "type": "function"
    },
    {
      "inputs": [],
      "name": "votingAddress",
      "outputs": [
        {
          "internalType": "address",
          "name": "",
          "type": "address"
        }
      ],
      "stateMutability": "view",
      "type": "function"
    }
  ],
  "bytecode": "0x60806040523480156200001157600080fd5b506040516200935e3803806200935e83398181016040528101906200003791906200057b565b6b1027e72f1f128130880000006b204fce5e3e250261100000006040518060400160405280600581526020017f44616f6c650000000000000000000000000000000000000000000000000000008152506040518060400160405280600581526020017f44414f4c450000000000000000000000000000000000000000000000000000008152508160039080519060200190620000d59291906200048a565b508060049080519060200190620000ee9291906200048a565b5050506200010333836200031260201b60201c565b8060058190555033600660006101000a81548173ffffffffffffffffffffffffffffffffffffffff021916908373ffffffffffffffffffffffffffffffffffffffff16021790555050506000306040516200015e906200051b565b6200016a9190620005f0565b604051809103906000f08015801562000187573d6000803e3d6000fd5b50905080600860006101000a81548173ffffffffffffffffffffffffffffffffffffffff021916908373ffffffffffffffffffffffffffffffffffffffff16021790555060003083604051620001dd9062000529565b620001ea9291906200060d565b604051809103906000f08015801562000207573d6000803e3d6000fd5b50905080600760006101000a81548173ffffffffffffffffffffffffffffffffffffffff021916908373ffffffffffffffffffffffffffffffffffffffff1602179055506000306040516200025c9062000537565b620002689190620005f0565b604051809103906000f08015801562000285573d6000803e3d6000fd5b50905080600960006101000a81548173ffffffffffffffffffffffffffffffffffffffff021916908373ffffffffffffffffffffffffffffffffffffffff16021790555062000308600760009054906101000a900473ffffffffffffffffffffffffffffffffffffffff166a5d0ecd38610e6d408000006200031260201b60201c565b50505050620007fc565b600073ffffffffffffffffffffffffffffffffffffffff168273ffffffffffffffffffffffffffffffffffffffff16141562000385576040517f08c379a00000000000000000000000000000000000000000000000000000000081526004016200037c906200063a565b60405180910390fd5b62000399600083836200048060201b60201c565b8060026000828254620003ad91906200068a565b92505081905550806000808473ffffffffffffffffffffffffffffffffffffffff1673ffffffffffffffffffffffffffffffffffffffff168152602001908152602001600020600082825401925050819055508173ffffffffffffffffffffffffffffffffffffffff16600073ffffffffffffffffffffffffffffffffffffffff167fddf252ad1be2c89b69c2b068fc378daa952ba7f163c4a11628f55a4df523b3ef836040516200046091906200065c565b60405180910390a36200047c600083836200048560201b60201c565b5050565b505050565b505050565b828054620004989062000725565b90600052602060002090601f016020900481019282620004bc576000855562000508565b82601f10620004d757805160ff191683800117855562000508565b8280016001018555821562000508579182015b8281111562000507578251825591602001919060010190620004ea565b5b50905062000517919062000545565b5090565b612759806200325f83390190565b612ded80620059b883390190565b610bb980620087a583390190565b5b808211156200056057600081600090555060010162000546565b5090565b6000815190506200057581620007e2565b92915050565b6000602082840312156200058e57600080fd5b60006200059e8482850162000564565b91505092915050565b620005b281620006e7565b82525050565b6000620005c7601f8362000679565b9150620005d482620007b9565b602082019050919050565b620005ea816200071b565b82525050565b6000602082019050620006076000830184620005a7565b92915050565b6000604082019050620006246000830185620005a7565b620006336020830184620005a7565b9392505050565b600060208201905081810360008301526200065581620005b8565b9050919050565b6000602082019050620006736000830184620005df565b92915050565b600082825260208201905092915050565b600062000697826200071b565b9150620006a4836200071b565b9250827fffffffffffffffffffffffffffffffffffffffffffffffffffffffffffffffff03821115620006dc57620006db6200075b565b5b828201905092915050565b6000620006f482620006fb565b9050919050565b600073ffffffffffffffffffffffffffffffffffffffff82169050919050565b6000819050919050565b600060028204905060018216806200073e57607f821691505b602082108114156200075557620007546200078a565b5b50919050565b7f4e487b7100000000000000000000000000000000000000000000000000000000600052601160045260246000fd5b7f4e487b7100000000000000000000000000000000000000000000000000000000600052602260045260246000fd5b7f45524332303a206d696e7420746f20746865207a65726f206164647265737300600082015250565b620007ed81620006e7565b8114620007f957600080fd5b50565b612a53806200080c6000396000f3fe608060405234801561001057600080fd5b506004361061015c5760003560e01c806396c8f917116100c3578063c0db77a31161007c578063c0db77a314610428578063c3a3aae414610458578063d2fa717014610488578063d5abeb01146104a6578063dd62ed3e146104c4578063e66336ef146104f45761015d565b806396c8f91714610342578063a31b67561461035e578063a457c2d71461037a578063a5f9392d146103aa578063a9059cbb146103c8578063b5850cfb146103f85761015d565b80633950935111610115578063395093511461026c57806339d284d61461029c57806340eedabb146102cc57806343f9932e146102ea57806370a08231146102f457806395d89b41146103245761015d565b806306fdde0314610194578063095ea7b3146101b257806315d82454146101e257806318160ddd1461020057806323b872dd1461021e578063313ce5671461024e5761015d565b5b7fcf34ef537ac33ee1ac626ca1587a0a7e8e51561e5514f8cb36afa1c5102b3bab60405161018a906122bd565b60405180910390a1005b61019c610510565b6040516101a991906121bb565b60405180910390f35b6101cc60048036038101906101c79190611dfb565b6105a2565b6040516101d991906121a0565b60405180910390f35b6101ea6105c5565b6040516101f7919061214e565b60405180910390f35b6102086105eb565b604051610215919061237d565b60405180910390f35b61023860048036038101906102339190611d49565b6105f5565b60405161024591906121a0565b60405180910390f35b610256610624565b6040516102639190612406565b60405180910390f35b61028660048036038101906102819190611dfb565b61062d565b60405161029391906121a0565b60405180910390f35b6102b660048036038101906102b19190611ce4565b610664565b6040516102c3919061214e565b60405180910390f35b6102d46106d0565b6040516102e1919061214e565b60405180910390f35b6102f26106f6565b005b61030e60048036038101906103099190611ce4565b610933565b60405161031b919061237d565b60405180910390f35b61032c61097b565b60405161033991906121bb565b60405180910390f35b61035c60048036038101906103579190611e37565b610a0d565b005b61037860048036038101906103739190611e86565b610b39565b005b610394600480360381019061038f9190611dfb565b610dc3565b6040516103a191906121a0565b60405180910390f35b6103b2610e3a565b6040516103bf919061214e565b60405180910390f35b6103e260048036038101906103dd9190611dfb565b610e60565b6040516103ef91906121a0565b60405180910390f35b610412600480360381019061040d9190611ce4565b611158565b60405161041f919061214e565b60405180910390f35b610442600480360381019061043d9190611ce4565b6111c4565b60405161044f919061237d565b60405180910390f35b610472600480360381019061046d9190611ce4565b611210565b60405161047f91906121a0565b60405180910390f35b610490611266565b60405161049d919061214e565b60405180910390f35b6104ae61128c565b6040516104bb919061237d565b60405180910390f35b6104de60048036038101906104d99190611d0d565b611292565b6040516104eb919061237d565b60405180910390f35b61050e60048036038101906105099190611d98565b611319565b005b60606003805461051f906125da565b80601f016020809104026020016040519081016040528092919081815260200182805461054b906125da565b80156105985780601f1061056d57610100808354040283529160200191610598565b820191906000526020600020905b81548152906001019060200180831161057b57829003601f168201915b5050505050905090565b6000806105ad61149f565b90506105ba8185856114a7565b600191505092915050565b600760009054906101000a900473ffffffffffffffffffffffffffffffffffffffff1681565b6000600254905090565b60008061060061149f565b905061060d858285611672565b6106188585856116fe565b60019150509392505050565b60006012905090565b60008061063861149f565b905061065981858561064a8589611292565b610654919061243d565b6114a7565b600191505092915050565b6000600c60008373ffffffffffffffffffffffffffffffffffffffff1673ffffffffffffffffffffffffffffffffffffffff16815260200190815260200160002060020160009054906101000a900473ffffffffffffffffffffffffffffffffffffffff169050919050565b600660009054906101000a900473ffffffffffffffffffffffffffffffffffffffff1681565b600b60003373ffffffffffffffffffffffffffffffffffffffff1673ffffffffffffffffffffffffffffffffffffffff16815260200190815260200160002060009054906101000a900460ff16610782576040517f08c379a00000000000000000000000000000000000000000000000000000000081526004016107799061227d565b60405180910390fd5b60006224ea00426107939190612493565b90506000600a60008381526020019081526020016000205414156107f65760c860096107bd6105eb565b6005546107ca919061251e565b6107d491906124c4565b6107de9190612493565b600a6000838152602001908152602001600020819055505b6000600960009054906101000a900473ffffffffffffffffffffffffffffffffffffffff1673ffffffffffffffffffffffffffffffffffffffff16630e376dea600a600085815260200190815260200160002054336040518363ffffffff1660e01b8152600401610868929190612398565b60206040518083038186803b15801561088057600080fd5b505afa158015610894573d6000803e3d6000fd5b505050506040513d601f19601f820116820180604052508101906108b89190611ee9565b90506108c43382611976565b3373ffffffffffffffffffffffffffffffffffffffff1663d91921ed826040518263ffffffff1660e01b81526004016108fd919061237d565b600060405180830381600087803b15801561091757600080fd5b505af115801561092b573d6000803e3d6000fd5b505050505050565b60008060008373ffffffffffffffffffffffffffffffffffffffff1673ffffffffffffffffffffffffffffffffffffffff168152602001908152602001600020549050919050565b60606004805461098a906125da565b80601f01602080910402602001604051908101604052809291908181526020018280546109b6906125da565b8015610a035780601f106109d857610100808354040283529160200191610a03565b820191906000526020600020905b8154815290600101906020018083116109e657829003601f168201915b5050505050905090565b600b60003373ffffffffffffffffffffffffffffffffffffffff1673ffffffffffffffffffffffffffffffffffffffff16815260200190815260200160002060009054906101000a900460ff16610a99576040517f08c379a0000000000000000000000000000000000000000000000000000000008152600401610a909061227d565b60405180910390fd5b610aa33383611acd565b600760009054906101000a900473ffffffffffffffffffffffffffffffffffffffff1673ffffffffffffffffffffffffffffffffffffffff166396c8f9178484846040518463ffffffff1660e01b8152600401610b0293929190612169565b600060405180830381600087803b158015610b1c57600080fd5b505af1158015610b30573d6000803e3d6000fd5b50505050505050565b600b60003373ffffffffffffffffffffffffffffffffffffffff1673ffffffffffffffffffffffffffffffffffffffff16815260200190815260200160002060009054906101000a900460ff1680610bde5750600760009054906101000a900473ffffffffffffffffffffffffffffffffffffffff1673ffffffffffffffffffffffffffffffffffffffff163373ffffffffffffffffffffffffffffffffffffffff16145b610be757600080fd5b82600c60008673ffffffffffffffffffffffffffffffffffffffff1673ffffffffffffffffffffffffffffffffffffffff1681526020019081526020016000206000018190555081600c60008673ffffffffffffffffffffffffffffffffffffffff1673ffffffffffffffffffffffffffffffffffffffff16815260200190815260200160002060010160006101000a81548173ffffffffffffffffffffffffffffffffffffffff021916908373ffffffffffffffffffffffffffffffffffffffff16021790555080600c60008673ffffffffffffffffffffffffffffffffffffffff1673ffffffffffffffffffffffffffffffffffffffff16815260200190815260200160002060020160006101000a81548173ffffffffffffffffffffffffffffffffffffffff021916908373ffffffffffffffffffffffffffffffffffffffff160217905550600960009054906101000a900473ffffffffffffffffffffffffffffffffffffffff1673ffffffffffffffffffffffffffffffffffffffff16630b1a8f26846040518263ffffffff1660e01b8152600401610d8b919061237d565b600060405180830381600087803b158015610da557600080fd5b505af1158015610db9573d6000803e3d6000fd5b5050505050505050565b600080610dce61149f565b90506000610ddc8286611292565b905083811015610e21576040517f08c379a0000000000000000000000000000000000000000000000000000000008152600401610e189061233d565b60405180910390fd5b610e2e82868684036114a7565b60019250505092915050565b600960009054906101000a900473ffffffffffffffffffffffffffffffffffffffff1681565b6000600b60008473ffffffffffffffffffffffffffffffffffffffff1673ffffffffffffffffffffffffffffffffffffffff16815260200190815260200160002060009054906101000a900460ff1615610f20578273ffffffffffffffffffffffffffffffffffffffff1663d91921ed836040518263ffffffff1660e01b8152600401610eed919061237d565b600060405180830381600087803b158015610f0757600080fd5b505af1158015610f1b573d6000803e3d6000fd5b505050505b6000600c60008573ffffffffffffffffffffffffffffffffffffffff1673ffffffffffffffffffffffffffffffffffffffff16815260200190815260200160002060000154111561114257610f8e33846064606386610f7f91906124c4565b610f899190612493565b6116fe565b610fa433606484610f9f9190612493565b611acd565b600960009054906101000a900473ffffffffffffffffffffffffffffffffffffffff1673ffffffffffffffffffffffffffffffffffffffff1663978cc89983600c60008773ffffffffffffffffffffffffffffffffffffffff1673ffffffffffffffffffffffffffffffffffffffff16815260200190815260200160002060010160009054906101000a900473ffffffffffffffffffffffffffffffffffffffff16600c60008873ffffffffffffffffffffffffffffffffffffffff1673ffffffffffffffffffffffffffffffffffffffff16815260200190815260200160002060020160009054906101000a900473ffffffffffffffffffffffffffffffffffffffff16600c60008973ffffffffffffffffffffffffffffffffffffffff1673ffffffffffffffffffffffffffffffffffffffff168152602001908152602001600020600001546040518563ffffffff1660e01b815260040161110b94939291906123c1565b600060405180830381600087803b15801561112557600080fd5b505af1158015611139573d6000803e3d6000fd5b5050505061114e565b61114d3384846116fe565b5b6001905092915050565b6000600c60008373ffffffffffffffffffffffffffffffffffffffff1673ffffffffffffffffffffffffffffffffffffffff16815260200190815260200160002060010160009054906101000a900473ffffffffffffffffffffffffffffffffffffffff169050919050565b6000600c60008373ffffffffffffffffffffffffffffffffffffffff1673ffffffffffffffffffffffffffffffffffffffff168152602001908152602001600020600001549050919050565b6000600b60008373ffffffffffffffffffffffffffffffffffffffff1673ffffffffffffffffffffffffffffffffffffffff16815260200190815260200160002060009054906101000a900460ff169050919050565b600860009054906101000a900473ffffffffffffffffffffffffffffffffffffffff1681565b60055481565b6000600160008473ffffffffffffffffffffffffffffffffffffffff1673ffffffffffffffffffffffffffffffffffffffff16815260200190815260200160002060008373ffffffffffffffffffffffffffffffffffffffff1673ffffffffffffffffffffffffffffffffffffffff16815260200190815260200160002054905092915050565b600760009054906101000a900473ffffffffffffffffffffffffffffffffffffffff1673ffffffffffffffffffffffffffffffffffffffff163373ffffffffffffffffffffffffffffffffffffffff16146113a9576040517f08c379a00000000000000000000000000000000000000000000000000000000081526004016113a0906122fd565b60405180910390fd5b6001600b60008573ffffffffffffffffffffffffffffffffffffffff1673ffffffffffffffffffffffffffffffffffffffff16815260200190815260200160002060006101000a81548160ff02191690831515021790555061140b8383611976565b600960009054906101000a900473ffffffffffffffffffffffffffffffffffffffff1673ffffffffffffffffffffffffffffffffffffffff16632d2ab40b6040518163ffffffff1660e01b8152600401600060405180830381600087803b15801561147557600080fd5b505af1158015611489573d6000803e3d6000fd5b5050505061149984838386610b39565b50505050565b600033905090565b600073ffffffffffffffffffffffffffffffffffffffff168373ffffffffffffffffffffffffffffffffffffffff161415611517576040517f08c379a000000000000000000000000000000000000000000000000000000000815260040161150e9061231d565b60405180910390fd5b600073ffffffffffffffffffffffffffffffffffffffff168273ffffffffffffffffffffffffffffffffffffffff161415611587576040517f08c379a000000000000000000000000000000000000000000000000000000000815260040161157e9061221d565b60405180910390fd5b80600160008573ffffffffffffffffffffffffffffffffffffffff1673ffffffffffffffffffffffffffffffffffffffff16815260200190815260200160002060008473ffffffffffffffffffffffffffffffffffffffff1673ffffffffffffffffffffffffffffffffffffffff168152602001908152602001600020819055508173ffffffffffffffffffffffffffffffffffffffff168373ffffffffffffffffffffffffffffffffffffffff167f8c5be1e5ebec7d5bd14f71427d1e84f3dd0314c0f7b2291e5b200ac8c7c3b92583604051611665919061237d565b60405180910390a3505050565b600061167e8484611292565b90507fffffffffffffffffffffffffffffffffffffffffffffffffffffffffffffffff81146116f857818110156116ea576040517f08c379a00000000000000000000000000000000000000000000000000000000081526004016116e19061223d565b60405180910390fd5b6116f784848484036114a7565b5b50505050565b600073ffffffffffffffffffffffffffffffffffffffff168373ffffffffffffffffffffffffffffffffffffffff16141561176e576040517f08c379a0000000000000000000000000000000000000000000000000000000008152600401611765906122dd565b60405180910390fd5b600073ffffffffffffffffffffffffffffffffffffffff168273ffffffffffffffffffffffffffffffffffffffff1614156117de576040517f08c379a00000000000000000000000000000000000000000000000000000000081526004016117d5906121dd565b60405180910390fd5b6117e9838383611c9b565b60008060008573ffffffffffffffffffffffffffffffffffffffff1673ffffffffffffffffffffffffffffffffffffffff1681526020019081526020016000205490508181101561186f576040517f08c379a00000000000000000000000000000000000000000000000000000000081526004016118669061225d565b60405180910390fd5b8181036000808673ffffffffffffffffffffffffffffffffffffffff1673ffffffffffffffffffffffffffffffffffffffff16815260200190815260200160002081905550816000808573ffffffffffffffffffffffffffffffffffffffff1673ffffffffffffffffffffffffffffffffffffffff168152602001908152602001600020600082825401925050819055508273ffffffffffffffffffffffffffffffffffffffff168473ffffffffffffffffffffffffffffffffffffffff167fddf252ad1be2c89b69c2b068fc378daa952ba7f163c4a11628f55a4df523b3ef8460405161195d919061237d565b60405180910390a3611970848484611ca0565b50505050565b600073ffffffffffffffffffffffffffffffffffffffff168273ffffffffffffffffffffffffffffffffffffffff1614156119e6576040517f08c379a00000000000000000000000000000000000000000000000000000000081526004016119dd9061235d565b60405180910390fd5b6119f260008383611c9b565b8060026000828254611a04919061243d565b92505081905550806000808473ffffffffffffffffffffffffffffffffffffffff1673ffffffffffffffffffffffffffffffffffffffff168152602001908152602001600020600082825401925050819055508173ffffffffffffffffffffffffffffffffffffffff16600073ffffffffffffffffffffffffffffffffffffffff167fddf252ad1be2c89b69c2b068fc378daa952ba7f163c4a11628f55a4df523b3ef83604051611ab5919061237d565b60405180910390a3611ac960008383611ca0565b5050565b600073ffffffffffffffffffffffffffffffffffffffff168273ffffffffffffffffffffffffffffffffffffffff161415611b3d576040517f08c379a0000000000000000000000000000000000000000000000000000000008152600401611b349061229d565b60405180910390fd5b611b4982600083611c9b565b60008060008473ffffffffffffffffffffffffffffffffffffffff1673ffffffffffffffffffffffffffffffffffffffff16815260200190815260200160002054905081811015611bcf576040517f08c379a0000000000000000000000000000000000000000000000000000000008152600401611bc6906121fd565b60405180910390fd5b8181036000808573ffffffffffffffffffffffffffffffffffffffff1673ffffffffffffffffffffffffffffffffffffffff1681526020019081526020016000208190555081600260008282540392505081905550600073ffffffffffffffffffffffffffffffffffffffff168373ffffffffffffffffffffffffffffffffffffffff167fddf252ad1be2c89b69c2b068fc378daa952ba7f163c4a11628f55a4df523b3ef84604051611c82919061237d565b60405180910390a3611c9683600084611ca0565b505050565b505050565b505050565b600081359050611cb4816129ef565b92915050565b600081359050611cc981612a06565b92915050565b600081519050611cde81612a06565b92915050565b600060208284031215611cf657600080fd5b6000611d0484828501611ca5565b91505092915050565b60008060408385031215611d2057600080fd5b6000611d2e85828601611ca5565b9250506020611d3f85828601611ca5565b9150509250929050565b600080600060608486031215611d5e57600080fd5b6000611d6c86828701611ca5565b9350506020611d7d86828701611ca5565b9250506040611d8e86828701611cba565b9150509250925092565b60008060008060808587031215611dae57600080fd5b6000611dbc87828801611ca5565b9450506020611dcd87828801611ca5565b9350506040611dde87828801611cba565b9250506060611def87828801611ca5565b91505092959194509250565b60008060408385031215611e0e57600080fd5b6000611e1c85828601611ca5565b9250506020611e2d85828601611cba565b9150509250929050565b600080600060608486031215611e4c57600080fd5b6000611e5a86828701611ca5565b9350506020611e6b86828701611cba565b9250506040611e7c86828701611ca5565b9150509250925092565b60008060008060808587031215611e9c57600080fd5b6000611eaa87828801611ca5565b9450506020611ebb87828801611cba565b9350506040611ecc87828801611ca5565b9250506060611edd87828801611ca5565b91505092959194509250565b600060208284031215611efb57600080fd5b6000611f0984828501611ccf565b91505092915050565b611f1b81612552565b82525050565b611f2a81612564565b82525050565b6000611f3b82612421565b611f45818561242c565b9350611f558185602086016125a7565b611f5e81612699565b840191505092915050565b6000611f7660238361242c565b9150611f81826126aa565b604082019050919050565b6000611f9960228361242c565b9150611fa4826126f9565b604082019050919050565b6000611fbc60228361242c565b9150611fc782612748565b604082019050919050565b6000611fdf601d8361242c565b9150611fea82612797565b602082019050919050565b600061200260268361242c565b915061200d826127c0565b604082019050919050565b600061202560078361242c565b91506120308261280f565b602082019050919050565b600061204860218361242c565b915061205382612838565b604082019050919050565b600061206b60088361242c565b915061207682612887565b602082019050919050565b600061208e60258361242c565b9150612099826128b0565b604082019050919050565b60006120b1600b8361242c565b91506120bc826128ff565b602082019050919050565b60006120d460248361242c565b91506120df82612928565b604082019050919050565b60006120f760258361242c565b915061210282612977565b604082019050919050565b600061211a601f8361242c565b9150612125826129c6565b602082019050919050565b61213981612590565b82525050565b6121488161259a565b82525050565b60006020820190506121636000830184611f12565b92915050565b600060608201905061217e6000830186611f12565b61218b6020830185612130565b6121986040830184611f12565b949350505050565b60006020820190506121b56000830184611f21565b92915050565b600060208201905081810360008301526121d58184611f30565b905092915050565b600060208201905081810360008301526121f681611f69565b9050919050565b6000602082019050818103600083015261221681611f8c565b9050919050565b6000602082019050818103600083015261223681611faf565b9050919050565b6000602082019050818103600083015261225681611fd2565b9050919050565b6000602082019050818103600083015261227681611ff5565b9050919050565b6000602082019050818103600083015261229681612018565b9050919050565b600060208201905081810360008301526122b68161203b565b9050919050565b600060208201905081810360008301526122d68161205e565b9050919050565b600060208201905081810360008301526122f681612081565b9050919050565b60006020820190508181036000830152612316816120a4565b9050919050565b60006020820190508181036000830152612336816120c7565b9050919050565b60006020820190508181036000830152612356816120ea565b9050919050565b600060208201905081810360008301526123768161210d565b9050919050565b60006020820190506123926000830184612130565b92915050565b60006040820190506123ad6000830185612130565b6123ba6020830184611f12565b9392505050565b60006080820190506123d66000830187612130565b6123e36020830186611f12565b6123f06040830185611f12565b6123fd6060830184612130565b95945050505050565b600060208201905061241b600083018461213f565b92915050565b600081519050919050565b600082825260208201905092915050565b600061244882612590565b915061245383612590565b9250827fffffffffffffffffffffffffffffffffffffffffffffffffffffffffffffffff038211156124885761248761260c565b5b828201905092915050565b600061249e82612590565b91506124a983612590565b9250826124b9576124b861263b565b5b828204905092915050565b60006124cf82612590565b91506124da83612590565b9250817fffffffffffffffffffffffffffffffffffffffffffffffffffffffffffffffff04831182151516156125135761251261260c565b5b828202905092915050565b600061252982612590565b915061253483612590565b9250828210156125475761254661260c565b5b828203905092915050565b600061255d82612570565b9050919050565b60008115159050919050565b600073ffffffffffffffffffffffffffffffffffffffff82169050919050565b6000819050919050565b600060ff82169050919050565b60005b838110156125c55780820151818401526020810190506125aa565b838111156125d4576000848401525b50505050565b600060028204905060018216806125f257607f821691505b602082108114156126065761260561266a565b5b50919050565b7f4e487b7100000000000000000000000000000000000000000000000000000000600052601160045260246000fd5b7f4e487b7100000000000000000000000000000000000000000000000000000000600052601260045260246000fd5b7f4e487b7100000000000000000000000000000000000000000000000000000000600052602260045260246000fd5b6000601f19601f8301169050919050565b7f45524332303a207472616e7366657220746f20746865207a65726f206164647260008201527f6573730000000000000000000000000000000000000000000000000000000000602082015250565b7f45524332303a206275726e20616d6f756e7420657863656564732062616c616e60008201527f6365000000000000000000000000000000000000000000000000000000000000602082015250565b7f45524332303a20617070726f766520746f20746865207a65726f20616464726560008201527f7373000000000000000000000000000000000000000000000000000000000000602082015250565b7f45524332303a20696e73756666696369656e7420616c6c6f77616e6365000000600082015250565b7f45524332303a207472616e7366657220616d6f756e742065786365656473206260008201527f616c616e63650000000000000000000000000000000000000000000000000000602082015250565b7f6e6f742073756200000000000000000000000000000000000000000000000000600082015250565b7f45524332303a206275726e2066726f6d20746865207a65726f2061646472657360008201527f7300000000000000000000000000000000000000000000000000000000000000602082015250565b7f66616c6c6261636b000000000000000000000000000000000000000000000000600082015250565b7f45524332303a207472616e736665722066726f6d20746865207a65726f20616460008201527f6472657373000000000000000000000000000000000000000000000000000000602082015250565b7f6e6f7420666163746f7279000000000000000000000000000000000000000000600082015250565b7f45524332303a20617070726f76652066726f6d20746865207a65726f2061646460008201527f7265737300000000000000000000000000000000000000000000000000000000602082015250565b7f45524332303a2064656372656173656420616c6c6f77616e63652062656c6f7760008201527f207a65726f000000000000000000000000000000000000000000000000000000602082015250565b7f45524332303a206d696e7420746f20746865207a65726f206164647265737300600082015250565b6129f881612552565b8114612a0357600080fd5b50565b612a0f81612590565b8114612a1a57600080fd5b5056fea2646970667358221220479c19f326da3a47f526cc1f9202eb687cbbcb1ee55d01679e844a89e8e35f1464736f6c6343000804003360806040523480156200001157600080fd5b506040516200275938038062002759833981810160405281019062000037919062000096565b80600260006101000a81548173ffffffffffffffffffffffffffffffffffffffff021916908373ffffffffffffffffffffffffffffffffffffffff1602179055505062000110565b6000815190506200009081620000f6565b92915050565b600060208284031215620000a957600080fd5b6000620000b9848285016200007f565b91505092915050565b6000620000cf82620000d6565b9050919050565b600073ffffffffffffffffffffffffffffffffffffffff82169050919050565b6200010181620000c2565b81146200010d57600080fd5b50565b61263980620001206000396000f3fe608060405234801561001057600080fd5b50600436106100625760003560e01c80632852b71c14610067578063444d618d14610071578063597ff7bf146100a15780638ab66a90146100bd5780639d88c9f3146100f2578063f6847f721461010e575b600080fd5b61006f61012a565b005b61008b60048036038101906100869190611aba565b61021b565b6040516100989190611ea4565b60405180910390f35b6100bb60048036038101906100b69190611b5b565b6102e8565b005b6100d760048036038101906100d29190611aba565b610b0a565b6040516100e996959493929190611ec6565b60405180910390f35b61010c60048036038101906101079190611aba565b610b8d565b005b61012860048036038101906101239190611b0c565b61160f565b005b600115156000803373ffffffffffffffffffffffffffffffffffffffff1673ffffffffffffffffffffffffffffffffffffffff16815260200190815260200160002060000160009054906101000a900460ff161515146101bf576040517f08c379a00000000000000000000000000000000000000000000000000000000081526004016101b690611ff0565b60405180910390fd5b60016000803373ffffffffffffffffffffffffffffffffffffffff1673ffffffffffffffffffffffffffffffffffffffff16815260200190815260200160002060000160016101000a81548160ff021916908315150217905550565b6060600160008373ffffffffffffffffffffffffffffffffffffffff1673ffffffffffffffffffffffffffffffffffffffff1681526020019081526020016000208054806020026020016040519081016040528092919081815260200182805480156102dc57602002820191906000526020600020905b8160009054906101000a900473ffffffffffffffffffffffffffffffffffffffff1673ffffffffffffffffffffffffffffffffffffffff1681526020019060010190808311610292575b50505050509050919050565b600260009054906101000a900473ffffffffffffffffffffffffffffffffffffffff1673ffffffffffffffffffffffffffffffffffffffff1663c3a3aae4336040518263ffffffff1660e01b81526004016103439190611e60565b60206040518083038186803b15801561035b57600080fd5b505afa15801561036f573d6000803e3d6000fd5b505050506040513d601f19601f820116820180604052508101906103939190611bd2565b6103d2576040517f08c379a00000000000000000000000000000000000000000000000000000000081526004016103c990611f50565b60405180910390fd5b8360646005836103e29190612231565b6103ec9190612200565b1061042c576040517f08c379a000000000000000000000000000000000000000000000000000000000815260040161042390611f90565b60405180910390fd5b81600160003373ffffffffffffffffffffffffffffffffffffffff1673ffffffffffffffffffffffffffffffffffffffff16815260200190815260200160002080549050106104b0576040517f08c379a00000000000000000000000000000000000000000000000000000000081526004016104a790612010565b60405180910390fd5b600160003373ffffffffffffffffffffffffffffffffffffffff1673ffffffffffffffffffffffffffffffffffffffff16815260200190815260200160002080549050826104fe919061228b565b816105099190612200565b84111561054b576040517f08c379a0000000000000000000000000000000000000000000000000000000008152600401610542906120b0565b60405180910390fd5b600260009054906101000a900473ffffffffffffffffffffffffffffffffffffffff1673ffffffffffffffffffffffffffffffffffffffff168573ffffffffffffffffffffffffffffffffffffffff1614156105dc576040517f08c379a00000000000000000000000000000000000000000000000000000000081526004016105d390612070565b60405180910390fd5b600260009054906101000a900473ffffffffffffffffffffffffffffffffffffffff1673ffffffffffffffffffffffffffffffffffffffff1663c3a3aae4866040518263ffffffff1660e01b81526004016106379190611e60565b60206040518083038186803b15801561064f57600080fd5b505afa158015610663573d6000803e3d6000fd5b505050506040513d601f19601f820116820180604052508101906106879190611bd2565b156106c7576040517f08c379a00000000000000000000000000000000000000000000000000000000081526004016106be90611fb0565b60405180910390fd5b600073ffffffffffffffffffffffffffffffffffffffff16600260009054906101000a900473ffffffffffffffffffffffffffffffffffffffff1673ffffffffffffffffffffffffffffffffffffffff166339d284d6876040518263ffffffff1660e01b815260040161073a9190611e60565b60206040518083038186803b15801561075257600080fd5b505afa158015610766573d6000803e3d6000fd5b505050506040513d601f19601f8201168201806040525081019061078a9190611ae3565b73ffffffffffffffffffffffffffffffffffffffff16146107e0576040517f08c379a00000000000000000000000000000000000000000000000000000000081526004016107d790611f70565b60405180910390fd5b60016000808773ffffffffffffffffffffffffffffffffffffffff1673ffffffffffffffffffffffffffffffffffffffff16815260200190815260200160002060000160006101000a81548160ff02191690831515021790555060008060008773ffffffffffffffffffffffffffffffffffffffff1673ffffffffffffffffffffffffffffffffffffffff16815260200190815260200160002060000160016101000a81548160ff021916908315150217905550426000808773ffffffffffffffffffffffffffffffffffffffff1673ffffffffffffffffffffffffffffffffffffffff16815260200190815260200160002060010181905550836000808773ffffffffffffffffffffffffffffffffffffffff1673ffffffffffffffffffffffffffffffffffffffff16815260200190815260200160002060020181905550336000808773ffffffffffffffffffffffffffffffffffffffff1673ffffffffffffffffffffffffffffffffffffffff16815260200190815260200160002060030160006101000a81548173ffffffffffffffffffffffffffffffffffffffff021916908373ffffffffffffffffffffffffffffffffffffffff16021790555060008060008773ffffffffffffffffffffffffffffffffffffffff1673ffffffffffffffffffffffffffffffffffffffff16815260200190815260200160002060000160026101000a81548160ff021916908360000b60ff160217905550600160003373ffffffffffffffffffffffffffffffffffffffff1673ffffffffffffffffffffffffffffffffffffffff168152602001908152602001600020859080600181540180825580915050600190039060005260206000200160009091909190916101000a81548173ffffffffffffffffffffffffffffffffffffffff021916908373ffffffffffffffffffffffffffffffffffffffff1602179055508473ffffffffffffffffffffffffffffffffffffffff168373ffffffffffffffffffffffffffffffffffffffff167f6cb0c7cac157efc66d322ec4c52fbb9e9509fee208ae01f71de6d340fdfb385942604051610afb91906120d0565b60405180910390a35050505050565b60006020528060005260406000206000915090508060000160009054906101000a900460ff16908060000160019054906101000a900460ff16908060000160029054906101000a900460000b908060010154908060020154908060030160009054906101000a900473ffffffffffffffffffffffffffffffffffffffff16905086565b600260009054906101000a900473ffffffffffffffffffffffffffffffffffffffff1673ffffffffffffffffffffffffffffffffffffffff1663c3a3aae4336040518263ffffffff1660e01b8152600401610be89190611e60565b60206040518083038186803b158015610c0057600080fd5b505afa158015610c14573d6000803e3d6000fd5b505050506040513d601f19601f82011682018060405250810190610c389190611bd2565b610c77576040517f08c379a0000000000000000000000000000000000000000000000000000000008152600401610c6e90611f50565b60405180910390fd5b621275006000808373ffffffffffffffffffffffffffffffffffffffff1673ffffffffffffffffffffffffffffffffffffffff16815260200190815260200160002060010154610cc791906121aa565b4211610d08576040517f08c379a0000000000000000000000000000000000000000000000000000000008152600401610cff90611fd0565b60405180910390fd5b600115156000808373ffffffffffffffffffffffffffffffffffffffff1673ffffffffffffffffffffffffffffffffffffffff16815260200190815260200160002060000160009054906101000a900460ff16151514610d9d576040517f08c379a0000000000000000000000000000000000000000000000000000000008152600401610d9490611ff0565b60405180910390fd5b600115156000808373ffffffffffffffffffffffffffffffffffffffff1673ffffffffffffffffffffffffffffffffffffffff16815260200190815260200160002060000160019054906101000a900460ff16151514610e32576040517f08c379a0000000000000000000000000000000000000000000000000000000008152600401610e2990612030565b60405180910390fd5b60008060008373ffffffffffffffffffffffffffffffffffffffff1673ffffffffffffffffffffffffffffffffffffffff16815260200190815260200160002060000160006101000a81548160ff02191690831515021790555060005b600160003373ffffffffffffffffffffffffffffffffffffffff1673ffffffffffffffffffffffffffffffffffffffff168152602001908152602001600020805490508110156112ec578173ffffffffffffffffffffffffffffffffffffffff16600160003373ffffffffffffffffffffffffffffffffffffffff1673ffffffffffffffffffffffffffffffffffffffff1681526020019081526020016000208281548110610f67577f4e487b7100000000000000000000000000000000000000000000000000000000600052603260045260246000fd5b9060005260206000200160009054906101000a900473ffffffffffffffffffffffffffffffffffffffff1673ffffffffffffffffffffffffffffffffffffffff1614156112d957600160003373ffffffffffffffffffffffffffffffffffffffff1673ffffffffffffffffffffffffffffffffffffffff1681526020019081526020016000208181548110611025577f4e487b7100000000000000000000000000000000000000000000000000000000600052603260045260246000fd5b9060005260206000200160006101000a81549073ffffffffffffffffffffffffffffffffffffffff021916905560008190505b60018060003373ffffffffffffffffffffffffffffffffffffffff1673ffffffffffffffffffffffffffffffffffffffff168152602001908152602001600020805490506110a6919061228b565b81101561122d57600160003373ffffffffffffffffffffffffffffffffffffffff1673ffffffffffffffffffffffffffffffffffffffff1681526020019081526020016000206001826110f991906121aa565b81548110611130577f4e487b7100000000000000000000000000000000000000000000000000000000600052603260045260246000fd5b9060005260206000200160009054906101000a900473ffffffffffffffffffffffffffffffffffffffff16600160003373ffffffffffffffffffffffffffffffffffffffff1673ffffffffffffffffffffffffffffffffffffffff16815260200190815260200160002082815481106111d2577f4e487b7100000000000000000000000000000000000000000000000000000000600052603260045260246000fd5b9060005260206000200160006101000a81548173ffffffffffffffffffffffffffffffffffffffff021916908373ffffffffffffffffffffffffffffffffffffffff160217905550808061122590612314565b915050611058565b50600160003373ffffffffffffffffffffffffffffffffffffffff1673ffffffffffffffffffffffffffffffffffffffff1681526020019081526020016000208054806112a3577f4e487b7100000000000000000000000000000000000000000000000000000000600052603160045260246000fd5b6001900381819060005260206000200160006101000a81549073ffffffffffffffffffffffffffffffffffffffff021916905590555b80806112e490612314565b915050610e8f565b5060016000808373ffffffffffffffffffffffffffffffffffffffff1673ffffffffffffffffffffffffffffffffffffffff16815260200190815260200160002060000160029054906101000a900460000b60000b126114ac57600115158173ffffffffffffffffffffffffffffffffffffffff167f230a847ed5b8af3a73e324bb4be2f007e49db54ce203894a28a03507ebc7a2764260405161139091906120d0565b60405180910390a36000808273ffffffffffffffffffffffffffffffffffffffff1673ffffffffffffffffffffffffffffffffffffffff16815260200190815260200160002060030160009054906101000a900473ffffffffffffffffffffffffffffffffffffffff1673ffffffffffffffffffffffffffffffffffffffff166394d96c31826000808573ffffffffffffffffffffffffffffffffffffffff1673ffffffffffffffffffffffffffffffffffffffff168152602001908152602001600020600201546040518363ffffffff1660e01b8152600401611475929190611e7b565b600060405180830381600087803b15801561148f57600080fd5b505af11580156114a3573d6000803e3d6000fd5b5050505061160c565b600015158173ffffffffffffffffffffffffffffffffffffffff167f230a847ed5b8af3a73e324bb4be2f007e49db54ce203894a28a03507ebc7a276426040516114f691906120d0565b60405180910390a36000808273ffffffffffffffffffffffffffffffffffffffff1673ffffffffffffffffffffffffffffffffffffffff16815260200190815260200160002060030160009054906101000a900473ffffffffffffffffffffffffffffffffffffffff1673ffffffffffffffffffffffffffffffffffffffff1663d91921ed6000808473ffffffffffffffffffffffffffffffffffffffff1673ffffffffffffffffffffffffffffffffffffffff168152602001908152602001600020600201546040518263ffffffff1660e01b81526004016115d991906120d0565b600060405180830381600087803b1580156115f357600080fd5b505af1158015611607573d6000803e3d6000fd5b505050505b50565b600260009054906101000a900473ffffffffffffffffffffffffffffffffffffffff1673ffffffffffffffffffffffffffffffffffffffff1663c3a3aae4336040518263ffffffff1660e01b815260040161166a9190611e60565b60206040518083038186803b15801561168257600080fd5b505afa158015611696573d6000803e3d6000fd5b505050506040513d601f19601f820116820180604052508101906116ba9190611bd2565b6116f9576040517f08c379a00000000000000000000000000000000000000000000000000000000081526004016116f090611f50565b60405180910390fd5b600015156000808573ffffffffffffffffffffffffffffffffffffffff1673ffffffffffffffffffffffffffffffffffffffff16815260200190815260200160002060040160008473ffffffffffffffffffffffffffffffffffffffff1673ffffffffffffffffffffffffffffffffffffffff16815260200190815260200160002060009054906101000a900460ff161515146117cb576040517f08c379a00000000000000000000000000000000000000000000000000000000081526004016117c290612050565b60405180910390fd5b60018160000b14806117ff57507fffffffffffffffffffffffffffffffffffffffffffffffffffffffffffffffff8160000b145b61183e576040517f08c379a000000000000000000000000000000000000000000000000000000000815260040161183590612090565b60405180910390fd5b60016000808573ffffffffffffffffffffffffffffffffffffffff1673ffffffffffffffffffffffffffffffffffffffff16815260200190815260200160002060000160006101000a81548160ff02191690831515021790556118d6576040517f08c379a00000000000000000000000000000000000000000000000000000000081526004016118cd90611ff0565b60405180910390fd5b806000808573ffffffffffffffffffffffffffffffffffffffff1673ffffffffffffffffffffffffffffffffffffffff16815260200190815260200160002060000160028282829054906101000a900460000b6119339190612135565b92506101000a81548160ff021916908360000b60ff16021790555060016000808573ffffffffffffffffffffffffffffffffffffffff1673ffffffffffffffffffffffffffffffffffffffff16815260200190815260200160002060040160008473ffffffffffffffffffffffffffffffffffffffff1673ffffffffffffffffffffffffffffffffffffffff16815260200190815260200160002060006101000a81548160ff0219169083151502179055508273ffffffffffffffffffffffffffffffffffffffff168273ffffffffffffffffffffffffffffffffffffffff167fe678b3305555fbaf7496e518942e5e3ccdbadcfd81643b4b8a126c02afacbeda8342604051611a44929190611f27565b60405180910390a3505050565b600081359050611a60816125a7565b92915050565b600081519050611a75816125a7565b92915050565b600081519050611a8a816125be565b92915050565b600081359050611a9f816125d5565b92915050565b600081359050611ab4816125ec565b92915050565b600060208284031215611acc57600080fd5b6000611ada84828501611a51565b91505092915050565b600060208284031215611af557600080fd5b6000611b0384828501611a66565b91505092915050565b600080600060608486031215611b2157600080fd5b6000611b2f86828701611a51565b9350506020611b4086828701611a51565b9250506040611b5186828701611a90565b9150509250925092565b600080600080600060a08688031215611b7357600080fd5b6000611b8188828901611a51565b9550506020611b9288828901611aa5565b9450506040611ba388828901611a51565b9350506060611bb488828901611aa5565b9250506080611bc588828901611aa5565b9150509295509295909350565b600060208284031215611be457600080fd5b6000611bf284828501611a7b565b91505092915050565b6000611c078383611c13565b60208301905092915050565b611c1c816122bf565b82525050565b611c2b816122bf565b82525050565b6000611c3c826120fb565b611c468185612113565b9350611c51836120eb565b8060005b83811015611c82578151611c698882611bfb565b9750611c7483612106565b925050600181019050611c55565b5085935050505092915050565b611c98816122d1565b82525050565b611ca7816122dd565b82525050565b6000611cba600983612124565b9150611cc5826123bb565b602082019050919050565b6000611cdd600983612124565b9150611ce8826123e4565b602082019050919050565b6000611d00600983612124565b9150611d0b8261240d565b602082019050919050565b6000611d23600783612124565b9150611d2e82612436565b602082019050919050565b6000611d46600c83612124565b9150611d518261245f565b602082019050919050565b6000611d69600883612124565b9150611d7482612488565b602082019050919050565b6000611d8c601083612124565b9150611d97826124b1565b602082019050919050565b6000611daf601083612124565b9150611dba826124da565b602082019050919050565b6000611dd2600583612124565b9150611ddd82612503565b602082019050919050565b6000611df5600983612124565b9150611e008261252c565b602082019050919050565b6000611e18600e83612124565b9150611e2382612555565b602082019050919050565b6000611e3b600783612124565b9150611e468261257e565b602082019050919050565b611e5a8161230a565b82525050565b6000602082019050611e756000830184611c22565b92915050565b6000604082019050611e906000830185611c22565b611e9d6020830184611e51565b9392505050565b60006020820190508181036000830152611ebe8184611c31565b905092915050565b600060c082019050611edb6000830189611c8f565b611ee86020830188611c8f565b611ef56040830187611c9e565b611f026060830186611e51565b611f0f6080830185611e51565b611f1c60a0830184611c22565b979650505050505050565b6000604082019050611f3c6000830185611c9e565b611f496020830184611e51565b9392505050565b60006020820190508181036000830152611f6981611cad565b9050919050565b60006020820190508181036000830152611f8981611cd0565b9050919050565b60006020820190508181036000830152611fa981611cf3565b9050919050565b60006020820190508181036000830152611fc981611d16565b9050919050565b60006020820190508181036000830152611fe981611d39565b9050919050565b6000602082019050818103600083015261200981611d5c565b9050919050565b6000602082019050818103600083015261202981611d7f565b9050919050565b6000602082019050818103600083015261204981611da2565b9050919050565b6000602082019050818103600083015261206981611dc5565b9050919050565b6000602082019050818103600083015261208981611de8565b9050919050565b600060208201905081810360008301526120a981611e0b565b9050919050565b600060208201905081810360008301526120c981611e2e565b9050919050565b60006020820190506120e56000830184611e51565b92915050565b6000819050602082019050919050565b600081519050919050565b6000602082019050919050565b600082825260208201905092915050565b600082825260208201905092915050565b6000612140826122dd565b915061214b836122dd565b925081607f038313600083121516156121675761216661235d565b5b817fffffffffffffffffffffffffffffffffffffffffffffffffffffffffffffff8003831260008312161561219f5761219e61235d565b5b828201905092915050565b60006121b58261230a565b91506121c08361230a565b9250827fffffffffffffffffffffffffffffffffffffffffffffffffffffffffffffffff038211156121f5576121f461235d565b5b828201905092915050565b600061220b8261230a565b91506122168361230a565b9250826122265761222561238c565b5b828204905092915050565b600061223c8261230a565b91506122478361230a565b9250817fffffffffffffffffffffffffffffffffffffffffffffffffffffffffffffffff04831182151516156122805761227f61235d565b5b828202905092915050565b60006122968261230a565b91506122a18361230a565b9250828210156122b4576122b361235d565b5b828203905092915050565b60006122ca826122ea565b9050919050565b60008115159050919050565b60008160000b9050919050565b600073ffffffffffffffffffffffffffffffffffffffff82169050919050565b6000819050919050565b600061231f8261230a565b91507fffffffffffffffffffffffffffffffffffffffffffffffffffffffffffffffff8214156123525761235161235d565b5b600182019050919050565b7f4e487b7100000000000000000000000000000000000000000000000000000000600052601160045260246000fd5b7f4e487b7100000000000000000000000000000000000000000000000000000000600052601260045260246000fd5b7f6e6f742061207375620000000000000000000000000000000000000000000000600082015250565b7f6973206d656d6265720000000000000000000000000000000000000000000000600082015250565b7f746f6f20736d616c6c0000000000000000000000000000000000000000000000600082015250565b7f6e6f207375627300000000000000000000000000000000000000000000000000600082015250565b7f746f6f20736f6f6e2062726f0000000000000000000000000000000000000000600082015250565b7f6e6f74206f70656e000000000000000000000000000000000000000000000000600082015250565b7f636c6f736520736f6d6520766f74657300000000000000000000000000000000600082015250565b7f686173206e6f7420616363657074656400000000000000000000000000000000600082015250565b7f766f746564000000000000000000000000000000000000000000000000000000600082015250565b7f6e6f206c65616465720000000000000000000000000000000000000000000000600082015250565b7f766f7465206e6f74207269676874000000000000000000000000000000000000600082015250565b7f746f6f2062696700000000000000000000000000000000000000000000000000600082015250565b6125b0816122bf565b81146125bb57600080fd5b50565b6125c7816122d1565b81146125d257600080fd5b50565b6125de816122dd565b81146125e957600080fd5b50565b6125f58161230a565b811461260057600080fd5b5056fea2646970667358221220c88a01b6af454c4b98ef0cbb8286b557ab117211d22c9fbd07efe91779aeab4164736f6c63430008040033608060405234801561001057600080fd5b50604051612ded380380612ded833981810160405281019061003291906100cf565b816000806101000a81548173ffffffffffffffffffffffffffffffffffffffff021916908373ffffffffffffffffffffffffffffffffffffffff16021790555080600160006101000a81548173ffffffffffffffffffffffffffffffffffffffff021916908373ffffffffffffffffffffffffffffffffffffffff1602179055505050610154565b6000815190506100c98161013d565b92915050565b600080604083850312156100e257600080fd5b60006100f0858286016100ba565b9250506020610101858286016100ba565b9150509250929050565b60006101168261011d565b9050919050565b600073ffffffffffffffffffffffffffffffffffffffff82169050919050565b6101468161010b565b811461015157600080fd5b50565b612c8a806101636000396000f3fe60806040523480156200001157600080fd5b5060043610620000465760003560e01c80633544a864146200004b57806340eedabb146200006d57806396c8f917146200008f575b600080fd5b62000055620000af565b604051620000649190620005ac565b60405180910390f35b62000077620000d5565b604051620000869190620005ac565b60405180910390f35b620000ad6004803603810190620000a79190620004f7565b620000f9565b005b600160009054906101000a900473ffffffffffffffffffffffffffffffffffffffff1681565b60008054906101000a900473ffffffffffffffffffffffffffffffffffffffff1681565b60008054906101000a900473ffffffffffffffffffffffffffffffffffffffff1673ffffffffffffffffffffffffffffffffffffffff163373ffffffffffffffffffffffffffffffffffffffff161480620001a15750600160009054906101000a900473ffffffffffffffffffffffffffffffffffffffff1673ffffffffffffffffffffffffffffffffffffffff163373ffffffffffffffffffffffffffffffffffffffff16145b620001ab57600080fd5b60008060009054906101000a900473ffffffffffffffffffffffffffffffffffffffff1660008054906101000a900473ffffffffffffffffffffffffffffffffffffffff1673ffffffffffffffffffffffffffffffffffffffff1663d2fa71706040518163ffffffff1660e01b815260040160206040518083038186803b1580156200023657600080fd5b505afa1580156200024b573d6000803e3d6000fd5b505050506040513d601f19601f82011682018060405250810190620002719190620004cb565b8585604051620002819062000461565b620002909493929190620005c9565b604051809103906000f080158015620002ad573d6000803e3d6000fd5b50905060008054906101000a900473ffffffffffffffffffffffffffffffffffffffff1673ffffffffffffffffffffffffffffffffffffffff1663e66336ef858386866040518563ffffffff1660e01b815260040162000311949392919062000616565b600060405180830381600087803b1580156200032c57600080fd5b505af115801562000341573d6000803e3d6000fd5b50505050600160009054906101000a900473ffffffffffffffffffffffffffffffffffffffff1673ffffffffffffffffffffffffffffffffffffffff163373ffffffffffffffffffffffffffffffffffffffff1614156200045b5760008054906101000a900473ffffffffffffffffffffffffffffffffffffffff1673ffffffffffffffffffffffffffffffffffffffff1663a9059cbb8269ee3a5f48a68b552000006040518363ffffffff1660e01b81526004016200040392919062000663565b602060405180830381600087803b1580156200041e57600080fd5b505af115801562000433573d6000803e3d6000fd5b505050506040513d601f19601f820116820180604052508101906200045991906200054d565b505b50505050565b612518806200073d83390190565b6000813590506200048081620006ee565b92915050565b6000815190506200049781620006ee565b92915050565b600081519050620004ae8162000708565b92915050565b600081359050620004c58162000722565b92915050565b600060208284031215620004de57600080fd5b6000620004ee8482850162000486565b91505092915050565b6000806000606084860312156200050d57600080fd5b60006200051d868287016200046f565b93505060206200053086828701620004b4565b925050604062000543868287016200046f565b9150509250925092565b6000602082840312156200056057600080fd5b600062000570848285016200049d565b91505092915050565b620005848162000690565b82525050565b6200059581620006da565b82525050565b620005a681620006d0565b82525050565b6000602082019050620005c3600083018462000579565b92915050565b6000608082019050620005e0600083018762000579565b620005ef602083018662000579565b620005fe604083018562000579565b6200060d60608301846200059b565b95945050505050565b60006080820190506200062d600083018762000579565b6200063c602083018662000579565b6200064b60408301856200059b565b6200065a606083018462000579565b95945050505050565b60006040820190506200067a600083018562000579565b6200068960208301846200058a565b9392505050565b60006200069d82620006b0565b9050919050565b60008115159050919050565b600073ffffffffffffffffffffffffffffffffffffffff82169050919050565b6000819050919050565b6000620006e782620006d0565b9050919050565b620006f98162000690565b81146200070557600080fd5b50565b6200071381620006a4565b81146200071f57600080fd5b50565b6200072d81620006d0565b81146200073957600080fd5b5056fe60806040523480156200001157600080fd5b5060405162002518380380620025188339818101604052810190620000379190620002c3565b60008060006101000a81548160ff0219169083151502179055506001600460006224ea00426200006891906200038c565b815260200190815260200160002060006101000a81548160ff02191690831515021790555083600360006101000a81548173ffffffffffffffffffffffffffffffffffffffff021916908373ffffffffffffffffffffffffffffffffffffffff16021790555082600660006101000a81548173ffffffffffffffffffffffffffffffffffffffff021916908373ffffffffffffffffffffffffffffffffffffffff1602179055506002829080600181540180825580915050600190039060005260206000200160009091909190916101000a81548173ffffffffffffffffffffffffffffffffffffffff021916908373ffffffffffffffffffffffffffffffffffffffff1602179055506001600060016101000a81548160ff021916908360ff1602179055506009600560008473ffffffffffffffffffffffffffffffffffffffff1673ffffffffffffffffffffffffffffffffffffffff16815260200190815260200160002060000160006101000a81548160ff021916908360000b60ff16021790555080600560008473ffffffffffffffffffffffffffffffffffffffff1673ffffffffffffffffffffffffffffffffffffffff1681526020019081526020016000206001018190555062eff100426200024591906200032f565b600560008473ffffffffffffffffffffffffffffffffffffffff1673ffffffffffffffffffffffffffffffffffffffff168152602001908152602001600020600301819055505050505062000494565b600081519050620002a68162000460565b92915050565b600081519050620002bd816200047a565b92915050565b60008060008060808587031215620002da57600080fd5b6000620002ea8782880162000295565b9450506020620002fd8782880162000295565b9350506040620003108782880162000295565b92505060606200032387828801620002ac565b91505092959194509250565b60006200033c82620003f8565b91506200034983620003f8565b9250827fffffffffffffffffffffffffffffffffffffffffffffffffffffffffffffffff0382111562000381576200038062000402565b5b828201905092915050565b60006200039982620003f8565b9150620003a683620003f8565b925082620003b957620003b862000431565b5b828204905092915050565b6000620003d182620003d8565b9050919050565b600073ffffffffffffffffffffffffffffffffffffffff82169050919050565b6000819050919050565b7f4e487b7100000000000000000000000000000000000000000000000000000000600052601160045260246000fd5b7f4e487b7100000000000000000000000000000000000000000000000000000000600052601260045260246000fd5b6200046b81620003c4565b81146200047757600080fd5b50565b6200048581620003f8565b81146200049157600080fd5b50565b61207480620004a46000396000f3fe608060405234801561001057600080fd5b50600436106100a95760003560e01c8063a30e3fa911610071578063a30e3fa91461013c578063b12d96f71461015a578063b975fbe314610176578063d287d349146101a9578063d91921ed146101c7578063e7d06ca0146101e3576100a9565b80635daf08ca146100ae57806382403164146100de57806394d96c31146100fa578063992dbf75146101165780639d88c9f314610120575b600080fd5b6100c860048036038101906100c391906117ce565b6101ed565b6040516100d591906118f1565b60405180910390f35b6100f860048036038101906100f3919061172d565b61022c565b005b610114600480360381019061010f9190611769565b61042c565b005b61011e6107be565b005b61013a60048036038101906101359190611704565b610a4f565b005b610144611019565b6040516101519190611b64565b60405180910390f35b610174600480360381019061016f9190611769565b61102c565b005b610190600480360381019061018b9190611704565b611268565b6040516101a09493929190611a3b565b60405180910390f35b6101b16112a5565b6040516101be9190611b20565b60405180910390f35b6101e160048036038101906101dc91906117ce565b6112ab565b005b6101eb611379565b005b600281815481106101fd57600080fd5b906000526020600020016000915054906101000a900473ffffffffffffffffffffffffffffffffffffffff1681565b6000600560003373ffffffffffffffffffffffffffffffffffffffff1673ffffffffffffffffffffffffffffffffffffffff16815260200190815260200160002060000160009054906101000a900460000b60000b136102c1576040517f08c379a00000000000000000000000000000000000000000000000000000000081526004016102b890611a80565b60405180910390fd5b6015600560003373ffffffffffffffffffffffffffffffffffffffff1673ffffffffffffffffffffffffffffffffffffffff16815260200190815260200160002060000160009054906101000a900460000b60000b1215610397576003600560003373ffffffffffffffffffffffffffffffffffffffff1673ffffffffffffffffffffffffffffffffffffffff16815260200190815260200160002060000160008282829054906101000a900460000b61037b9190611b90565b92506101000a81548160ff021916908360000b60ff1602179055505b600660009054906101000a900473ffffffffffffffffffffffffffffffffffffffff1673ffffffffffffffffffffffffffffffffffffffff1663f6847f728333846040518463ffffffff1660e01b81526004016103f69392919061190c565b600060405180830381600087803b15801561041057600080fd5b505af1158015610424573d6000803e3d6000fd5b505050505050565b600660009054906101000a900473ffffffffffffffffffffffffffffffffffffffff1673ffffffffffffffffffffffffffffffffffffffff163373ffffffffffffffffffffffffffffffffffffffff161461048657600080fd5b60076002805490501015610728576002829080600181540180825580915050600190039060005260206000200160009091909190916101000a81548173ffffffffffffffffffffffffffffffffffffffff021916908373ffffffffffffffffffffffffffffffffffffffff1602179055506001600060018282829054906101000a900460ff166105169190611c5b565b92506101000a81548160ff021916908360ff1602179055506009600560008473ffffffffffffffffffffffffffffffffffffffff1673ffffffffffffffffffffffffffffffffffffffff16815260200190815260200160002060000160006101000a81548160ff021916908360000b60ff16021790555080600560008473ffffffffffffffffffffffffffffffffffffffff1673ffffffffffffffffffffffffffffffffffffffff1681526020019081526020016000206001018190555062eff100426105e39190611c05565b600560008473ffffffffffffffffffffffffffffffffffffffff1673ffffffffffffffffffffffffffffffffffffffff16815260200190815260200160002060030181905550600360009054906101000a900473ffffffffffffffffffffffffffffffffffffffff1673ffffffffffffffffffffffffffffffffffffffff1663a31b6756838330306040518563ffffffff1660e01b815260040161068a94939291906119a3565b600060405180830381600087803b1580156106a457600080fd5b505af11580156106b8573d6000803e3d6000fd5b505050503073ffffffffffffffffffffffffffffffffffffffff168273ffffffffffffffffffffffffffffffffffffffff167fb79e7b77d2cfadec6aea91b7599734956f63aa9b27684319a1362c0ac48ded8a834260405161071b929190611b3b565b60405180910390a36107ba565b600360009054906101000a900473ffffffffffffffffffffffffffffffffffffffff1673ffffffffffffffffffffffffffffffffffffffff166396c8f9178383306040518463ffffffff1660e01b81526004016107879392919061196c565b600060405180830381600087803b1580156107a157600080fd5b505af11580156107b5573d6000803e3d6000fd5b505050505b5050565b60008054906101000a900460ff16156107d657600080fd5b60016000806101000a81548160ff021916908315150217905550600560003373ffffffffffffffffffffffffffffffffffffffff1673ffffffffffffffffffffffffffffffffffffffff168152602001908152602001600020600301544211610874576040517f08c379a000000000000000000000000000000000000000000000000000000000815260040161086b90611b00565b60405180910390fd5b6000600560003373ffffffffffffffffffffffffffffffffffffffff1673ffffffffffffffffffffffffffffffffffffffff16815260200190815260200160002060010154116108f9576040517f08c379a00000000000000000000000000000000000000000000000000000000081526004016108f090611aa0565b60405180910390fd5b600360009054906101000a900473ffffffffffffffffffffffffffffffffffffffff1673ffffffffffffffffffffffffffffffffffffffff1663a9059cbb33600560003373ffffffffffffffffffffffffffffffffffffffff1673ffffffffffffffffffffffffffffffffffffffff168152602001908152602001600020600101546040518363ffffffff1660e01b8152600401610998929190611943565b602060405180830381600087803b1580156109b257600080fd5b505af11580156109c6573d6000803e3d6000fd5b505050506040513d601f19601f820116820180604052508101906109ea91906117a5565b506000600560003373ffffffffffffffffffffffffffffffffffffffff1673ffffffffffffffffffffffffffffffffffffffff1681526020019081526020016000206001018190555060008060006101000a81548160ff021916908315150217905550565b6000600560003373ffffffffffffffffffffffffffffffffffffffff1673ffffffffffffffffffffffffffffffffffffffff16815260200190815260200160002060000160009054906101000a900460000b60000b13610ae4576040517f08c379a0000000000000000000000000000000000000000000000000000000008152600401610adb90611a80565b60405180910390fd5b60005b600280549050811015610f885760026005600060028481548110610b34577f4e487b7100000000000000000000000000000000000000000000000000000000600052603260045260246000fd5b9060005260206000200160009054906101000a900473ffffffffffffffffffffffffffffffffffffffff1673ffffffffffffffffffffffffffffffffffffffff1673ffffffffffffffffffffffffffffffffffffffff16815260200190815260200160002060000160008282829054906101000a900460000b610bb79190611d1d565b92506101000a81548160ff021916908360000b60ff16021790555060016005600060028481548110610c12577f4e487b7100000000000000000000000000000000000000000000000000000000600052603260045260246000fd5b9060005260206000200160009054906101000a900473ffffffffffffffffffffffffffffffffffffffff1673ffffffffffffffffffffffffffffffffffffffff1673ffffffffffffffffffffffffffffffffffffffff16815260200190815260200160002060000160009054906101000a900460000b60000b1215610f755760028181548110610ccb577f4e487b7100000000000000000000000000000000000000000000000000000000600052603260045260246000fd5b9060005260206000200160006101000a81549073ffffffffffffffffffffffffffffffffffffffff021916905560008190505b6001600280549050610d109190611d92565b811015610e1d576002600182610d269190611c05565b81548110610d5d577f4e487b7100000000000000000000000000000000000000000000000000000000600052603260045260246000fd5b9060005260206000200160009054906101000a900473ffffffffffffffffffffffffffffffffffffffff1660028281548110610dc2577f4e487b7100000000000000000000000000000000000000000000000000000000600052603260045260246000fd5b9060005260206000200160006101000a81548173ffffffffffffffffffffffffffffffffffffffff021916908373ffffffffffffffffffffffffffffffffffffffff1602179055508080610e1590611e6e565b915050610cfe565b506002805480610e56577f4e487b7100000000000000000000000000000000000000000000000000000000600052603160045260246000fd5b6001900381819060005260206000200160006101000a81549073ffffffffffffffffffffffffffffffffffffffff021916905590556001600060018282829054906101000a900460ff16610eaa9190611dc6565b92506101000a81548160ff021916908360ff16021790555060028181548110610efc577f4e487b7100000000000000000000000000000000000000000000000000000000600052603260045260246000fd5b9060005260206000200160009054906101000a900473ffffffffffffffffffffffffffffffffffffffff1673ffffffffffffffffffffffffffffffffffffffff167f3ac963493df564de734d98633f1145d21512e282ba4c02d3c1011119bf7f286242604051610f6c9190611b20565b60405180910390a25b8080610f8090611e6e565b915050610ae7565b50600660009054906101000a900473ffffffffffffffffffffffffffffffffffffffff1673ffffffffffffffffffffffffffffffffffffffff16639d88c9f3826040518263ffffffff1660e01b8152600401610fe491906118f1565b600060405180830381600087803b158015610ffe57600080fd5b505af1158015611012573d6000803e3d6000fd5b5050505050565b600060019054906101000a900460ff1681565b6000600560003373ffffffffffffffffffffffffffffffffffffffff1673ffffffffffffffffffffffffffffffffffffffff16815260200190815260200160002060000160009054906101000a900460000b60000b136110c1576040517f08c379a00000000000000000000000000000000000000000000000000000000081526004016110b890611a80565b60405180910390fd5b600560003373ffffffffffffffffffffffffffffffffffffffff1673ffffffffffffffffffffffffffffffffffffffff168152602001908152602001600020600201544211611145576040517f08c379a000000000000000000000000000000000000000000000000000000000815260040161113c90611ae0565b60405180910390fd5b600660009054906101000a900473ffffffffffffffffffffffffffffffffffffffff1673ffffffffffffffffffffffffffffffffffffffff1663597ff7bf838333600060019054906101000a900460ff166001546040518663ffffffff1660e01b81526004016111b99594939291906119e8565b600060405180830381600087803b1580156111d357600080fd5b505af11580156111e7573d6000803e3d6000fd5b505050506111f682600161022c565b80600160008282546112089190611d92565b92505081905550621275004261121e9190611c05565b600560003373ffffffffffffffffffffffffffffffffffffffff1673ffffffffffffffffffffffffffffffffffffffff168152602001908152602001600020600201819055505050565b60056020528060005260406000206000915090508060000160009054906101000a900460000b908060010154908060020154908060030154905084565b60015481565b600360009054906101000a900473ffffffffffffffffffffffffffffffffffffffff1673ffffffffffffffffffffffffffffffffffffffff163373ffffffffffffffffffffffffffffffffffffffff1614806113545750600660009054906101000a900473ffffffffffffffffffffffffffffffffffffffff1673ffffffffffffffffffffffffffffffffffffffff163373ffffffffffffffffffffffffffffffffffffffff16145b61135d57600080fd5b806001600082825461136f9190611c05565b9250508190555050565b6000600560003373ffffffffffffffffffffffffffffffffffffffff1673ffffffffffffffffffffffffffffffffffffffff16815260200190815260200160002060000160009054906101000a900460000b60000b1361140e576040517f08c379a000000000000000000000000000000000000000000000000000000000815260040161140590611a80565b60405180910390fd5b60006224ea004261141f9190611c92565b90506004600082815260200190815260200160002060009054906101000a900460ff1615611482576040517f08c379a000000000000000000000000000000000000000000000000000000000815260040161147990611ac0565b60405180910390fd5b60016004600083815260200190815260200160002060006101000a81548160ff021916908315150217905550600360009054906101000a900473ffffffffffffffffffffffffffffffffffffffff1673ffffffffffffffffffffffffffffffffffffffff166343f9932e6040518163ffffffff1660e01b8152600401600060405180830381600087803b15801561151857600080fd5b505af115801561152c573d6000803e3d6000fd5b5050505060005b60028054905081101561167557600360009054906101000a900473ffffffffffffffffffffffffffffffffffffffff1673ffffffffffffffffffffffffffffffffffffffff1663a9059cbb600283815481106115b8577f4e487b7100000000000000000000000000000000000000000000000000000000600052603260045260246000fd5b9060005260206000200160009054906101000a900473ffffffffffffffffffffffffffffffffffffffff1660646001546115f29190611c92565b6040518363ffffffff1660e01b815260040161160f929190611943565b602060405180830381600087803b15801561162957600080fd5b505af115801561163d573d6000803e3d6000fd5b505050506040513d601f19601f8201168201806040525081019061166191906117a5565b50808061166d90611e6e565b915050611533565b50606460015460028054905061168b9190611cc3565b6116959190611c92565b600160008282546116a69190611d92565b9250508190555050565b6000813590506116bf81611fe2565b92915050565b6000815190506116d481611ff9565b92915050565b6000813590506116e981612010565b92915050565b6000813590506116fe81612027565b92915050565b60006020828403121561171657600080fd5b6000611724848285016116b0565b91505092915050565b6000806040838503121561174057600080fd5b600061174e858286016116b0565b925050602061175f858286016116da565b9150509250929050565b6000806040838503121561177c57600080fd5b600061178a858286016116b0565b925050602061179b858286016116ef565b9150509250929050565b6000602082840312156117b757600080fd5b60006117c5848285016116c5565b91505092915050565b6000602082840312156117e057600080fd5b60006117ee848285016116ef565b91505092915050565b61180081611dfa565b82525050565b61180f81611e18565b82525050565b6000611822601183611b7f565b915061182d82611f15565b602082019050919050565b6000611845600883611b7f565b915061185082611f3e565b602082019050919050565b6000611868600483611b7f565b915061187382611f67565b602082019050919050565b600061188b600483611b7f565b915061189682611f90565b602082019050919050565b60006118ae600683611b7f565b91506118b982611fb9565b602082019050919050565b6118cd81611e45565b82525050565b6118dc81611e5c565b82525050565b6118eb81611e4f565b82525050565b600060208201905061190660008301846117f7565b92915050565b600060608201905061192160008301866117f7565b61192e60208301856117f7565b61193b6040830184611806565b949350505050565b600060408201905061195860008301856117f7565b61196560208301846118c4565b9392505050565b600060608201905061198160008301866117f7565b61198e60208301856118c4565b61199b60408301846117f7565b949350505050565b60006080820190506119b860008301876117f7565b6119c560208301866118c4565b6119d260408301856117f7565b6119df60608301846117f7565b95945050505050565b600060a0820190506119fd60008301886117f7565b611a0a60208301876118c4565b611a1760408301866117f7565b611a2460608301856118d3565b611a3160808301846118c4565b9695505050505050565b6000608082019050611a506000830187611806565b611a5d60208301866118c4565b611a6a60408301856118c4565b611a7760608301846118c4565b95945050505050565b60006020820190508181036000830152611a9981611815565b9050919050565b60006020820190508181036000830152611ab981611838565b9050919050565b60006020820190508181036000830152611ad98161185b565b9050919050565b60006020820190508181036000830152611af98161187e565b9050919050565b60006020820190508181036000830152611b19816118a1565b9050919050565b6000602082019050611b3560008301846118c4565b92915050565b6000604082019050611b5060008301856118c4565b611b5d60208301846118c4565b9392505050565b6000602082019050611b7960008301846118e2565b92915050565b600082825260208201905092915050565b6000611b9b82611e18565b9150611ba683611e18565b925081607f03831360008312151615611bc257611bc1611eb7565b5b817fffffffffffffffffffffffffffffffffffffffffffffffffffffffffffffff80038312600083121615611bfa57611bf9611eb7565b5b828201905092915050565b6000611c1082611e45565b9150611c1b83611e45565b9250827fffffffffffffffffffffffffffffffffffffffffffffffffffffffffffffffff03821115611c5057611c4f611eb7565b5b828201905092915050565b6000611c6682611e4f565b9150611c7183611e4f565b92508260ff03821115611c8757611c86611eb7565b5b828201905092915050565b6000611c9d82611e45565b9150611ca883611e45565b925082611cb857611cb7611ee6565b5b828204905092915050565b6000611cce82611e45565b9150611cd983611e45565b9250817fffffffffffffffffffffffffffffffffffffffffffffffffffffffffffffffff0483118215151615611d1257611d11611eb7565b5b828202905092915050565b6000611d2882611e18565b9150611d3383611e18565b9250827fffffffffffffffffffffffffffffffffffffffffffffffffffffffffffffff8001821260008412151615611d6e57611d6d611eb7565b5b82607f018213600084121615611d8757611d86611eb7565b5b828203905092915050565b6000611d9d82611e45565b9150611da883611e45565b925082821015611dbb57611dba611eb7565b5b828203905092915050565b6000611dd182611e4f565b9150611ddc83611e4f565b925082821015611def57611dee611eb7565b5b828203905092915050565b6000611e0582611e25565b9050919050565b60008115159050919050565b60008160000b9050919050565b600073ffffffffffffffffffffffffffffffffffffffff82169050919050565b6000819050919050565b600060ff82169050919050565b6000611e6782611e4f565b9050919050565b6000611e7982611e45565b91507fffffffffffffffffffffffffffffffffffffffffffffffffffffffffffffffff821415611eac57611eab611eb7565b5b600182019050919050565b7f4e487b7100000000000000000000000000000000000000000000000000000000600052601160045260246000fd5b7f4e487b7100000000000000000000000000000000000000000000000000000000600052601260045260246000fd5b7f6e6f7420616374697665206d656d626572000000000000000000000000000000600082015250565b7f6e6f206772616e74000000000000000000000000000000000000000000000000600082015250565b7f7061696400000000000000000000000000000000000000000000000000000000600082015250565b7f7761697400000000000000000000000000000000000000000000000000000000600082015250565b7f6c6f636b65640000000000000000000000000000000000000000000000000000600082015250565b611feb81611dfa565b8114611ff657600080fd5b50565b61200281611e0c565b811461200d57600080fd5b50565b61201981611e18565b811461202457600080fd5b50565b61203081611e45565b811461203b57600080fd5b5056fea26469706673582212202181fc73132768c25561d3c6f260f7e89652ec4b67700714fb06a9188897550664736f6c63430008040033a26469706673582212204fcd3ad1f84bb42aae8433046600c910e934682ce01b469568536a93c050296a64736f6c63430008040033608060405234801561001057600080fd5b50604051610bb9380380610bb98339818101604052810190610032919061008e565b80600460006101000a81548173ffffffffffffffffffffffffffffffffffffffff021916908373ffffffffffffffffffffffffffffffffffffffff16021790555050610100565b600081519050610088816100e9565b92915050565b6000602082840312156100a057600080fd5b60006100ae84828501610079565b91505092915050565b60006100c2826100c9565b9050919050565b600073ffffffffffffffffffffffffffffffffffffffff82169050919050565b6100f2816100b7565b81146100fd57600080fd5b50565b610aaa8061010f6000396000f3fe608060405234801561001057600080fd5b50600436106100935760003560e01c80639087783411610066578063908778341461010c57806395e8af151461013c578063978cc8991461016c578063d9211be814610188578063f5676f8f146101a657610093565b80630b1a8f26146100985780630e376dea146100b45780632d2ab40b146100e457806376e92559146100ee575b600080fd5b6100b260048036038101906100ad919061075c565b6101c4565b005b6100ce60048036038101906100c99190610785565b61028a565b6040516100db9190610876565b60405180910390f35b6100ec610354565b005b6100f6610400565b6040516101039190610876565b60405180910390f35b6101266004803603810190610121919061075c565b610406565b6040516101339190610876565b60405180910390f35b61015660048036038101906101519190610720565b61041e565b6040516101639190610876565b60405180910390f35b610186600480360381019061018191906107c1565b610443565b005b6101906106ea565b60405161019d9190610876565b60405180910390f35b6101ae6106f0565b6040516101bb9190610876565b60405180910390f35b600460009054906101000a900473ffffffffffffffffffffffffffffffffffffffff1673ffffffffffffffffffffffffffffffffffffffff163373ffffffffffffffffffffffffffffffffffffffff1614610254576040517f08c379a000000000000000000000000000000000000000000000000000000000815260040161024b90610856565b60405180910390fd5b806001600082825461026691906108a2565b9250508190555060016003600082825461028091906108a2565b9250508190555050565b6000806224ea004261029c91906108f8565b90506000600660008381526020019081526020016000205414156102d057600254846102c891906108f8565b91505061034e565b6006600082815260200190815260200160002054600560008573ffffffffffffffffffffffffffffffffffffffff1673ffffffffffffffffffffffffffffffffffffffff168152602001908152602001600020600083815260200190815260200160002054856103409190610929565b61034a91906108f8565b9150505b92915050565b600460009054906101000a900473ffffffffffffffffffffffffffffffffffffffff1673ffffffffffffffffffffffffffffffffffffffff163373ffffffffffffffffffffffffffffffffffffffff16146103e4576040517f08c379a00000000000000000000000000000000000000000000000000000000081526004016103db90610856565b60405180910390fd5b6001600260008282546103f791906108a2565b92505081905550565b60035481565b60066020528060005260406000206000915090505481565b6005602052816000526040600020602052806000526040600020600091509150505481565b600460009054906101000a900473ffffffffffffffffffffffffffffffffffffffff1673ffffffffffffffffffffffffffffffffffffffff163373ffffffffffffffffffffffffffffffffffffffff16146104d3576040517f08c379a00000000000000000000000000000000000000000000000000000000081526004016104ca90610856565b60405180910390fd5b60006224ea00426104e491906108f8565b90506000600a6002546104f79190610929565b60015461050491906108f8565b83101561052c57600a60025461051a9190610929565b60015461052791906108f8565b61052e565b825b905080600261053d9190610929565b868768056bc75e2d631000006105539190610929565b61055d9190610929565b61056791906108f8565b600560008773ffffffffffffffffffffffffffffffffffffffff1673ffffffffffffffffffffffffffffffffffffffff16815260200190815260200160002060006001856105b591906108a2565b815260200190815260200160002060008282546105d291906108a2565b925050819055508060026105e69190610929565b868768056bc75e2d631000006105fc9190610929565b6106069190610929565b61061091906108f8565b600560008673ffffffffffffffffffffffffffffffffffffffff1673ffffffffffffffffffffffffffffffffffffffff168152602001908152602001600020600060018561065e91906108a2565b8152602001908152602001600020600082825461067b91906108a2565b9250508190555080868768056bc75e2d631000006106999190610929565b6106a39190610929565b6106ad91906108f8565b600660006001856106be91906108a2565b815260200190815260200160002060008282546106db91906108a2565b92505081905550505050505050565b60015481565b60025481565b60008135905061070581610a46565b92915050565b60008135905061071a81610a5d565b92915050565b6000806040838503121561073357600080fd5b6000610741858286016106f6565b92505060206107528582860161070b565b9150509250929050565b60006020828403121561076e57600080fd5b600061077c8482850161070b565b91505092915050565b6000806040838503121561079857600080fd5b60006107a68582860161070b565b92505060206107b7858286016106f6565b9150509250929050565b600080600080608085870312156107d757600080fd5b60006107e58782880161070b565b94505060206107f6878288016106f6565b9350506040610807878288016106f6565b92505060606108188782880161070b565b91505092959194509250565b6000610831600a83610891565b915061083c82610a1d565b602082019050919050565b610850816109b5565b82525050565b6000602082019050818103600083015261086f81610824565b9050919050565b600060208201905061088b6000830184610847565b92915050565b600082825260208201905092915050565b60006108ad826109b5565b91506108b8836109b5565b9250827fffffffffffffffffffffffffffffffffffffffffffffffffffffffffffffffff038211156108ed576108ec6109bf565b5b828201905092915050565b6000610903826109b5565b915061090e836109b5565b92508261091e5761091d6109ee565b5b828204905092915050565b6000610934826109b5565b915061093f836109b5565b9250817fffffffffffffffffffffffffffffffffffffffffffffffffffffffffffffffff0483118215151615610978576109776109bf565b5b828202905092915050565b600061098e82610995565b9050919050565b600073ffffffffffffffffffffffffffffffffffffffff82169050919050565b6000819050919050565b7f4e487b7100000000000000000000000000000000000000000000000000000000600052601160045260246000fd5b7f4e487b7100000000000000000000000000000000000000000000000000000000600052601260045260246000fd5b7f6e6f74206c656164657200000000000000000000000000000000000000000000600082015250565b610a4f81610983565b8114610a5a57600080fd5b50565b610a66816109b5565b8114610a7157600080fd5b5056fea2646970667358221220cb8940abc8a1f285d3af84ae674772fe6ec2869b9b25adbcabe5de9655ca8aa964736f6c63430008040033",
  "linkReferences": {},
  "deployedLinkReferences": {}
}