{
  "_format": "hh-sol-artifact-1",
  "contractName": "Performance",
  "sourceName": "contracts/DaoSystem.sol",
  "abi": [
    {
      "inputs": [
        {
          "internalType": "address",
          "name": "_leader",
          "type": "address"
        }
      ],
      "stateMutability": "nonpayable",
      "type": "constructor"
    },
    {
      "inputs": [
        {
          "internalType": "uint256",
          "name": "_grantAmount",
          "type": "uint256"
        }
      ],
      "name": "addGrant",
      "outputs": [],
      "stateMutability": "nonpayable",
      "type": "function"
    },
    {
      "inputs": [
        {
          "internalType": "uint256",
          "name": "_amount",
          "type": "uint256"
        },
        {
          "internalType": "address",
          "name": "_addedBy",
          "type": "address"
        },
        {
          "internalType": "address",
          "name": "_subDAO",
          "type": "address"
        },
        {
          "internalType": "uint256",
          "name": "_grantAmount",
          "type": "uint256"
        }
      ],
      "name": "addPerformance",
      "outputs": [],
      "stateMutability": "nonpayable",
      "type": "function"
    },
    {
      "inputs": [],
      "name": "addSub",
      "outputs": [],
      "stateMutability": "nonpayable",
      "type": "function"
    },
    {
      "inputs": [
        {
          "internalType": "uint256",
          "name": "_monthlyGrants",
          "type": "uint256"
        },
        {
          "internalType": "address",
          "name": "_subDAO",
          "type": "address"
        }
      ],
      "name": "getPayment",
      "outputs": [
        {
          "internalType": "uint256",
          "name": "",
          "type": "uint256"
        }
      ],
      "stateMutability": "view",
      "type": "function"
    },
    {
      "inputs": [
        {
          "internalType": "address",
          "name": "",
          "type": "address"
        },
        {
          "internalType": "uint256",
          "name": "",
          "type": "uint256"
        }
      ],
      "name": "subPerformance",
      "outputs": [
        {
          "internalType": "uint256",
          "name": "",
          "type": "uint256"
        }
      ],
      "stateMutability": "view",
      "type": "function"
    },
    {
      "inputs": [],
      "name": "totalGrants",
      "outputs": [
        {
          "internalType": "uint256",
          "name": "",
          "type": "uint256"
        }
      ],
      "stateMutability": "view",
      "type": "function"
    },
    {
      "inputs": [],
      "name": "totalMembers",
      "outputs": [
        {
          "internalType": "uint256",
          "name": "",
          "type": "uint256"
        }
      ],
      "stateMutability": "view",
      "type": "function"
    },
    {
      "inputs": [
        {
          "internalType": "uint256",
          "name": "",
          "type": "uint256"
        }
      ],
      "name": "totalPerformance",
      "outputs": [
        {
          "internalType": "uint256",
          "name": "",
          "type": "uint256"
        }
      ],
      "stateMutability": "view",
      "type": "function"
    },
    {
      "inputs": [],
      "name": "totalSubs",
      "outputs": [
        {
          "internalType": "uint256",
          "name": "",
          "type": "uint256"
        }
      ],
      "stateMutability": "view",
      "type": "function"
    }
  ],
  "bytecode": "0x608060405234801561001057600080fd5b50604051610bb9380380610bb98339818101604052810190610032919061008e565b80600460006101000a81548173ffffffffffffffffffffffffffffffffffffffff021916908373ffffffffffffffffffffffffffffffffffffffff16021790555050610100565b600081519050610088816100e9565b92915050565b6000602082840312156100a057600080fd5b60006100ae84828501610079565b91505092915050565b60006100c2826100c9565b9050919050565b600073ffffffffffffffffffffffffffffffffffffffff82169050919050565b6100f2816100b7565b81146100fd57600080fd5b50565b610aaa8061010f6000396000f3fe608060405234801561001057600080fd5b50600436106100935760003560e01c80639087783411610066578063908778341461010c57806395e8af151461013c578063978cc8991461016c578063d9211be814610188578063f5676f8f146101a657610093565b80630b1a8f26146100985780630e376dea146100b45780632d2ab40b146100e457806376e92559146100ee575b600080fd5b6100b260048036038101906100ad919061075c565b6101c4565b005b6100ce60048036038101906100c99190610785565b61028a565b6040516100db9190610876565b60405180910390f35b6100ec610354565b005b6100f6610400565b6040516101039190610876565b60405180910390f35b6101266004803603810190610121919061075c565b610406565b6040516101339190610876565b60405180910390f35b61015660048036038101906101519190610720565b61041e565b6040516101639190610876565b60405180910390f35b610186600480360381019061018191906107c1565b610443565b005b6101906106ea565b60405161019d9190610876565b60405180910390f35b6101ae6106f0565b6040516101bb9190610876565b60405180910390f35b600460009054906101000a900473ffffffffffffffffffffffffffffffffffffffff1673ffffffffffffffffffffffffffffffffffffffff163373ffffffffffffffffffffffffffffffffffffffff1614610254576040517f08c379a000000000000000000000000000000000000000000000000000000000815260040161024b90610856565b60405180910390fd5b806001600082825461026691906108a2565b9250508190555060016003600082825461028091906108a2565b9250508190555050565b6000806224ea004261029c91906108f8565b90506000600660008381526020019081526020016000205414156102d057600254846102c891906108f8565b91505061034e565b6006600082815260200190815260200160002054600560008573ffffffffffffffffffffffffffffffffffffffff1673ffffffffffffffffffffffffffffffffffffffff168152602001908152602001600020600083815260200190815260200160002054856103409190610929565b61034a91906108f8565b9150505b92915050565b600460009054906101000a900473ffffffffffffffffffffffffffffffffffffffff1673ffffffffffffffffffffffffffffffffffffffff163373ffffffffffffffffffffffffffffffffffffffff16146103e4576040517f08c379a00000000000000000000000000000000000000000000000000000000081526004016103db90610856565b60405180910390fd5b6001600260008282546103f791906108a2565b92505081905550565b60035481565b60066020528060005260406000206000915090505481565b6005602052816000526040600020602052806000526040600020600091509150505481565b600460009054906101000a900473ffffffffffffffffffffffffffffffffffffffff1673ffffffffffffffffffffffffffffffffffffffff163373ffffffffffffffffffffffffffffffffffffffff16146104d3576040517f08c379a00000000000000000000000000000000000000000000000000000000081526004016104ca90610856565b60405180910390fd5b60006224ea00426104e491906108f8565b90506000600a6002546104f79190610929565b60015461050491906108f8565b83101561052c57600a60025461051a9190610929565b60015461052791906108f8565b61052e565b825b905080600261053d9190610929565b868768056bc75e2d631000006105539190610929565b61055d9190610929565b61056791906108f8565b600560008773ffffffffffffffffffffffffffffffffffffffff1673ffffffffffffffffffffffffffffffffffffffff16815260200190815260200160002060006001856105b591906108a2565b815260200190815260200160002060008282546105d291906108a2565b925050819055508060026105e69190610929565b868768056bc75e2d631000006105fc9190610929565b6106069190610929565b61061091906108f8565b600560008673ffffffffffffffffffffffffffffffffffffffff1673ffffffffffffffffffffffffffffffffffffffff168152602001908152602001600020600060018561065e91906108a2565b8152602001908152602001600020600082825461067b91906108a2565b9250508190555080868768056bc75e2d631000006106999190610929565b6106a39190610929565b6106ad91906108f8565b600660006001856106be91906108a2565b815260200190815260200160002060008282546106db91906108a2565b92505081905550505050505050565b60015481565b60025481565b60008135905061070581610a46565b92915050565b60008135905061071a81610a5d565b92915050565b6000806040838503121561073357600080fd5b6000610741858286016106f6565b92505060206107528582860161070b565b9150509250929050565b60006020828403121561076e57600080fd5b600061077c8482850161070b565b91505092915050565b6000806040838503121561079857600080fd5b60006107a68582860161070b565b92505060206107b7858286016106f6565b9150509250929050565b600080600080608085870312156107d757600080fd5b60006107e58782880161070b565b94505060206107f6878288016106f6565b9350506040610807878288016106f6565b92505060606108188782880161070b565b91505092959194509250565b6000610831600a83610891565b915061083c82610a1d565b602082019050919050565b610850816109b5565b82525050565b6000602082019050818103600083015261086f81610824565b9050919050565b600060208201905061088b6000830184610847565b92915050565b600082825260208201905092915050565b60006108ad826109b5565b91506108b8836109b5565b9250827fffffffffffffffffffffffffffffffffffffffffffffffffffffffffffffffff038211156108ed576108ec6109bf565b5b828201905092915050565b6000610903826109b5565b915061090e836109b5565b92508261091e5761091d6109ee565b5b828204905092915050565b6000610934826109b5565b915061093f836109b5565b9250817fffffffffffffffffffffffffffffffffffffffffffffffffffffffffffffffff0483118215151615610978576109776109bf565b5b828202905092915050565b600061098e82610995565b9050919050565b600073ffffffffffffffffffffffffffffffffffffffff82169050919050565b6000819050919050565b7f4e487b7100000000000000000000000000000000000000000000000000000000600052601160045260246000fd5b7f4e487b7100000000000000000000000000000000000000000000000000000000600052601260045260246000fd5b7f6e6f74206c656164657200000000000000000000000000000000000000000000600082015250565b610a4f81610983565b8114610a5a57600080fd5b50565b610a66816109b5565b8114610a7157600080fd5b5056fea2646970667358221220cb8940abc8a1f285d3af84ae674772fe6ec2869b9b25adbcabe5de9655ca8aa964736f6c63430008040033",
  "linkReferences": {},
  "deployedLinkReferences": {}
}