{
  "_format": "hh-sol-artifact-1",
  "contractName": "SubDAO",
  "sourceName": "contracts/DaoSystem.sol",
  "abi": [
    {
      "inputs": [
        {
          "internalType": "address",
          "name": "_leaderAddress",
          "type": "address"
        },
        {
          "internalType": "address",
          "name": "_voting",
          "type": "address"
        },
        {
          "internalType": "address",
          "name": "_member",
          "type": "address"
        },
        {
          "internalType": "uint256",
          "name": "_grantAmount",
          "type": "uint256"
        }
      ],
      "stateMutability": "nonpayable",
      "type": "constructor"
    },
    {
      "anonymous": false,
      "inputs": [
        {
          "indexed": true,
          "internalType": "address",
          "name": "_newMember",
          "type": "address"
        },
        {
          "indexed": true,
          "internalType": "address",
          "name": "_addedBy",
          "type": "address"
        },
        {
          "indexed": false,
          "internalType": "uint256",
          "name": "_grantAmount",
          "type": "uint256"
        },
        {
          "indexed": false,
          "internalType": "uint256",
          "name": "_time",
          "type": "uint256"
        }
      ],
      "name": "MemberAdded",
      "type": "event"
    },
    {
      "anonymous": false,
      "inputs": [
        {
          "indexed": true,
          "internalType": "address",
          "name": "_member",
          "type": "address"
        },
        {
          "indexed": false,
          "internalType": "uint256",
          "name": "_time",
          "type": "uint256"
        }
      ],
      "name": "MemberRemoved",
      "type": "event"
    },
    {
      "inputs": [
        {
          "internalType": "uint256",
          "name": "_payment",
          "type": "uint256"
        }
      ],
      "name": "addBalance",
      "outputs": [],
      "stateMutability": "nonpayable",
      "type": "function"
    },
    {
      "inputs": [
        {
          "internalType": "address",
          "name": "_candidate",
          "type": "address"
        },
        {
          "internalType": "uint256",
          "name": "_grantAmount",
          "type": "uint256"
        }
      ],
      "name": "createVote",
      "outputs": [],
      "stateMutability": "nonpayable",
      "type": "function"
    },
    {
      "inputs": [],
      "name": "effectiveBalance",
      "outputs": [
        {
          "internalType": "uint256",
          "name": "",
          "type": "uint256"
        }
      ],
      "stateMutability": "view",
      "type": "function"
    },
    {
      "inputs": [
        {
          "internalType": "address",
          "name": "_candidate",
          "type": "address"
        }
      ],
      "name": "finishVote",
      "outputs": [],
      "stateMutability": "nonpayable",
      "type": "function"
    },
    {
      "inputs": [
        {
          "internalType": "uint256",
          "name": "",
          "type": "uint256"
        }
      ],
      "name": "members",
      "outputs": [
        {
          "internalType": "address",
          "name": "",
          "type": "address"
        }
      ],
      "stateMutability": "view",
      "type": "function"
    },
    {
      "inputs": [],
      "name": "numberOfMembers",
      "outputs": [
        {
          "internalType": "uint8",
          "name": "",
          "type": "uint8"
        }
      ],
      "stateMutability": "view",
      "type": "function"
    },
    {
      "inputs": [
        {
          "internalType": "address",
          "name": "_candidate",
          "type": "address"
        },
        {
          "internalType": "uint256",
          "name": "_grant",
          "type": "uint256"
        }
      ],
      "name": "passVote",
      "outputs": [],
      "stateMutability": "nonpayable",
      "type": "function"
    },
    {
      "inputs": [],
      "name": "payMembers",
      "outputs": [],
      "stateMutability": "nonpayable",
      "type": "function"
    },
    {
      "inputs": [
        {
          "internalType": "address",
          "name": "",
          "type": "address"
        }
      ],
      "name": "subMembers",
      "outputs": [
        {
          "internalType": "int8",
          "name": "active",
          "type": "int8"
        },
        {
          "internalType": "uint256",
          "name": "grantAmount",
          "type": "uint256"
        },
        {
          "internalType": "uint256",
          "name": "nextSuggestion",
          "type": "uint256"
        },
        {
          "internalType": "uint256",
          "name": "releaseTime",
          "type": "uint256"
        }
      ],
      "stateMutability": "view",
      "type": "function"
    },
    {
      "inputs": [
        {
          "internalType": "address",
          "name": "_candidate",
          "type": "address"
        },
        {
          "internalType": "int8",
          "name": "_vote",
          "type": "int8"
        }
      ],
      "name": "vote",
      "outputs": [],
      "stateMutability": "nonpayable",
      "type": "function"
    },
    {
      "inputs": [],
      "name": "withdrawGrant",
      "outputs": [],
      "stateMutability": "nonpayable",
      "type": "function"
    }
  ],
  "bytecode": "0x60806040523480156200001157600080fd5b5060405162002518380380620025188339818101604052810190620000379190620002c3565b60008060006101000a81548160ff0219169083151502179055506001600460006224ea00426200006891906200038c565b815260200190815260200160002060006101000a81548160ff02191690831515021790555083600360006101000a81548173ffffffffffffffffffffffffffffffffffffffff021916908373ffffffffffffffffffffffffffffffffffffffff16021790555082600660006101000a81548173ffffffffffffffffffffffffffffffffffffffff021916908373ffffffffffffffffffffffffffffffffffffffff1602179055506002829080600181540180825580915050600190039060005260206000200160009091909190916101000a81548173ffffffffffffffffffffffffffffffffffffffff021916908373ffffffffffffffffffffffffffffffffffffffff1602179055506001600060016101000a81548160ff021916908360ff1602179055506009600560008473ffffffffffffffffffffffffffffffffffffffff1673ffffffffffffffffffffffffffffffffffffffff16815260200190815260200160002060000160006101000a81548160ff021916908360000b60ff16021790555080600560008473ffffffffffffffffffffffffffffffffffffffff1673ffffffffffffffffffffffffffffffffffffffff1681526020019081526020016000206001018190555062eff100426200024591906200032f565b600560008473ffffffffffffffffffffffffffffffffffffffff1673ffffffffffffffffffffffffffffffffffffffff168152602001908152602001600020600301819055505050505062000494565b600081519050620002a68162000460565b92915050565b600081519050620002bd816200047a565b92915050565b60008060008060808587031215620002da57600080fd5b6000620002ea8782880162000295565b9450506020620002fd8782880162000295565b9350506040620003108782880162000295565b92505060606200032387828801620002ac565b91505092959194509250565b60006200033c82620003f8565b91506200034983620003f8565b9250827fffffffffffffffffffffffffffffffffffffffffffffffffffffffffffffffff0382111562000381576200038062000402565b5b828201905092915050565b60006200039982620003f8565b9150620003a683620003f8565b925082620003b957620003b862000431565b5b828204905092915050565b6000620003d182620003d8565b9050919050565b600073ffffffffffffffffffffffffffffffffffffffff82169050919050565b6000819050919050565b7f4e487b7100000000000000000000000000000000000000000000000000000000600052601160045260246000fd5b7f4e487b7100000000000000000000000000000000000000000000000000000000600052601260045260246000fd5b6200046b81620003c4565b81146200047757600080fd5b50565b6200048581620003f8565b81146200049157600080fd5b50565b61207480620004a46000396000f3fe608060405234801561001057600080fd5b50600436106100a95760003560e01c8063a30e3fa911610071578063a30e3fa91461013c578063b12d96f71461015a578063b975fbe314610176578063d287d349146101a9578063d91921ed146101c7578063e7d06ca0146101e3576100a9565b80635daf08ca146100ae57806382403164146100de57806394d96c31146100fa578063992dbf75146101165780639d88c9f314610120575b600080fd5b6100c860048036038101906100c391906117ce565b6101ed565b6040516100d591906118f1565b60405180910390f35b6100f860048036038101906100f3919061172d565b61022c565b005b610114600480360381019061010f9190611769565b61042c565b005b61011e6107be565b005b61013a60048036038101906101359190611704565b610a4f565b005b610144611019565b6040516101519190611b64565b60405180910390f35b610174600480360381019061016f9190611769565b61102c565b005b610190600480360381019061018b9190611704565b611268565b6040516101a09493929190611a3b565b60405180910390f35b6101b16112a5565b6040516101be9190611b20565b60405180910390f35b6101e160048036038101906101dc91906117ce565b6112ab565b005b6101eb611379565b005b600281815481106101fd57600080fd5b906000526020600020016000915054906101000a900473ffffffffffffffffffffffffffffffffffffffff1681565b6000600560003373ffffffffffffffffffffffffffffffffffffffff1673ffffffffffffffffffffffffffffffffffffffff16815260200190815260200160002060000160009054906101000a900460000b60000b136102c1576040517f08c379a00000000000000000000000000000000000000000000000000000000081526004016102b890611a80565b60405180910390fd5b6015600560003373ffffffffffffffffffffffffffffffffffffffff1673ffffffffffffffffffffffffffffffffffffffff16815260200190815260200160002060000160009054906101000a900460000b60000b1215610397576003600560003373ffffffffffffffffffffffffffffffffffffffff1673ffffffffffffffffffffffffffffffffffffffff16815260200190815260200160002060000160008282829054906101000a900460000b61037b9190611b90565b92506101000a81548160ff021916908360000b60ff1602179055505b600660009054906101000a900473ffffffffffffffffffffffffffffffffffffffff1673ffffffffffffffffffffffffffffffffffffffff1663f6847f728333846040518463ffffffff1660e01b81526004016103f69392919061190c565b600060405180830381600087803b15801561041057600080fd5b505af1158015610424573d6000803e3d6000fd5b505050505050565b600660009054906101000a900473ffffffffffffffffffffffffffffffffffffffff1673ffffffffffffffffffffffffffffffffffffffff163373ffffffffffffffffffffffffffffffffffffffff161461048657600080fd5b60076002805490501015610728576002829080600181540180825580915050600190039060005260206000200160009091909190916101000a81548173ffffffffffffffffffffffffffffffffffffffff021916908373ffffffffffffffffffffffffffffffffffffffff1602179055506001600060018282829054906101000a900460ff166105169190611c5b565b92506101000a81548160ff021916908360ff1602179055506009600560008473ffffffffffffffffffffffffffffffffffffffff1673ffffffffffffffffffffffffffffffffffffffff16815260200190815260200160002060000160006101000a81548160ff021916908360000b60ff16021790555080600560008473ffffffffffffffffffffffffffffffffffffffff1673ffffffffffffffffffffffffffffffffffffffff1681526020019081526020016000206001018190555062eff100426105e39190611c05565b600560008473ffffffffffffffffffffffffffffffffffffffff1673ffffffffffffffffffffffffffffffffffffffff16815260200190815260200160002060030181905550600360009054906101000a900473ffffffffffffffffffffffffffffffffffffffff1673ffffffffffffffffffffffffffffffffffffffff1663a31b6756838330306040518563ffffffff1660e01b815260040161068a94939291906119a3565b600060405180830381600087803b1580156106a457600080fd5b505af11580156106b8573d6000803e3d6000fd5b505050503073ffffffffffffffffffffffffffffffffffffffff168273ffffffffffffffffffffffffffffffffffffffff167fb79e7b77d2cfadec6aea91b7599734956f63aa9b27684319a1362c0ac48ded8a834260405161071b929190611b3b565b60405180910390a36107ba565b600360009054906101000a900473ffffffffffffffffffffffffffffffffffffffff1673ffffffffffffffffffffffffffffffffffffffff166396c8f9178383306040518463ffffffff1660e01b81526004016107879392919061196c565b600060405180830381600087803b1580156107a157600080fd5b505af11580156107b5573d6000803e3d6000fd5b505050505b5050565b60008054906101000a900460ff16156107d657600080fd5b60016000806101000a81548160ff021916908315150217905550600560003373ffffffffffffffffffffffffffffffffffffffff1673ffffffffffffffffffffffffffffffffffffffff168152602001908152602001600020600301544211610874576040517f08c379a000000000000000000000000000000000000000000000000000000000815260040161086b90611b00565b60405180910390fd5b6000600560003373ffffffffffffffffffffffffffffffffffffffff1673ffffffffffffffffffffffffffffffffffffffff16815260200190815260200160002060010154116108f9576040517f08c379a00000000000000000000000000000000000000000000000000000000081526004016108f090611aa0565b60405180910390fd5b600360009054906101000a900473ffffffffffffffffffffffffffffffffffffffff1673ffffffffffffffffffffffffffffffffffffffff1663a9059cbb33600560003373ffffffffffffffffffffffffffffffffffffffff1673ffffffffffffffffffffffffffffffffffffffff168152602001908152602001600020600101546040518363ffffffff1660e01b8152600401610998929190611943565b602060405180830381600087803b1580156109b257600080fd5b505af11580156109c6573d6000803e3d6000fd5b505050506040513d601f19601f820116820180604052508101906109ea91906117a5565b506000600560003373ffffffffffffffffffffffffffffffffffffffff1673ffffffffffffffffffffffffffffffffffffffff1681526020019081526020016000206001018190555060008060006101000a81548160ff021916908315150217905550565b6000600560003373ffffffffffffffffffffffffffffffffffffffff1673ffffffffffffffffffffffffffffffffffffffff16815260200190815260200160002060000160009054906101000a900460000b60000b13610ae4576040517f08c379a0000000000000000000000000000000000000000000000000000000008152600401610adb90611a80565b60405180910390fd5b60005b600280549050811015610f885760026005600060028481548110610b34577f4e487b7100000000000000000000000000000000000000000000000000000000600052603260045260246000fd5b9060005260206000200160009054906101000a900473ffffffffffffffffffffffffffffffffffffffff1673ffffffffffffffffffffffffffffffffffffffff1673ffffffffffffffffffffffffffffffffffffffff16815260200190815260200160002060000160008282829054906101000a900460000b610bb79190611d1d565b92506101000a81548160ff021916908360000b60ff16021790555060016005600060028481548110610c12577f4e487b7100000000000000000000000000000000000000000000000000000000600052603260045260246000fd5b9060005260206000200160009054906101000a900473ffffffffffffffffffffffffffffffffffffffff1673ffffffffffffffffffffffffffffffffffffffff1673ffffffffffffffffffffffffffffffffffffffff16815260200190815260200160002060000160009054906101000a900460000b60000b1215610f755760028181548110610ccb577f4e487b7100000000000000000000000000000000000000000000000000000000600052603260045260246000fd5b9060005260206000200160006101000a81549073ffffffffffffffffffffffffffffffffffffffff021916905560008190505b6001600280549050610d109190611d92565b811015610e1d576002600182610d269190611c05565b81548110610d5d577f4e487b7100000000000000000000000000000000000000000000000000000000600052603260045260246000fd5b9060005260206000200160009054906101000a900473ffffffffffffffffffffffffffffffffffffffff1660028281548110610dc2577f4e487b7100000000000000000000000000000000000000000000000000000000600052603260045260246000fd5b9060005260206000200160006101000a81548173ffffffffffffffffffffffffffffffffffffffff021916908373ffffffffffffffffffffffffffffffffffffffff1602179055508080610e1590611e6e565b915050610cfe565b506002805480610e56577f4e487b7100000000000000000000000000000000000000000000000000000000600052603160045260246000fd5b6001900381819060005260206000200160006101000a81549073ffffffffffffffffffffffffffffffffffffffff021916905590556001600060018282829054906101000a900460ff16610eaa9190611dc6565b92506101000a81548160ff021916908360ff16021790555060028181548110610efc577f4e487b7100000000000000000000000000000000000000000000000000000000600052603260045260246000fd5b9060005260206000200160009054906101000a900473ffffffffffffffffffffffffffffffffffffffff1673ffffffffffffffffffffffffffffffffffffffff167f3ac963493df564de734d98633f1145d21512e282ba4c02d3c1011119bf7f286242604051610f6c9190611b20565b60405180910390a25b8080610f8090611e6e565b915050610ae7565b50600660009054906101000a900473ffffffffffffffffffffffffffffffffffffffff1673ffffffffffffffffffffffffffffffffffffffff16639d88c9f3826040518263ffffffff1660e01b8152600401610fe491906118f1565b600060405180830381600087803b158015610ffe57600080fd5b505af1158015611012573d6000803e3d6000fd5b5050505050565b600060019054906101000a900460ff1681565b6000600560003373ffffffffffffffffffffffffffffffffffffffff1673ffffffffffffffffffffffffffffffffffffffff16815260200190815260200160002060000160009054906101000a900460000b60000b136110c1576040517f08c379a00000000000000000000000000000000000000000000000000000000081526004016110b890611a80565b60405180910390fd5b600560003373ffffffffffffffffffffffffffffffffffffffff1673ffffffffffffffffffffffffffffffffffffffff168152602001908152602001600020600201544211611145576040517f08c379a000000000000000000000000000000000000000000000000000000000815260040161113c90611ae0565b60405180910390fd5b600660009054906101000a900473ffffffffffffffffffffffffffffffffffffffff1673ffffffffffffffffffffffffffffffffffffffff1663597ff7bf838333600060019054906101000a900460ff166001546040518663ffffffff1660e01b81526004016111b99594939291906119e8565b600060405180830381600087803b1580156111d357600080fd5b505af11580156111e7573d6000803e3d6000fd5b505050506111f682600161022c565b80600160008282546112089190611d92565b92505081905550621275004261121e9190611c05565b600560003373ffffffffffffffffffffffffffffffffffffffff1673ffffffffffffffffffffffffffffffffffffffff168152602001908152602001600020600201819055505050565b60056020528060005260406000206000915090508060000160009054906101000a900460000b908060010154908060020154908060030154905084565b60015481565b600360009054906101000a900473ffffffffffffffffffffffffffffffffffffffff1673ffffffffffffffffffffffffffffffffffffffff163373ffffffffffffffffffffffffffffffffffffffff1614806113545750600660009054906101000a900473ffffffffffffffffffffffffffffffffffffffff1673ffffffffffffffffffffffffffffffffffffffff163373ffffffffffffffffffffffffffffffffffffffff16145b61135d57600080fd5b806001600082825461136f9190611c05565b9250508190555050565b6000600560003373ffffffffffffffffffffffffffffffffffffffff1673ffffffffffffffffffffffffffffffffffffffff16815260200190815260200160002060000160009054906101000a900460000b60000b1361140e576040517f08c379a000000000000000000000000000000000000000000000000000000000815260040161140590611a80565b60405180910390fd5b60006224ea004261141f9190611c92565b90506004600082815260200190815260200160002060009054906101000a900460ff1615611482576040517f08c379a000000000000000000000000000000000000000000000000000000000815260040161147990611ac0565b60405180910390fd5b60016004600083815260200190815260200160002060006101000a81548160ff021916908315150217905550600360009054906101000a900473ffffffffffffffffffffffffffffffffffffffff1673ffffffffffffffffffffffffffffffffffffffff166343f9932e6040518163ffffffff1660e01b8152600401600060405180830381600087803b15801561151857600080fd5b505af115801561152c573d6000803e3d6000fd5b5050505060005b60028054905081101561167557600360009054906101000a900473ffffffffffffffffffffffffffffffffffffffff1673ffffffffffffffffffffffffffffffffffffffff1663a9059cbb600283815481106115b8577f4e487b7100000000000000000000000000000000000000000000000000000000600052603260045260246000fd5b9060005260206000200160009054906101000a900473ffffffffffffffffffffffffffffffffffffffff1660646001546115f29190611c92565b6040518363ffffffff1660e01b815260040161160f929190611943565b602060405180830381600087803b15801561162957600080fd5b505af115801561163d573d6000803e3d6000fd5b505050506040513d601f19601f8201168201806040525081019061166191906117a5565b50808061166d90611e6e565b915050611533565b50606460015460028054905061168b9190611cc3565b6116959190611c92565b600160008282546116a69190611d92565b9250508190555050565b6000813590506116bf81611fe2565b92915050565b6000815190506116d481611ff9565b92915050565b6000813590506116e981612010565b92915050565b6000813590506116fe81612027565b92915050565b60006020828403121561171657600080fd5b6000611724848285016116b0565b91505092915050565b6000806040838503121561174057600080fd5b600061174e858286016116b0565b925050602061175f858286016116da565b9150509250929050565b6000806040838503121561177c57600080fd5b600061178a858286016116b0565b925050602061179b858286016116ef565b9150509250929050565b6000602082840312156117b757600080fd5b60006117c5848285016116c5565b91505092915050565b6000602082840312156117e057600080fd5b60006117ee848285016116ef565b91505092915050565b61180081611dfa565b82525050565b61180f81611e18565b82525050565b6000611822601183611b7f565b915061182d82611f15565b602082019050919050565b6000611845600883611b7f565b915061185082611f3e565b602082019050919050565b6000611868600483611b7f565b915061187382611f67565b602082019050919050565b600061188b600483611b7f565b915061189682611f90565b602082019050919050565b60006118ae600683611b7f565b91506118b982611fb9565b602082019050919050565b6118cd81611e45565b82525050565b6118dc81611e5c565b82525050565b6118eb81611e4f565b82525050565b600060208201905061190660008301846117f7565b92915050565b600060608201905061192160008301866117f7565b61192e60208301856117f7565b61193b6040830184611806565b949350505050565b600060408201905061195860008301856117f7565b61196560208301846118c4565b9392505050565b600060608201905061198160008301866117f7565b61198e60208301856118c4565b61199b60408301846117f7565b949350505050565b60006080820190506119b860008301876117f7565b6119c560208301866118c4565b6119d260408301856117f7565b6119df60608301846117f7565b95945050505050565b600060a0820190506119fd60008301886117f7565b611a0a60208301876118c4565b611a1760408301866117f7565b611a2460608301856118d3565b611a3160808301846118c4565b9695505050505050565b6000608082019050611a506000830187611806565b611a5d60208301866118c4565b611a6a60408301856118c4565b611a7760608301846118c4565b95945050505050565b60006020820190508181036000830152611a9981611815565b9050919050565b60006020820190508181036000830152611ab981611838565b9050919050565b60006020820190508181036000830152611ad98161185b565b9050919050565b60006020820190508181036000830152611af98161187e565b9050919050565b60006020820190508181036000830152611b19816118a1565b9050919050565b6000602082019050611b3560008301846118c4565b92915050565b6000604082019050611b5060008301856118c4565b611b5d60208301846118c4565b9392505050565b6000602082019050611b7960008301846118e2565b92915050565b600082825260208201905092915050565b6000611b9b82611e18565b9150611ba683611e18565b925081607f03831360008312151615611bc257611bc1611eb7565b5b817fffffffffffffffffffffffffffffffffffffffffffffffffffffffffffffff80038312600083121615611bfa57611bf9611eb7565b5b828201905092915050565b6000611c1082611e45565b9150611c1b83611e45565b9250827fffffffffffffffffffffffffffffffffffffffffffffffffffffffffffffffff03821115611c5057611c4f611eb7565b5b828201905092915050565b6000611c6682611e4f565b9150611c7183611e4f565b92508260ff03821115611c8757611c86611eb7565b5b828201905092915050565b6000611c9d82611e45565b9150611ca883611e45565b925082611cb857611cb7611ee6565b5b828204905092915050565b6000611cce82611e45565b9150611cd983611e45565b9250817fffffffffffffffffffffffffffffffffffffffffffffffffffffffffffffffff0483118215151615611d1257611d11611eb7565b5b828202905092915050565b6000611d2882611e18565b9150611d3383611e18565b9250827fffffffffffffffffffffffffffffffffffffffffffffffffffffffffffffff8001821260008412151615611d6e57611d6d611eb7565b5b82607f018213600084121615611d8757611d86611eb7565b5b828203905092915050565b6000611d9d82611e45565b9150611da883611e45565b925082821015611dbb57611dba611eb7565b5b828203905092915050565b6000611dd182611e4f565b9150611ddc83611e4f565b925082821015611def57611dee611eb7565b5b828203905092915050565b6000611e0582611e25565b9050919050565b60008115159050919050565b60008160000b9050919050565b600073ffffffffffffffffffffffffffffffffffffffff82169050919050565b6000819050919050565b600060ff82169050919050565b6000611e6782611e4f565b9050919050565b6000611e7982611e45565b91507fffffffffffffffffffffffffffffffffffffffffffffffffffffffffffffffff821415611eac57611eab611eb7565b5b600182019050919050565b7f4e487b7100000000000000000000000000000000000000000000000000000000600052601160045260246000fd5b7f4e487b7100000000000000000000000000000000000000000000000000000000600052601260045260246000fd5b7f6e6f7420616374697665206d656d626572000000000000000000000000000000600082015250565b7f6e6f206772616e74000000000000000000000000000000000000000000000000600082015250565b7f7061696400000000000000000000000000000000000000000000000000000000600082015250565b7f7761697400000000000000000000000000000000000000000000000000000000600082015250565b7f6c6f636b65640000000000000000000000000000000000000000000000000000600082015250565b611feb81611dfa565b8114611ff657600080fd5b50565b61200281611e0c565b811461200d57600080fd5b50565b61201981611e18565b811461202457600080fd5b50565b61203081611e45565b811461203b57600080fd5b5056fea26469706673582212202181fc73132768c25561d3c6f260f7e89652ec4b67700714fb06a9188897550664736f6c63430008040033",
  "linkReferences": {},
  "deployedLinkReferences": {}
}