{
  "_format": "hh-sol-artifact-1",
  "contractName": "Voting",
  "sourceName": "contracts/DaoSystem.sol",
  "abi": [
    {
      "inputs": [
        {
          "internalType": "address",
          "name": "_leader",
          "type": "address"
        }
      ],
      "stateMutability": "nonpayable",
      "type": "constructor"
    },
    {
      "anonymous": false,
      "inputs": [
        {
          "indexed": true,
          "internalType": "address",
          "name": "_candidate",
          "type": "address"
        },
        {
          "indexed": true,
          "internalType": "bool",
          "name": "_accepted",
          "type": "bool"
        },
        {
          "indexed": false,
          "internalType": "uint256",
          "name": "_time",
          "type": "uint256"
        }
      ],
      "name": "VoteCompleted",
      "type": "event"
    },
    {
      "anonymous": false,
      "inputs": [
        {
          "indexed": true,
          "internalType": "address",
          "name": "_suggestedBy",
          "type": "address"
        },
        {
          "indexed": true,
          "internalType": "address",
          "name": "_candidate",
          "type": "address"
        },
        {
          "indexed": false,
          "internalType": "uint256",
          "name": "_time",
          "type": "uint256"
        }
      ],
      "name": "VoteCreated",
      "type": "event"
    },
    {
      "anonymous": false,
      "inputs": [
        {
          "indexed": true,
          "internalType": "address",
          "name": "_member",
          "type": "address"
        },
        {
          "indexed": true,
          "internalType": "address",
          "name": "_candidate",
          "type": "address"
        },
        {
          "indexed": false,
          "internalType": "int8",
          "name": "_vote",
          "type": "int8"
        },
        {
          "indexed": false,
          "internalType": "uint256",
          "name": "_time",
          "type": "uint256"
        }
      ],
      "name": "Voted",
      "type": "event"
    },
    {
      "inputs": [],
      "name": "accept",
      "outputs": [],
      "stateMutability": "nonpayable",
      "type": "function"
    },
    {
      "inputs": [
        {
          "internalType": "address",
          "name": "",
          "type": "address"
        }
      ],
      "name": "candidates",
      "outputs": [
        {
          "internalType": "bool",
          "name": "open",
          "type": "bool"
        },
        {
          "internalType": "bool",
          "name": "accepted",
          "type": "bool"
        },
        {
          "internalType": "int8",
          "name": "votes",
          "type": "int8"
        },
        {
          "internalType": "uint256",
          "name": "creationTime",
          "type": "uint256"
        },
        {
          "internalType": "uint256",
          "name": "grantAmount",
          "type": "uint256"
        },
        {
          "internalType": "address",
          "name": "subDAO",
          "type": "address"
        }
      ],
      "stateMutability": "view",
      "type": "function"
    },
    {
      "inputs": [
        {
          "internalType": "address",
          "name": "_candidate",
          "type": "address"
        },
        {
          "internalType": "uint256",
          "name": "_grantAmount",
          "type": "uint256"
        },
        {
          "internalType": "address",
          "name": "_suggestedBy",
          "type": "address"
        },
        {
          "internalType": "uint256",
          "name": "_numberOfMembers",
          "type": "uint256"
        },
        {
          "internalType": "uint256",
          "name": "_effectiveBalance",
          "type": "uint256"
        }
      ],
      "name": "createVote",
      "outputs": [],
      "stateMutability": "nonpayable",
      "type": "function"
    },
    {
      "inputs": [
        {
          "internalType": "address",
          "name": "_candidate",
          "type": "address"
        }
      ],
      "name": "finishVote",
      "outputs": [],
      "stateMutability": "nonpayable",
      "type": "function"
    },
    {
      "inputs": [
        {
          "internalType": "address",
          "name": "_subDAO",
          "type": "address"
        }
      ],
      "name": "opens",
      "outputs": [
        {
          "internalType": "address[]",
          "name": "",
          "type": "address[]"
        }
      ],
      "stateMutability": "view",
      "type": "function"
    },
    {
      "inputs": [
        {
          "internalType": "address",
          "name": "_candidate",
          "type": "address"
        },
        {
          "internalType": "address",
          "name": "_voter",
          "type": "address"
        },
        {
          "internalType": "int8",
          "name": "_vote",
          "type": "int8"
        }
      ],
      "name": "vote",
      "outputs": [],
      "stateMutability": "nonpayable",
      "type": "function"
    }
  ],
  "bytecode": "0x60806040523480156200001157600080fd5b506040516200275938038062002759833981810160405281019062000037919062000096565b80600260006101000a81548173ffffffffffffffffffffffffffffffffffffffff021916908373ffffffffffffffffffffffffffffffffffffffff1602179055505062000110565b6000815190506200009081620000f6565b92915050565b600060208284031215620000a957600080fd5b6000620000b9848285016200007f565b91505092915050565b6000620000cf82620000d6565b9050919050565b600073ffffffffffffffffffffffffffffffffffffffff82169050919050565b6200010181620000c2565b81146200010d57600080fd5b50565b61263980620001206000396000f3fe608060405234801561001057600080fd5b50600436106100625760003560e01c80632852b71c14610067578063444d618d14610071578063597ff7bf146100a15780638ab66a90146100bd5780639d88c9f3146100f2578063f6847f721461010e575b600080fd5b61006f61012a565b005b61008b60048036038101906100869190611aba565b61021b565b6040516100989190611ea4565b60405180910390f35b6100bb60048036038101906100b69190611b5b565b6102e8565b005b6100d760048036038101906100d29190611aba565b610b0a565b6040516100e996959493929190611ec6565b60405180910390f35b61010c60048036038101906101079190611aba565b610b8d565b005b61012860048036038101906101239190611b0c565b61160f565b005b600115156000803373ffffffffffffffffffffffffffffffffffffffff1673ffffffffffffffffffffffffffffffffffffffff16815260200190815260200160002060000160009054906101000a900460ff161515146101bf576040517f08c379a00000000000000000000000000000000000000000000000000000000081526004016101b690611ff0565b60405180910390fd5b60016000803373ffffffffffffffffffffffffffffffffffffffff1673ffffffffffffffffffffffffffffffffffffffff16815260200190815260200160002060000160016101000a81548160ff021916908315150217905550565b6060600160008373ffffffffffffffffffffffffffffffffffffffff1673ffffffffffffffffffffffffffffffffffffffff1681526020019081526020016000208054806020026020016040519081016040528092919081815260200182805480156102dc57602002820191906000526020600020905b8160009054906101000a900473ffffffffffffffffffffffffffffffffffffffff1673ffffffffffffffffffffffffffffffffffffffff1681526020019060010190808311610292575b50505050509050919050565b600260009054906101000a900473ffffffffffffffffffffffffffffffffffffffff1673ffffffffffffffffffffffffffffffffffffffff1663c3a3aae4336040518263ffffffff1660e01b81526004016103439190611e60565b60206040518083038186803b15801561035b57600080fd5b505afa15801561036f573d6000803e3d6000fd5b505050506040513d601f19601f820116820180604052508101906103939190611bd2565b6103d2576040517f08c379a00000000000000000000000000000000000000000000000000000000081526004016103c990611f50565b60405180910390fd5b8360646005836103e29190612231565b6103ec9190612200565b1061042c576040517f08c379a000000000000000000000000000000000000000000000000000000000815260040161042390611f90565b60405180910390fd5b81600160003373ffffffffffffffffffffffffffffffffffffffff1673ffffffffffffffffffffffffffffffffffffffff16815260200190815260200160002080549050106104b0576040517f08c379a00000000000000000000000000000000000000000000000000000000081526004016104a790612010565b60405180910390fd5b600160003373ffffffffffffffffffffffffffffffffffffffff1673ffffffffffffffffffffffffffffffffffffffff16815260200190815260200160002080549050826104fe919061228b565b816105099190612200565b84111561054b576040517f08c379a0000000000000000000000000000000000000000000000000000000008152600401610542906120b0565b60405180910390fd5b600260009054906101000a900473ffffffffffffffffffffffffffffffffffffffff1673ffffffffffffffffffffffffffffffffffffffff168573ffffffffffffffffffffffffffffffffffffffff1614156105dc576040517f08c379a00000000000000000000000000000000000000000000000000000000081526004016105d390612070565b60405180910390fd5b600260009054906101000a900473ffffffffffffffffffffffffffffffffffffffff1673ffffffffffffffffffffffffffffffffffffffff1663c3a3aae4866040518263ffffffff1660e01b81526004016106379190611e60565b60206040518083038186803b15801561064f57600080fd5b505afa158015610663573d6000803e3d6000fd5b505050506040513d601f19601f820116820180604052508101906106879190611bd2565b156106c7576040517f08c379a00000000000000000000000000000000000000000000000000000000081526004016106be90611fb0565b60405180910390fd5b600073ffffffffffffffffffffffffffffffffffffffff16600260009054906101000a900473ffffffffffffffffffffffffffffffffffffffff1673ffffffffffffffffffffffffffffffffffffffff166339d284d6876040518263ffffffff1660e01b815260040161073a9190611e60565b60206040518083038186803b15801561075257600080fd5b505afa158015610766573d6000803e3d6000fd5b505050506040513d601f19601f8201168201806040525081019061078a9190611ae3565b73ffffffffffffffffffffffffffffffffffffffff16146107e0576040517f08c379a00000000000000000000000000000000000000000000000000000000081526004016107d790611f70565b60405180910390fd5b60016000808773ffffffffffffffffffffffffffffffffffffffff1673ffffffffffffffffffffffffffffffffffffffff16815260200190815260200160002060000160006101000a81548160ff02191690831515021790555060008060008773ffffffffffffffffffffffffffffffffffffffff1673ffffffffffffffffffffffffffffffffffffffff16815260200190815260200160002060000160016101000a81548160ff021916908315150217905550426000808773ffffffffffffffffffffffffffffffffffffffff1673ffffffffffffffffffffffffffffffffffffffff16815260200190815260200160002060010181905550836000808773ffffffffffffffffffffffffffffffffffffffff1673ffffffffffffffffffffffffffffffffffffffff16815260200190815260200160002060020181905550336000808773ffffffffffffffffffffffffffffffffffffffff1673ffffffffffffffffffffffffffffffffffffffff16815260200190815260200160002060030160006101000a81548173ffffffffffffffffffffffffffffffffffffffff021916908373ffffffffffffffffffffffffffffffffffffffff16021790555060008060008773ffffffffffffffffffffffffffffffffffffffff1673ffffffffffffffffffffffffffffffffffffffff16815260200190815260200160002060000160026101000a81548160ff021916908360000b60ff160217905550600160003373ffffffffffffffffffffffffffffffffffffffff1673ffffffffffffffffffffffffffffffffffffffff168152602001908152602001600020859080600181540180825580915050600190039060005260206000200160009091909190916101000a81548173ffffffffffffffffffffffffffffffffffffffff021916908373ffffffffffffffffffffffffffffffffffffffff1602179055508473ffffffffffffffffffffffffffffffffffffffff168373ffffffffffffffffffffffffffffffffffffffff167f6cb0c7cac157efc66d322ec4c52fbb9e9509fee208ae01f71de6d340fdfb385942604051610afb91906120d0565b60405180910390a35050505050565b60006020528060005260406000206000915090508060000160009054906101000a900460ff16908060000160019054906101000a900460ff16908060000160029054906101000a900460000b908060010154908060020154908060030160009054906101000a900473ffffffffffffffffffffffffffffffffffffffff16905086565b600260009054906101000a900473ffffffffffffffffffffffffffffffffffffffff1673ffffffffffffffffffffffffffffffffffffffff1663c3a3aae4336040518263ffffffff1660e01b8152600401610be89190611e60565b60206040518083038186803b158015610c0057600080fd5b505afa158015610c14573d6000803e3d6000fd5b505050506040513d601f19601f82011682018060405250810190610c389190611bd2565b610c77576040517f08c379a0000000000000000000000000000000000000000000000000000000008152600401610c6e90611f50565b60405180910390fd5b621275006000808373ffffffffffffffffffffffffffffffffffffffff1673ffffffffffffffffffffffffffffffffffffffff16815260200190815260200160002060010154610cc791906121aa565b4211610d08576040517f08c379a0000000000000000000000000000000000000000000000000000000008152600401610cff90611fd0565b60405180910390fd5b600115156000808373ffffffffffffffffffffffffffffffffffffffff1673ffffffffffffffffffffffffffffffffffffffff16815260200190815260200160002060000160009054906101000a900460ff16151514610d9d576040517f08c379a0000000000000000000000000000000000000000000000000000000008152600401610d9490611ff0565b60405180910390fd5b600115156000808373ffffffffffffffffffffffffffffffffffffffff1673ffffffffffffffffffffffffffffffffffffffff16815260200190815260200160002060000160019054906101000a900460ff16151514610e32576040517f08c379a0000000000000000000000000000000000000000000000000000000008152600401610e2990612030565b60405180910390fd5b60008060008373ffffffffffffffffffffffffffffffffffffffff1673ffffffffffffffffffffffffffffffffffffffff16815260200190815260200160002060000160006101000a81548160ff02191690831515021790555060005b600160003373ffffffffffffffffffffffffffffffffffffffff1673ffffffffffffffffffffffffffffffffffffffff168152602001908152602001600020805490508110156112ec578173ffffffffffffffffffffffffffffffffffffffff16600160003373ffffffffffffffffffffffffffffffffffffffff1673ffffffffffffffffffffffffffffffffffffffff1681526020019081526020016000208281548110610f67577f4e487b7100000000000000000000000000000000000000000000000000000000600052603260045260246000fd5b9060005260206000200160009054906101000a900473ffffffffffffffffffffffffffffffffffffffff1673ffffffffffffffffffffffffffffffffffffffff1614156112d957600160003373ffffffffffffffffffffffffffffffffffffffff1673ffffffffffffffffffffffffffffffffffffffff1681526020019081526020016000208181548110611025577f4e487b7100000000000000000000000000000000000000000000000000000000600052603260045260246000fd5b9060005260206000200160006101000a81549073ffffffffffffffffffffffffffffffffffffffff021916905560008190505b60018060003373ffffffffffffffffffffffffffffffffffffffff1673ffffffffffffffffffffffffffffffffffffffff168152602001908152602001600020805490506110a6919061228b565b81101561122d57600160003373ffffffffffffffffffffffffffffffffffffffff1673ffffffffffffffffffffffffffffffffffffffff1681526020019081526020016000206001826110f991906121aa565b81548110611130577f4e487b7100000000000000000000000000000000000000000000000000000000600052603260045260246000fd5b9060005260206000200160009054906101000a900473ffffffffffffffffffffffffffffffffffffffff16600160003373ffffffffffffffffffffffffffffffffffffffff1673ffffffffffffffffffffffffffffffffffffffff16815260200190815260200160002082815481106111d2577f4e487b7100000000000000000000000000000000000000000000000000000000600052603260045260246000fd5b9060005260206000200160006101000a81548173ffffffffffffffffffffffffffffffffffffffff021916908373ffffffffffffffffffffffffffffffffffffffff160217905550808061122590612314565b915050611058565b50600160003373ffffffffffffffffffffffffffffffffffffffff1673ffffffffffffffffffffffffffffffffffffffff1681526020019081526020016000208054806112a3577f4e487b7100000000000000000000000000000000000000000000000000000000600052603160045260246000fd5b6001900381819060005260206000200160006101000a81549073ffffffffffffffffffffffffffffffffffffffff021916905590555b80806112e490612314565b915050610e8f565b5060016000808373ffffffffffffffffffffffffffffffffffffffff1673ffffffffffffffffffffffffffffffffffffffff16815260200190815260200160002060000160029054906101000a900460000b60000b126114ac57600115158173ffffffffffffffffffffffffffffffffffffffff167f230a847ed5b8af3a73e324bb4be2f007e49db54ce203894a28a03507ebc7a2764260405161139091906120d0565b60405180910390a36000808273ffffffffffffffffffffffffffffffffffffffff1673ffffffffffffffffffffffffffffffffffffffff16815260200190815260200160002060030160009054906101000a900473ffffffffffffffffffffffffffffffffffffffff1673ffffffffffffffffffffffffffffffffffffffff166394d96c31826000808573ffffffffffffffffffffffffffffffffffffffff1673ffffffffffffffffffffffffffffffffffffffff168152602001908152602001600020600201546040518363ffffffff1660e01b8152600401611475929190611e7b565b600060405180830381600087803b15801561148f57600080fd5b505af11580156114a3573d6000803e3d6000fd5b5050505061160c565b600015158173ffffffffffffffffffffffffffffffffffffffff167f230a847ed5b8af3a73e324bb4be2f007e49db54ce203894a28a03507ebc7a276426040516114f691906120d0565b60405180910390a36000808273ffffffffffffffffffffffffffffffffffffffff1673ffffffffffffffffffffffffffffffffffffffff16815260200190815260200160002060030160009054906101000a900473ffffffffffffffffffffffffffffffffffffffff1673ffffffffffffffffffffffffffffffffffffffff1663d91921ed6000808473ffffffffffffffffffffffffffffffffffffffff1673ffffffffffffffffffffffffffffffffffffffff168152602001908152602001600020600201546040518263ffffffff1660e01b81526004016115d991906120d0565b600060405180830381600087803b1580156115f357600080fd5b505af1158015611607573d6000803e3d6000fd5b505050505b50565b600260009054906101000a900473ffffffffffffffffffffffffffffffffffffffff1673ffffffffffffffffffffffffffffffffffffffff1663c3a3aae4336040518263ffffffff1660e01b815260040161166a9190611e60565b60206040518083038186803b15801561168257600080fd5b505afa158015611696573d6000803e3d6000fd5b505050506040513d601f19601f820116820180604052508101906116ba9190611bd2565b6116f9576040517f08c379a00000000000000000000000000000000000000000000000000000000081526004016116f090611f50565b60405180910390fd5b600015156000808573ffffffffffffffffffffffffffffffffffffffff1673ffffffffffffffffffffffffffffffffffffffff16815260200190815260200160002060040160008473ffffffffffffffffffffffffffffffffffffffff1673ffffffffffffffffffffffffffffffffffffffff16815260200190815260200160002060009054906101000a900460ff161515146117cb576040517f08c379a00000000000000000000000000000000000000000000000000000000081526004016117c290612050565b60405180910390fd5b60018160000b14806117ff57507fffffffffffffffffffffffffffffffffffffffffffffffffffffffffffffffff8160000b145b61183e576040517f08c379a000000000000000000000000000000000000000000000000000000000815260040161183590612090565b60405180910390fd5b60016000808573ffffffffffffffffffffffffffffffffffffffff1673ffffffffffffffffffffffffffffffffffffffff16815260200190815260200160002060000160006101000a81548160ff02191690831515021790556118d6576040517f08c379a00000000000000000000000000000000000000000000000000000000081526004016118cd90611ff0565b60405180910390fd5b806000808573ffffffffffffffffffffffffffffffffffffffff1673ffffffffffffffffffffffffffffffffffffffff16815260200190815260200160002060000160028282829054906101000a900460000b6119339190612135565b92506101000a81548160ff021916908360000b60ff16021790555060016000808573ffffffffffffffffffffffffffffffffffffffff1673ffffffffffffffffffffffffffffffffffffffff16815260200190815260200160002060040160008473ffffffffffffffffffffffffffffffffffffffff1673ffffffffffffffffffffffffffffffffffffffff16815260200190815260200160002060006101000a81548160ff0219169083151502179055508273ffffffffffffffffffffffffffffffffffffffff168273ffffffffffffffffffffffffffffffffffffffff167fe678b3305555fbaf7496e518942e5e3ccdbadcfd81643b4b8a126c02afacbeda8342604051611a44929190611f27565b60405180910390a3505050565b600081359050611a60816125a7565b92915050565b600081519050611a75816125a7565b92915050565b600081519050611a8a816125be565b92915050565b600081359050611a9f816125d5565b92915050565b600081359050611ab4816125ec565b92915050565b600060208284031215611acc57600080fd5b6000611ada84828501611a51565b91505092915050565b600060208284031215611af557600080fd5b6000611b0384828501611a66565b91505092915050565b600080600060608486031215611b2157600080fd5b6000611b2f86828701611a51565b9350506020611b4086828701611a51565b9250506040611b5186828701611a90565b9150509250925092565b600080600080600060a08688031215611b7357600080fd5b6000611b8188828901611a51565b9550506020611b9288828901611aa5565b9450506040611ba388828901611a51565b9350506060611bb488828901611aa5565b9250506080611bc588828901611aa5565b9150509295509295909350565b600060208284031215611be457600080fd5b6000611bf284828501611a7b565b91505092915050565b6000611c078383611c13565b60208301905092915050565b611c1c816122bf565b82525050565b611c2b816122bf565b82525050565b6000611c3c826120fb565b611c468185612113565b9350611c51836120eb565b8060005b83811015611c82578151611c698882611bfb565b9750611c7483612106565b925050600181019050611c55565b5085935050505092915050565b611c98816122d1565b82525050565b611ca7816122dd565b82525050565b6000611cba600983612124565b9150611cc5826123bb565b602082019050919050565b6000611cdd600983612124565b9150611ce8826123e4565b602082019050919050565b6000611d00600983612124565b9150611d0b8261240d565b602082019050919050565b6000611d23600783612124565b9150611d2e82612436565b602082019050919050565b6000611d46600c83612124565b9150611d518261245f565b602082019050919050565b6000611d69600883612124565b9150611d7482612488565b602082019050919050565b6000611d8c601083612124565b9150611d97826124b1565b602082019050919050565b6000611daf601083612124565b9150611dba826124da565b602082019050919050565b6000611dd2600583612124565b9150611ddd82612503565b602082019050919050565b6000611df5600983612124565b9150611e008261252c565b602082019050919050565b6000611e18600e83612124565b9150611e2382612555565b602082019050919050565b6000611e3b600783612124565b9150611e468261257e565b602082019050919050565b611e5a8161230a565b82525050565b6000602082019050611e756000830184611c22565b92915050565b6000604082019050611e906000830185611c22565b611e9d6020830184611e51565b9392505050565b60006020820190508181036000830152611ebe8184611c31565b905092915050565b600060c082019050611edb6000830189611c8f565b611ee86020830188611c8f565b611ef56040830187611c9e565b611f026060830186611e51565b611f0f6080830185611e51565b611f1c60a0830184611c22565b979650505050505050565b6000604082019050611f3c6000830185611c9e565b611f496020830184611e51565b9392505050565b60006020820190508181036000830152611f6981611cad565b9050919050565b60006020820190508181036000830152611f8981611cd0565b9050919050565b60006020820190508181036000830152611fa981611cf3565b9050919050565b60006020820190508181036000830152611fc981611d16565b9050919050565b60006020820190508181036000830152611fe981611d39565b9050919050565b6000602082019050818103600083015261200981611d5c565b9050919050565b6000602082019050818103600083015261202981611d7f565b9050919050565b6000602082019050818103600083015261204981611da2565b9050919050565b6000602082019050818103600083015261206981611dc5565b9050919050565b6000602082019050818103600083015261208981611de8565b9050919050565b600060208201905081810360008301526120a981611e0b565b9050919050565b600060208201905081810360008301526120c981611e2e565b9050919050565b60006020820190506120e56000830184611e51565b92915050565b6000819050602082019050919050565b600081519050919050565b6000602082019050919050565b600082825260208201905092915050565b600082825260208201905092915050565b6000612140826122dd565b915061214b836122dd565b925081607f038313600083121516156121675761216661235d565b5b817fffffffffffffffffffffffffffffffffffffffffffffffffffffffffffffff8003831260008312161561219f5761219e61235d565b5b828201905092915050565b60006121b58261230a565b91506121c08361230a565b9250827fffffffffffffffffffffffffffffffffffffffffffffffffffffffffffffffff038211156121f5576121f461235d565b5b828201905092915050565b600061220b8261230a565b91506122168361230a565b9250826122265761222561238c565b5b828204905092915050565b600061223c8261230a565b91506122478361230a565b9250817fffffffffffffffffffffffffffffffffffffffffffffffffffffffffffffffff04831182151516156122805761227f61235d565b5b828202905092915050565b60006122968261230a565b91506122a18361230a565b9250828210156122b4576122b361235d565b5b828203905092915050565b60006122ca826122ea565b9050919050565b60008115159050919050565b60008160000b9050919050565b600073ffffffffffffffffffffffffffffffffffffffff82169050919050565b6000819050919050565b600061231f8261230a565b91507fffffffffffffffffffffffffffffffffffffffffffffffffffffffffffffffff8214156123525761235161235d565b5b600182019050919050565b7f4e487b7100000000000000000000000000000000000000000000000000000000600052601160045260246000fd5b7f4e487b7100000000000000000000000000000000000000000000000000000000600052601260045260246000fd5b7f6e6f742061207375620000000000000000000000000000000000000000000000600082015250565b7f6973206d656d6265720000000000000000000000000000000000000000000000600082015250565b7f746f6f20736d616c6c0000000000000000000000000000000000000000000000600082015250565b7f6e6f207375627300000000000000000000000000000000000000000000000000600082015250565b7f746f6f20736f6f6e2062726f0000000000000000000000000000000000000000600082015250565b7f6e6f74206f70656e000000000000000000000000000000000000000000000000600082015250565b7f636c6f736520736f6d6520766f74657300000000000000000000000000000000600082015250565b7f686173206e6f7420616363657074656400000000000000000000000000000000600082015250565b7f766f746564000000000000000000000000000000000000000000000000000000600082015250565b7f6e6f206c65616465720000000000000000000000000000000000000000000000600082015250565b7f766f7465206e6f74207269676874000000000000000000000000000000000000600082015250565b7f746f6f2062696700000000000000000000000000000000000000000000000000600082015250565b6125b0816122bf565b81146125bb57600080fd5b50565b6125c7816122d1565b81146125d257600080fd5b50565b6125de816122dd565b81146125e957600080fd5b50565b6125f58161230a565b811461260057600080fd5b5056fea2646970667358221220c88a01b6af454c4b98ef0cbb8286b557ab117211d22c9fbd07efe91779aeab4164736f6c63430008040033",
  "linkReferences": {},
  "deployedLinkReferences": {}
}