{
  "_format": "hh-sol-artifact-1",
  "contractName": "WhiteList",
  "sourceName": "contracts/DaoSystem.sol",
  "abi": [
    {
      "inputs": [],
      "stateMutability": "nonpayable",
      "type": "constructor"
    },
    {
      "inputs": [
        {
          "internalType": "address",
          "name": "_winner",
          "type": "address"
        }
      ],
      "name": "addToWhiteList",
      "outputs": [],
      "stateMutability": "nonpayable",
      "type": "function"
    },
    {
      "inputs": [
        {
          "internalType": "address",
          "name": "_subFactoryAddress",
          "type": "address"
        }
      ],
      "name": "createSub",
      "outputs": [],
      "stateMutability": "nonpayable",
      "type": "function"
    },
    {
      "inputs": [],
      "name": "owner",
      "outputs": [
        {
          "internalType": "address",
          "name": "",
          "type": "address"
        }
      ],
      "stateMutability": "view",
      "type": "function"
    }
  ],
  "bytecode": "0x608060405234801561001057600080fd5b5033600160006101000a81548173ffffffffffffffffffffffffffffffffffffffff021916908373ffffffffffffffffffffffffffffffffffffffff1602179055506104ec806100616000396000f3fe608060405234801561001057600080fd5b50600436106100415760003560e01c806347ee0394146100465780638da5cb5b14610062578063c265cd3514610080575b600080fd5b610060600480360381019061005b91906102cf565b61009c565b005b61006a610186565b604051610077919061035c565b60405180910390f35b61009a600480360381019061009591906102cf565b6101ac565b005b3373ffffffffffffffffffffffffffffffffffffffff16600160009054906101000a900473ffffffffffffffffffffffffffffffffffffffff1673ffffffffffffffffffffffffffffffffffffffff161461012c576040517f08c379a0000000000000000000000000000000000000000000000000000000008152600401610123906103ce565b60405180910390fd5b60016000808373ffffffffffffffffffffffffffffffffffffffff1673ffffffffffffffffffffffffffffffffffffffff16815260200190815260200160002060006101000a81548160ff02191690831515021790555050565b600160009054906101000a900473ffffffffffffffffffffffffffffffffffffffff1681565b600115156000803373ffffffffffffffffffffffffffffffffffffffff1673ffffffffffffffffffffffffffffffffffffffff16815260200190815260200160002060009054906101000a900460ff1615151461023e576040517f08c379a0000000000000000000000000000000000000000000000000000000008152600401610235906103ae565b60405180910390fd5b8073ffffffffffffffffffffffffffffffffffffffff166396c8f9173369ee3a5f48a68b55200000306040518463ffffffff1660e01b815260040161028593929190610377565b600060405180830381600087803b15801561029f57600080fd5b505af11580156102b3573d6000803e3d6000fd5b5050505050565b6000813590506102c98161049f565b92915050565b6000602082840312156102e157600080fd5b60006102ef848285016102ba565b91505092915050565b610301816103ff565b82525050565b6103108161043b565b82525050565b6000610323600f836103ee565b915061032e8261044d565b602082019050919050565b60006103466009836103ee565b915061035182610476565b602082019050919050565b600060208201905061037160008301846102f8565b92915050565b600060608201905061038c60008301866102f8565b6103996020830185610307565b6103a660408301846102f8565b949350505050565b600060208201905081810360008301526103c781610316565b9050919050565b600060208201905081810360008301526103e781610339565b9050919050565b600082825260208201905092915050565b600061040a82610411565b9050919050565b600073ffffffffffffffffffffffffffffffffffffffff82169050919050565b6000819050919050565b600061044682610431565b9050919050565b7f6e6f742077686974656c69737465640000000000000000000000000000000000600082015250565b7f6e6f74206f776e65720000000000000000000000000000000000000000000000600082015250565b6104a8816103ff565b81146104b357600080fd5b5056fea26469706673582212206eee90e6181f8a75d81739307b131af44a7a2c30d81cf47e4f68cf9a30f728a464736f6c63430008040033",
  "linkReferences": {},
  "deployedLinkReferences": {}
}